:020000021000EC
:10000000E07F0010ED010100D5010100D9010100E0
:10001000DD010100E1010100E50101000000000037
:10002000000000000000000000000000391C01007A
:10003000E901010000000000DD1C0100191D0100A4
:100040006D0201006D0201006D0201006D020100F0
:100050006D0201006D0201006D0201006D020100E0
:100060006D0201006D0201006D0201006D020100D0
:100070006D0201006D0201006D0201006D020100C0
:100080006D0201006D0201006D0201006D020100B0
:100090006D0201006D0201006D0201006D020100A0
:1000A000552F01006D0201006D0201006D0201007B
:1000B0006D0201006D0201006D0201006D02010080
:1000C0006D0201006D020100C8AD010000000010CA
:1000D000A0050000C8AD010000C00720000000001E
:1000E000B0050010344F000000C0072000000000E1
:1000F00040F2B053C1F200031A780AB90120187017
:10010000704700BF40F2A850C1F2000008B5036874
:100110002BB140F20003C0F2000303B1984708BDC1
:1001200030B585B0002402F01DFF01250B49502297
:1001300023460B48009501940294039400F01CF9A7
:1001400008495022234608480095019402940394DC
:1001500000F012F900F040FBFEE700BFFCA7010031
:100160007101010000A80100BD010100FEE700BF10
:10017000F0B583B0104B02AD18681F4640F0005236
:100180001A6000F065FB002445F8040D4FF000569E
:1001900028464FF47A7100F05FFDE3434CB1DCB2C6
:1001A000FE6128464FF47A7100F056FDE343002CBF
:1001B000F5D1BE61FF24EBE720C0092008B502F0AD
:1001C000B7FEB0F1FF3FFAD0014802F0A1FEF6E71A
:1001D00004A80100FEE700BFFEE700BFFEE700BF86
:1001E000FEE700BFFEE700BFFEE700BF70B51A489C
:1001F0001A49884222D21A4CC343224652F8046B51
:10020000CD18034643F8046BAD088B4205F0010599
:1002100014D23DB1166804F108021E6000F1080313
:100220008B420BD2144654F8045B184640F8045B2A
:100230005668221D5E60031D8B42F3D309480A49AC
:100240004FF000028842B8BF40F8042BFADB01F0FF
:10025000F5FDFFF765FFFEE700000010A0050010A8
:10026000C8AD0100B0050010E4540010FEE700BF67
:100270004FF0FF30704700BF0020704700207047EC
:100280000020704700207047002070470020704712
:1002900010B50E4C0E4B1968226848609042044617
:1002A0000BD30C4800681B68191D01F0F9FB0A49C3
:1002B0000A68944238BF0C6010BD084800681B688B
:1002C000191DBDE8104001F0EBBB00BFB4060010E3
:1002D00098060010CC05001004000010B8060010AD
:1002E0002DE9F04784B04B6801F108065B680D46C4
:1002F000B3424B6008BF5B688046D3F80C9017464A
:100300005868B042686008BF7068C46808BF686019
:10031000236B1A78A52A27D14FF0000C13F8011F80
:100320000CF1010CA5291FFA8CFCF7D04FEA9C0CAC
:10033000D4F82CE0D4F840A00D4904F134023B4637
:100340000C48CDF800E0CDF804C0CDF808A005F0C9
:100350009BFB4046074905F0BFFB4C4501D06B684D
:10036000CEE704B0BDE8F0874FF0000CE0E700BF37
:1003700034AB0100D00500102DE9F04F83B00546E5
:100380004C200E4614469946DDF830B0DDF834A016
:10039000DDF8388001F0B4FB0746002874D0B8F1CE
:1003A000000F7AD0C0F83080A200A521404605F0A9
:1003B000EFFA3B6B601E314603EB80080C2207F11D
:1003C000340005F00BFCBBF1040F34BF5E4604267D
:1003D000002328F0070407F1040887F83F3040465F
:1003E000FE62BE6401F04AFBC6F1050607F1180083
:1003F00001F044FB3F61BE617F62204629464A46C8
:1004000001F008FC3860BAF1000F01D0CAF80070A2
:1004100001F04CFC3C4B3D4C1A68551C1D6021689A
:10042000002934D03A4D296821B92068C26A934521
:1004300028BF2760374EF86A3168374B8842374902
:1004400088BF30600E681A68B04288BF08603449BF
:1004500002F1010E00EB800CC3F800E001EB8C0010
:100460003A64414601F00EFB01F02CFC2B681BB1F5
:100470002368D86A834503D8012003B0BDE8F08F14
:1004800001F00CFC0120F8E74FF0FF30F5E72760A2
:100490001E68012E12D01E4DCCE7A200104601921C
:1004A00001F02EFB019A8046386300287FF47DAF6F
:1004B000384601F07DFB4FF0FF30DEE7184801F0D1
:1004C000D1FA184801F0CEFA174801F0CBFA174DCF
:1004D000174801F0C7FA174E174801F0C3FA28462B
:1004E00001F0C0FA304601F0BDFA144801F0BAFA42
:1004F000134801F0B7FA134801F0B4FA124B13484D
:100500001D60034D066095E7D806001098060010A0
:1005100094060010DC060010BC060010280600102F
:100520002C0600104006001054060010C0060010F3
:1005300068060010140600107C0600109C060010CF
:1005400000060010B8050010CC050010B806001019
:1005500070B5044601F0AAFB144B1A6894421ED0F1
:10056000ECB125462E1D304601F0B8FAAB6A1BB13E
:1005700005F1180001F0B2FA0D48314601F082FA97
:100580000C4A0D4B10681968013001311060196078
:1005900001F098FB0949086800B11CB170BD1D68E5
:1005A0000024DFE7BDE8704001F078BB980600103A
:1005B00000060010FC050010BC0600109406001098
:1005C00010B5044601F072FB24B1E46A01F07AFB35
:1005D000204610BD034B1C68E46A01F073FB204603
:1005E00010BD00BF980600102DE9F0410446042913
:1005F00034BF0F46042701F059FB214B1A6894427F
:100600003AD0002C38D02546AB6CBB4215D018D35D
:10061000D4F1010438BF0024EE6A03EB830CB3422B
:10062000184E686906EB8C0308BFEF62C7F105013D
:100630009842AF64A9610BD03CB9BDE8F04101F02C
:1006400041BB003C18BF0124E6E701F027FBF4E7BB
:100650002F1D384601F042FA0B4BE86A196800EB8F
:100660008002884288BF1860394606EB820001F09C
:1006700009FA002CE1D0E8E71D680024C4E700BFB8
:10068000980600102C06001028060010084B42693E
:100690009A4201D000207047806A0649884204D0FF
:1006A000D0F1010038BF002070470020704700BF24
:1006B000B80500109C06001030B583B0044670B138
:1006C000184D2B6898420AD001F0F0FA626916487A
:1006D000824206D003B0BDE8304001F0F3BA03B067
:1006E00030BDA36A11498B42F4D0002BF2D1231DF7
:1006F0001846019301F0F2F90D4AE36A11688B4242
:10070000019900D913600B4A03EB830C02EB8C00B8
:1007100001F0B8F92868E26AC36A9A42DAD301F0B4
:10072000BDFAD7E798060010B80500109C06001027
:10073000280600102C06001070B505464FF0280062
:1007400080F311881E4B6A699A4206D000244FF04C
:10075000000080F31188204670BDAC6A19488442BD
:10076000F4D0002CF2D1184A1368FBB9174EEC6A8A
:1007700030682E1DC16A30468C4234BF00240124EB
:1007800001F0ACF9124BE86A1A681249904288BF2E
:10079000186000EB800001EB8000314601F072F937
:1007A0004FF0000080F31188204670BD05F118015C
:1007B00001F068F94FF0000080F31188204670BD09
:1007C000B80500109C060010900600109806001056
:1007D000280600102C06001010B584B0002450220A
:1007E00023460D480D490094019402940394FFF7A9
:1007F000C3FD0128034601D004B010BD4FF028000E
:1008000080F31188064A1360064B1C6004B0BDE8F3
:10081000104001F021BA00BFA90B010048AB010054
:1008200094060010B40600104FF0280080F31188E1
:10083000024B00221A6001F02FBA00BF940600108C
:10084000024B1868421C1A60704700BF90060010E7
:1008500010B501F02BFA034B1C6801F033FA204667
:1008600010BD00BFB40600104FF0280080F31188BF
:10087000034803684FF0000080F311881846704762
:10088000B4060010014B1868704700BFD80600106E
:100890002DE9F04F83B03E480368002B50D13D4C0A
:1008A00023685A1C22602168002950D0DFF800A17B
:1008B000DAF800302168994246D3374D2A68136828
:1008C000002B38D02A683349D368D3F80CB00868B5
:1008D000DBF80430834257D8304E314FB146A8463A
:1008E00009E0D8F80020D368D3F80CB02168DBF811
:1008F00004308B4248D80BF104010846019101F005
:10090000EDF8DBF828300BF11800019913B101F074
:10091000E5F80199DBF82C30306803EB830C834257
:1009200088BFC9F8003007EB8C0001F0ABF82A68EB
:1009300010680028D5D14FF0FF30CAF8000003E05E
:10094000184B1A68511C196003B0BDE8F08F124BA8
:10095000154918680D68154A1D6008601168481C23
:1009600010601968086830B9DFF844A04FF0FF3311
:10097000CAF800309EE71868DFF834A0C268D36870
:100980005B68CAF8003095E7CAF80030DCE700BFC2
:1009900090060010B4060010CC05001028060010C8
:1009A0002C060010B4050010B8060010B0060010A8
:1009B000040000102DE9F04701F078F92D4B18687C
:1009C000421E1A601D68002D4DD12B490C68002C69
:1009D00031D02A4F2A4EB946DFF8B4801EE0D9F84C
:1009E0000C20D46804F1180004F1040A01F076F830
:1009F000504601F073F8E16A336801EB810C9942CB
:100A000088BF316008EB8C00514601F03BF81D486F
:100A1000E46A0268D36A9C4228BF0125386800282E
:100A2000DDD1194C226882B9012D11D0174B1C68F9
:100A3000012C0ED0144601F045F92046BDE8F087A0
:100A4000FFF726FF2368591E21602268002AF7D18C
:100A50000E4B00201860012401F020F901F032F95A
:100A60002046BDE8F087002401F02CF92046BDE8BF
:100A7000F08700BF90060010D80600109C060010FA
:100A80002806001098060010B4050010D4060010C7
:100A90002C0600102DE9F0413B4D00222E683B4909
:100AA000741C2C600270074605F016F83848394D62
:100AB000066806EB860105EB81010B6806F001086C
:100AC000002B40D1741EF6B1B8F1000F08D004EB32
:100AD000840C05EB8C01086800284FD1013C12D32F
:100AE00004EB840C55F82C30661E05EB8C01002BB2
:100AF0002ED106EB860E55F82E0005EB8E01D0B9EF
:100B0000741E002EECD1244B1A68116800292FD1D5
:100B1000224B19680868002824D121490B68E3B9E1
:100B200020490A681AB138465322FFF7D9FBBDE8BD
:100B3000F041FFF73FBF38465222FFF7D1FB741E4A
:100B4000002ECDD1DFE738465222FFF7C9FBB9E7C7
:100B500038465222FFF7C4FBCBE738464422FFF762
:100B6000BFFBDDE7196838464222FFF7B9FBD4E73F
:100B7000196838464222FFF7B3FBC9E738465222CC
:100B8000FFF7AEFBAAE700BF9006001050AB0100D4
:100B9000DC0600102C060010CC050010B806001072
:100BA00000060010B80500102DE9F047164C174F4D
:100BB000174DDFF86090A046BA462368002BFCD0A2
:100BC0002968481C28603E68FFF7F4FE002EF4D028
:100BD00001F06CF8DAF80C60F668301D00F07EFF6A
:100BE000D9F80010481EC9F80000D8F800305A1E85
:100BF000C8F8002001F066F8306B00F0D9FF3046ED
:100C000000F0D6FFD9E700BFFC0500100006001079
:100C100090060010D806001070B5044618B9BDE85B
:100C2000704001F03BB8094D09492868094B421C46
:100C30002A600D681868043000F050FF6019FFF753
:100C400027FBFFF7B7FE0028E9D070BD9006001023
:100C5000B40600109806001070B5144B144A1D68B5
:100C60006C1C1C6003681568CC18AB4211D9A342F8
:100C700019D911688C4216D90E4A046010680430E4
:100C800000F02CFF2046FFF703FBFFF793FE30B187
:100C900070BDA342F0D811688C42EDD803E0BDE8E6
:100CA000704000F0FBBF0460EFE700BF900600104B
:100CB000B40600109806001038B52B480368002BC6
:100CC00039D12A4C226820681568036B9D423CD9B3
:100CD00025682749286B1422244D04F07FFD002845
:100CE0002DD1244B2449186800EB8005AA008858B0
:100CF00048B91A68501E18601D6805EB850C51F83C
:100D00002C20002AF5D01B6803EB8305AA0001EB19
:100D1000020EDEF8045002F108006B6801EB000CD3
:100D20006345CEF8043008BF5B68D96808BFCEF8C9
:100D30000430216038BD114901220A6038BD28689D
:100D400029683431FFF712FACBE720682168343183
:100D5000FFF70CFA25680649286B1422034D04F0AE
:100D60003DFD0028BDD0EAE790060010980600106F
:100D700020AB0100280600102C060010D40600103D
:100D80002DE9F041194D044600F090FF2B689C427C
:100D900022D0002C20D02646371D384600F09EFE7B
:100DA000B06A18B106F1180000F098FE104E3946EE
:100DB000304600F067FE00F085FF0CB1BDE8F08121
:100DC0000C4A116871B90C4930680B68984206D01A
:100DD000BDE8F041FFF770BF2E680024DCE72C600F
:100DE000BDE8F081BDE8F04100F058BF9806001062
:100DF000B805001094060010D806001070B50D4C10
:100E00000D462168183100F04BFE2068043000F0D8
:100E100065FEB5F1FF3F06D0074B1A68A818BDE87C
:100E20007040FFF735BA216804480431BDE87040CE
:100E300000F028BE98060010B4060010B805001097
:100E400038B5C168CC6804F11805284600F046FEA4
:100E500011480368D3B9251D284600F03FFE0F490D
:100E6000E06A0A680E4B904200EB800288BF08607F
:100E700003EB8200294600F005FE0A4AE06A116889
:100E8000CB6A984234BF0020012038BD064829466D
:100E900000F0F8FDF1E700BF9006001028060010F2
:100EA0002C060010980600109C060010034B044905
:100EB0001A680B6802604360704700BFB0060010FC
:100EC000B4060010F8B50C46054600F0EFFE2368A6
:100ED000B3F1FF3F2BD018482968026891421DD01A
:100EE00016496A680E68B24213D90E681349C2EBFC
:100EF000060C63450DD90F680026C7EB030E72443C
:100F0000226000680B6828606B6000F0DBFE3046F2
:100F1000F8BD012600F0D6FE3046F8BD07496A68E4
:100F20000E680649C2EB060C6345E4D8F1E70026DB
:100F300000F0C8FE3046F8BDB0060010B406001040
:100F4000014B01221A607047D406001000B1406CBA
:100F5000704700BF00B14164704700BF60B1036BD0
:100F60001A78A52A0BD1002013F8011F0130A529FA
:100F700080B2F9D080087047024B1868EFE7002074
:100F8000704700BF98060010014B1868704700BFFB
:100F9000980600102DE9F041164DC36A29680446F1
:100FA000CA6A93420FD22A68134ED16A03EB830CAC
:100FB000426906EB8C03C1F105019A42816104D0BC
:100FC0002A68D36AC362BDE8F081071D384600F085
:100FD00085FD2868094AC36A116803EB83008B42C8
:100FE00006EB80003946E36288BF1360BDE8F0413C
:100FF00000F048BD980600102C06001028060010CE
:1010000070B50446D8B1C26A836C9A4217D0051DE8
:10101000284600F063FD0A4BA06C1A68C0F1050178
:101020009042A1610749E06288BF186000EB800030
:1010300001EB80002946BDE8704000F023BD70BD83
:10104000280600102C06001070B5044600F02EFE95
:10105000A36C002B19DD606AB8B104F1240507E028
:10106000A06C431EA364A26C002A0EDD616A61B10C
:101070002846FFF7E5FE0028F2D0FFF761FFA06CDD
:10108000431EA364A26C002AF0DC4FF0FF32A2647E
:1010900000F018FE00F00AFE616C002919DD2369DA
:1010A000BBB104F1100507E0636C5A1E6264616C09
:1010B00000290EDD206960B12846FFF7C1FE002837
:1010C000F2D0FFF73DFF636C5A1E6264616C002929
:1010D000F0DC4FF0FF306064BDE8704000F0F2BD1E
:1010E00038B5036C044633B90568002D28D0A26BCF
:1010F000511CA16338BD82B91A46806804F0A0FB78
:10110000A168206C62680B189342A360EFD3226839
:10111000A260A26B511CA16338BD1A46C06804F0DE
:101120008FFB226CE168524220688B188342E36097
:10113000DDD263689818A26BE060511CA16338BDD2
:101140004068FFF75DFF6560D1E700BF70B50446FA
:101150000D4600F0ABFDE06B2368226C461E00FBE1
:10116000023102FB06304FF0FF320026A6636160B9
:101170006264A360E060A26475B923691BB900F0E2
:10118000A1FD012070BD04F11000FFF759FE0128F8
:10119000F5D100F083FDF2E704F1100000F062FCED
:1011A00004F1240000F05EFC00F08CFD012070BD15
:1011B00070B582B0044608B902B070BD50200191EC
:1011C000009200F09DFC019905460028F4D004FB34
:1011D00001F0013000F094FC01990646286050B1FE
:1011E0002964EC6328460121FFF7B0FF009A2846E6
:1011F00085F84D20E0E7284600F0DAFC3046DBE7D2
:1012000010B502220C460021FFF7D2FF00B1846323
:1012100010BD00BF2DE9F04385B004460192984609
:101220000E4600F043FDA26BE36B00259A422F4669
:1012300031D30198002850D0002D3AD000F042FD63
:10124000FFF7FEFA00F032FD626CB2F1FF3F08BF1B
:101250006764A16CB1F1FF3F08BFA76400F032FDE5
:1012600002A801A9FFF72EFE00283BD100F01EFDC9
:10127000D4F83890E56B00F025FDA9451DD0204637
:10128000FFF7E2FEFFF796FB012500F00FFDA26BD2
:10129000E36B9A42CDD2204631464246FFF720FF0B
:1012A000606A002825D100F00DFD012005B0BDE8E1
:1012B000F08302A8FFF7FAFDC0E7019904F11000DE
:1012C000FFF79CFD2046FFF7BFFEFFF773FB0028EA
:1012D000DAD100F0E3FC0125D7E7009000F0F2FC42
:1012E0000098E3E72046FFF7AFFEFFF763FB00201F
:1012F000DCE704F12400FFF7A3FD0128D3D100F0BF
:10130000CDFCD0E738B545680446FFF73DFE854281
:1013100001D0002038BDE1680139E16009B1012048
:1013200038BD20460A460B46FFF774FF012038BD42
:1013300070B50646502000F0E3FB0446D8B1002506
:101340004FF0FF3301228563E26363641030A364CE
:1013500065602560A560E560256484F84D6000F057
:1013600081FB04F1240000F07DFB204629462A463B
:101370002B46FFF74FFF204670BD00BF38B504462F
:1013800015464FF0280080F31188A06BE26B904265
:1013900006D300234FF0000080F31188184638BDB3
:1013A0001A462046FFF79CFEA36CB3F1FF3F09D01D
:1013B000A26C0123D018A0644FF0000080F31188C4
:1013C000184638BD616A09B90123E3E704F1240036
:1013D000FFF736FD0028F7D0002DF5D001232B6054
:1013E000D8E700BF2DE9F04184B004461F460E4601
:1013F000019200F05BFCA36B0025A846002B3AD1BC
:101400000198002870D0002D5BD000F05BFCFFF746
:1014100017FA00F04BFC636CB3F1FF3F08BFC4F850
:101420004480A26CB2F1FF3F08BFC4F8488000F0CE
:1014300049FC02A801A9FFF745FD00285BD100F097
:1014400035FCA56B00F03EFC002D3ED12068002845
:1014500042D0019904F12400FFF7D0FC2046FFF7A9
:10146000F3FDFFF7A7FA002827D0012500F01EFCA6
:10147000A36B002BC4D02368E56853B1226C60686D
:10148000A9188142E160304624BFE360194604F0A8
:10149000D7F9002F36D1A36B21685A1EA263002909
:1014A00040D02069002830D004F11000FFF7C8FCBC
:1014B00001282AD100F0F2FB27E000F0EFFB012524
:1014C000D4E702A8FFF7F2FC9FE72046FFF7BCFD38
:1014D0000125FFF76FFAC9E700F0E8FB6068FFF746
:1014E00059FD00F0EFFBB4E7009000F0EBFB009833
:1014F00004B0BDE8F0812046FFF7A6FDFFF75AFAD9
:101500000020F5E7616AE56019B900F0DBFB012016
:10151000EEE704F12400FFF793FC0028F5D000F07B
:10152000BDFBF2E7FFF730FD6060BAE770B54568D4
:1015300004460E46FFF728FD85420CD000212046C8
:1015400032460B46FFF74EFF012800D070BDE3681E
:101550005A1CE26070BDE16801200B18E36070BDA9
:1015600070B5044615464FF0280080F31188A36B30
:10157000CBB1206860B1E368226C66689B18B34207
:10158000E36024BF0346E0600846194604F058F9BA
:10159000A26B511EA163606CB0F1FF3F09D0616C7A
:1015A0000123C81860644FF0000080F311881846CA
:1015B00070BD236933B901234FF0000080F3118817
:1015C000184670BD04F11000FFF73AFC0028F2D075
:1015D000002DF0D001232B60E5E700BF10B50446D5
:1015E00000F064FBA46B00F06DFB204610BD00BF53
:1015F000806B704710B51F4B04465A68904222D04A
:10160000D968884224D05A69904223D0D969884247
:1016100022D05A6A904221D0D96A884220D05A6B8F
:1016200090421FD0D96B88421ED05A6C90421DD078
:10163000D96C88421CD0206800F0BAFA2046BDE878
:10164000104000F0B5BA0022002043F83200F2E763
:101650000122F9E70222F7E70322F5E70422F3E784
:101660000522F1E70622EFE70722EDE70822EBE784
:101670000922E9E79454001090F84C00704700BF2D
:1016800080F84C10704700BF90F84D00704700BFC5
:10169000806BD0F1010038BF00207047826BC16BB6
:1016A000531A584240EB0300704700BF10B4174B69
:1016B0001A68A2B19A68C2B11A69C2B19A69C2B174
:1016C0001A6AC2B19A6AC2B11A6BC2B19A6BC2B13C
:1016D0001A6C1AB19A6CB2B110BC7047082203EBB5
:1016E000C20443F832106060F6E70122F7E70222F5
:1016F000F5E70322F3E70422F1E70522EFE70622EC
:10170000EDE70722EBE70922E9E700BF9454001058
:101710002DE9F843044638200D46904600F0F0F9D4
:101720000646002843D0244B1A683AB337460022B5
:10173000012D28BF012547F8044BB2863846F562D3
:10174000C6F8308000F09AF906F1180000F096F91A
:101750001A4BF06A19681A4A8842C5F1050500EB70
:10176000800188BF1860366102EB81007662B56146
:10177000394600F087F90120BDE8F8831E60104863
:10178000DFF8549000F06EF90E4F0F4800F06AF940
:10179000484600F067F9384600F064F90B4800F05D
:1017A00061F90B480B4BC0F800901F60BEE74FF08B
:1017B000FF30BDE8F88300BF0C0700105807001089
:1017C000300700101007001044070010F806001042
:1017D0002C0700105C070010E00600102DE9F04116
:1017E000114E124C356822684519101D0F4600F045
:1017F00075F9336821689D424D600CD20C48043164
:10180000006800F04DF96FB1216838461831BDE825
:10181000F04100F045B9074B0431186800F040F979
:10182000002FF1D1BDE8F081240700100C07001053
:101830005C0700102C0700102DE9F04F83B0734EA9
:101840003368002B00F0DE80714D724C2F464FF054
:10185000280080F31188F068D0F80C8008F1180097
:1018600000F03CF94FF0000080F3118808F1040902
:10187000484600F033F9D8F82C302A6803EB83018E
:10188000934204EB810088BF3B60494600F0FAF8C0
:1018900030680028DBD1FEF7DBFFDFF88CB1DFF822
:1018A0008C91DBF800105C4E431AC9F800303268A6
:1018B000DFF868A1DFF85881002B46D001325F1EA7
:1018C0003260C9F80070002A00F08A80534FDAF8BD
:1018D00000301868002834D0DB68DB685968914212
:1018E00006D92EE0D9683268CB685868904228D86B
:1018F0004FF0280080F31188191D084600910193CC
:1019000000F0ECF8019B00999A6A03F118001AB1F3
:1019100000F0E4F8019B00994FF0000080F311887B
:10192000DB6A2A6803EB830C934288BFC8F8003057
:1019300004EB8C0000F0A6F83B6818680028D1D1B1
:101940003268D9F80030002BB8D12B68CBF80020D2
:101950009A00D1188800215851BB002B3DD0591E48
:101960008A0002EB010E04EB8E0CDCF800000B4643
:1019700001F00101D8B9002B3BD051B1013B9A00D5
:1019800002EB030E04EB8E0CDCF8000078B9002BA0
:101990002FD0013B9A00D11854F8210038B9013BEF
:1019A0009A0002EB030E54F82E000028EFD02B60B3
:1019B000D518AA0004EB020CDCF8045002F1080E62
:1019C0006A687444A242CCF8042014D0D368144945
:1019D00018460B601A68196B904703B0BDE8F08F8A
:1019E0001049DAF800000B680C4FCAF800300860A4
:1019F0006FE72B60F1E70749142000FB03135268DF
:101A00005A60E3E7024D034C45E700BFF8060010BB
:101A10005807001030070010240700102C07001092
:101A20000C0700105C07001028070010F4060010D7
:101A300038B5C068C46804F11805284600F04EF8AF
:101A40002946064800F01EF8054AE06A1168CB6A8C
:101A5000984234BF0020012038BD00BFF8060010B6
:101A60000C0700104FF0FF3200F1080100238260E4
:101A70004160C16001610360704700BF00230361E2
:101A8000704700BF43685A688B604A605A6891602B
:101A9000596002684160531C08610360704700BFD1
:101AA00010B40B68B3F1FF3F15D000F10802546881
:101AB0002468A34204D3526854682468A342FAD22B
:101AC0005368086199604B60516003688A60013314
:101AD000036010BC70470269F2E700BF10B44268AF
:101AE00084680369946081685C684A601A6884420B
:101AF00008BF5960013A002101611A6010BC7047AB
:101B000070B50446FEF79CFE244A136863B9244866
:101B1000244E25494FF498457360036001233160DA
:101B200045604D60086013606CB104F1100212F062
:101B3000070F1CBF22F007020832541E44F6FE3C79
:101B4000644504D90024FEF735FF204670BD154DCD
:101B50002B6803E0196821B11D460B465868824284
:101B6000F8D80F498B42EDD02C681E68811A1034CA
:101B700020292E600DD99E1871605A607568094938
:101B800000E019460B6858688542FAD83360104661
:101B90000E60064B19680A1A1A60D4E768530010E1
:101BA0006C53001060530010600700100800001014
:101BB00070B50546B0B1A0F11006FEF741FE74689D
:101BC000094A00E01A46136859688C42FAD8074857
:101BD00045F8103C036816601C190460BDE87040AD
:101BE000FEF7E8BE70BD00BF605300100800001093
:101BF000014B1868704700BF08000010704700BF15
:101C000003480068006880F3088862B600DF00BF00
:101C100008ED00E030B44FF08075031F40F8045C1D
:101C2000A0F1080443F8041C0023403844F8043CA5
:101C300044F8182C30BC7047064B19680868B0E8A7
:101C4000F00F80F309884FF0000080F311884EF008
:101C50000D0E70479806001010B50B4B196841F433
:101C6000780018601C68094944F078421A600848F6
:101C7000084B002407220C60186043F8042CFFF77F
:101C8000BFFF204610BD00BF20ED00E00C0000109B
:101C9000BFD4010014E000E0704700BF024B4FF0DA
:101CA00080521A60704700BF04ED00E04FF028003A
:101CB00080F31188024B1868421C1A60704700BFFD
:101CC0000C000010044A1068431E13601BB94FF04B
:101CD000000080F3118870470C000010EFF30980BA
:101CE0000C4B1A6820E9F00F10602DE908404FF006
:101CF000280080F31188FEF7DFFF4FF0000080F32B
:101D00001188BDE8084019680868B0E8F00F80F352
:101D1000098870479806001008B5074B4FF08052AD
:101D20001A604FF0280080F31188FEF7B1FD4FF0E4
:101D3000000080F3118808BD04ED00E010B5394BB8
:101D4000D3F88800C0F30162032A12D0D3F80C2123
:101D500002F00302012A4AD0022A2DD0D3F804311E
:101D6000314A03F0FF00411C304BB2FBF1F0186028
:101D700010BDD3F80C1101F00302012A28D0022A69
:101D800040D0D3F88810D3F888204804440C601C55
:101D90002749D3F80441C2F307435A1C0023A0FB90
:101DA000010103F05DF804F0FF020023013203F0AB
:101DB00057F81E4B186010BDD3F804014FF4FA4CCD
:101DC00000F0FF02511C194BBCFBF1F0186010BD74
:101DD000D3F88810D3F888204804440C601CD3F84A
:101DE0000441C2F307435A1C12490023D7E7D3F832
:101DF0000421114B02F0FF01481C0C4AB3FBF0F127
:101E0000116010BDD3F88810D3F888204804440C22
:101E1000C2F30741601C4A1CD3F804414FF47A41D5
:101E20000023BCE700C00F4000093D001000001077
:101E300000127A0000366E01001BB70030B438493A
:101E40002023C1F8A031D1F8A001354A10F0400F8D
:101E5000F9D000250321C2F804110124C2F8A851C9
:101E6000AA20C2F8AC5155231325C2F80C411146E3
:101E7000C2F88450C2F88C00C2F88C30C2F880409E
:101E8000C2F88C00C2F88C30D1F88830244A13F0A4
:101E9000806FF9D00321AA245520C2F88010C2F81F
:101EA0008C401146C2F88C00D1F888301C4A13F0DF
:101EB000407FF9D02324C2F8A440AA20552301244E
:101EC000C2F8AC001146C2F8AC30C2F8A040C2F86B
:101ED000AC00C2F8AC30D1F8A830114A13F4806FCE
:101EE000F9D00321AA235520C2F8A010C2F8AC30C3
:101EF0001146C2F8AC00D1F8A800094A10F4407F9E
:101F0000F9D0084B4FF49870C2F8C430C2F8C80139
:101F1000116821F4704C4CF4A043136030BC70473E
:101F200000C00F40DE8728042DE9F04F83B00192F6
:101F300083468A46002A00F084800468551E2146A4
:101F4000204602F0A1FD0146002002F095FCDAF8DF
:101F500000108146204602F08DFC014602F094FDFF
:101F60000146002002F088FC019B012704249F42C7
:101F700005F00105804653D0E5B1DBF804400227A7
:101F80002146204602F080FD0146484602F074FCDE
:101F9000DAF804108146204602F06CFC014602F09B
:101FA00073FD0146404602F067FC019908248F4208
:101FB000804635D05BF80460251D3146304602F07E
:101FC00063FD0146484602F057FC5AF8041081466A
:101FD000304602F04FFC014602F056FD01464046F5
:101FE00002F04AFC5BF8058006464146404602F096
:101FF0004BFD0146484602F03FFC5AF80510814669
:10200000404602F037FC014602F03EFD01463046F4
:1020100002F032FC8046019802372C1D8742C9D15C
:102020004146484602F0E4FD02F0BAF801F0E0FB58
:102030000022064B02F008F902F0C8FB03B0BDE82D
:10204000F08F4FF00008C146EAE700BF00002440CF
:1020500030B421B3B0F90050012415414B1E8C421D
:1020600020F8025B03EA040319D03BB1B0F9003059
:10207000022413418C4220F8023B10D0B0F900300A
:10208000844653FA02F52CF8025B4388023418B2F6
:1020900050FA02F560468C4220F8025BEED130BC6B
:1020A000704700BF2DE9F04F83B091460746884640
:1020B000002A00F0B380D0F800A0561E5046002140
:1020C00006F0010602F09CFE002840F0AA8050466F
:1020D0004FF07E5100246A4D02F06AFE002800F0A5
:1020E000AA806848012504244D45C8F8000000F086
:1020F0009580002E53D03E590021304602F080FEDC
:10210000002840F0B880DFF878B14FF0000A304680
:102110004FF07E5102F04CFE002800F09C805948A0
:10212000013548F8040004344D4538D176E0304696
:102130004FF07E514FF0000ADFF84CB102F038FE4C
:1021400000283ED14FF09341304602F09DFC02F052
:1021500061FE02F013F852465B4601F0C3FE02F046
:102160000DFB261D57F806A0002148F80400504634
:10217000013502F045FE002830D0434B0022504686
:102180004FF07E51CDE9002302F012FE002830D03E
:102190003C480135341D4D4548F806003ED03E59B7
:1021A0000021304602F02CFE0028C0D130464FF00E
:1021B0007E514FF0000ADFF8C8B002F0F9FD0028A8
:1021C000C0D0261D2F4857F806A0002148F804006B
:1021D0005046013502F014FE0028CED1284B0022D3
:1021E00050464FF07E51CDE9002302F0E1FD00287A
:1021F000CED14FF09341504602F046FC02F00AFE69
:1022000001F0BCFFDDE9002301F06CFE02F0B6FA3C
:102210000135341D4D4548F80600C0D103B0BDE876
:10222000F08F50464FF07E510024174D02F0C0FD54
:1022300000287FF456AF4FF09341504602F024FC43
:1022400002F0E8FD01F09AFF22462B4601F04AFE1B
:1022500002F094FA46E74FF09341304602F014FC46
:1022600002F0D8FD01F08AFF52465B4601F03AFECB
:1022700002F084FA54E74FF0000ADFF80CB046E7AA
:102280000000E0BFFFFF0F000000E03F2DE9F0017C
:102290000346002A41D0B0F90050B1F90000541EA5
:1022A000281A0028B8BF4042012604EA0605002883
:1022B00038BF0020022496422CD075B1B3F90270C9
:1022C000B1F9025026467C1B002CB8BF6442A042E4
:1022D00038BF2046042496421CD0A51C33F9048044
:1022E0000F5F33F905C04C5FC7EB0807002FB8BF7D
:1022F0007F42C4EB0C0CB84238BF3846BCF1000F2B
:10230000B8BFCCF1000C0236604538BF6046AC1C4B
:102310009642E2D1BDE8F00170471046FAE700BFEF
:102320002DE9F0010346002A3DD005680868541ED7
:10233000281A0028B8BF4042012604EA06050028F2
:1023400038BF0020042496422AD065B15D684C68ED
:1023500002262C1B002CB8BF6442A04238BF204686
:10236000082496421CD0251D53F804800F5953F8B9
:1023700005C04C59C7EB0807002FB8BF7F42C4EB1C
:102380000C0CB84238BF3846BCF1000FB8BFCCF1D6
:10239000000C0236604538BF60462C1D9642E2D1E3
:1023A000BDE8F00170471046FAE700BF30B401B352
:1023B0000568012415414B1E8C4240F8045B03EA7A
:1023C000040316D033B10368022413418C4240F851
:1023D000043B0ED00568844655FA02F34CF8043BE2
:1023E0004068023450FA02F560468C4240F8045BC3
:1023F000F0D130BC704700BF10B419B390F9004061
:1024000003461441411803F8014BC04340188B4266
:1024100000F0010016D030B193F90000104103F82C
:10242000010B8B420ED093F900009C4650FA02F447
:102430000CF8014B5C78634660B2104103F8010B65
:102440008B42F0D110BC7047012808D007D9002278
:1024500001235B0001329842FBD8104670470022EE
:10246000104670472DE9F0410C461546F9B1074674
:10247000002657F8048BE5B101236A1E0220AB4207
:1024800002EA030208D01AB102230420AB4203D0AF
:1024900002338000AB42FBD102F09EFA0146404677
:1024A00002F0F2FA0136A64247F8040CE1D1BDE889
:1024B000F0814FF07E51F2E788B1421E012302EA1B
:1024C00003010222834208D019B10223042283426D
:1024D00003D0023392008342FBD1104670470122A1
:1024E000FBE700BF2DE9F84F17460C46002A00F025
:1024F000BA80054655F8046B02F1FF3830460021DA
:1025000008F0010802F07CFC002840F0AE80304664
:102510004FF080414FF0000ADFF8B8B102F048FCFC
:10252000002800F0AE8047F6FF700126BE4224F876
:10253000020B00F09880B8F1000F52D055F804ABB0
:102540000021504602F05CFC002840F0BC80DFF81F
:1025500084914FF0000850464FF0804102F028FC73
:10256000002800F09F8047F6FF700136BE4224F835
:10257000020B36D1ACE050464FF080414FF00008DE
:10258000DFF8549102F014FC00283DD14FF08D414A
:10259000504602F079FA02F03DFC00B201F0EEFD87
:1025A00042464B4601F09EFC02F0E8F855F8048BD9
:1025B000002124F8020B4046013602F021FC80B3D2
:1025C00040464FF080414FF0000ADFF80CB102F0B6
:1025D000EFFB88B3013647F6FF70BE4224F8020BCA
:1025E0003FD055F804AB0021504602F009FC00280A
:1025F000C1D150464FF080414FF00008DFF8D49031
:1026000002F0D6FB0028C1D055F8048B47F6FF70C6
:1026100024F8020B00214046013602F0F1FB0028AD
:10262000CED140464FF080414FF0000ADFF8A4B011
:1026300002F0BEFB0028CDD14FF08D41404602F0A4
:1026400023FA02F0E7FB00B201F098FD52465B4628
:1026500001F048FC02F092F80136BE4224F8020B69
:10266000BFD1BDE8F88FBDE8F88F30464FF080410C
:102670004FF0000ADFF860B002F09AFB00287FF408
:1026800052AF4FF08D41304602F0FEF902F0C2FB2E
:1026900000B201F073FD52465B4601F023FC02F0EC
:1026A0006DF842E74FF08D41504602F0EDF902F02F
:1026B000B1FB00B201F062FD42464B4601F012FC54
:1026C00002F05CF851E74FF00008DFF80C9042E7A9
:1026D000BDE8F88F0000E0BF0000E03F2DE9F04FBB
:1026E00083B0914607468846002A00F0B780D0F8AC
:1026F00000A0561E5046002106F0010602F080FBA5
:10270000002840F0AE8050464FF0804100246C4DD0
:1027100002F04EFB002800F0AE806FF00040012573
:1027200004244D45C8F8000000F09880002E55D0D4
:102730003E590021304602F063FB002840F0BB8088
:10274000DFF87CB14FF0000A30464FF0804102F0D4
:102750002FFB002800F09F806FF00040013548F803
:10276000040004344D4539D178E030464FF08041C3
:102770004FF0000ADFF84CB102F01AFB00283FD1FD
:102780004FF09D41304602F07FF902F043FB01F02B
:10279000F5FC52465B4601F0A5FB01F0EFFF261D5C
:1027A00057F806A0002148F804005046013502F011
:1027B00027FB002832D0434B002250464FF0804187
:1027C000CDE9002302F0F4FA002832D001356FF091
:1027D0000040341D4D4548F806003FD03E590021C9
:1027E000304602F00DFB0028BFD130464FF080414B
:1027F0004FF0000ADFF8C8B002F0DAFA0028BFD0C4
:10280000261D57F806A06FF0004048F8040000218C
:102810005046013502F0F4FA0028CCD1284B0022B2
:1028200050464FF08041CDE9002302F0C1FA002864
:10283000CCD14FF09D41504602F026F902F0EAFA61
:1028400001F09CFCDDE9002301F04CFB01F096FF58
:102850000135341D4D4548F80600BFD103B0BDE831
:10286000F08F50464FF080410024164D02F0A0FA40
:1028700000287FF452AF4FF09D41504602F004F91A
:1028800002F0C8FA01F07AFC22462B4601F02AFB3E
:1028900001F074FF43E74FF09D41304602F0F4F839
:1028A00002F0B8FA01F06AFC52465B4601F01AFBEE
:1028B00001F064FF52E74FF0000ADFF808B043E789
:1028C0000000E0BF0000E03F2DE9F04F83B09146EB
:1028D00007468846002A00F0B780D0F800A0561EB0
:1028E0005046002106F0010602F08AFA002840F066
:1028F000AE8050464FF0814100246C4D02F058FAF2
:10290000002800F0AE806FF00040012504244D4502
:10291000C8F8000000F09880002E55D03E590021E4
:10292000304602F06DFA002840F0BB80DFF87CB141
:102930004FF0000A30464FF0814102F039FA00288A
:1029400000F09F806FF00040013548F80400043427
:102950004D4539D178E030464FF081414FF0000AC3
:10296000DFF84CB102F024FA00283FD14FF09C412F
:10297000304602F089F802F04DFA01F0FFFB5246B2
:102980005B4601F0AFFA01F0F9FE261D57F806A0EC
:10299000002148F804005046013502F031FA0028C1
:1029A00032D0434B002250464FF08141CDE9002305
:1029B00002F0FEF9002832D001356FF00040341DDE
:1029C0004D4548F806003FD03E590021304602F000
:1029D00017FA0028BFD130464FF081414FF0000A6E
:1029E000DFF8C8B002F0E4F90028BFD0261D57F880
:1029F00006A06FF0004048F8040000215046013561
:102A000002F0FEF90028CCD1284B002250464FF0AE
:102A10008141CDE9002302F0CBF90028CCD14FF061
:102A20009C41504602F030F802F0F4F901F0A6FBA8
:102A3000DDE9002301F056FA01F0A0FE0135341D56
:102A40004D4548F80600BFD103B0BDE8F08F5046B1
:102A50004FF081410024164D02F0AAF900287FF4BE
:102A600052AF4FF09C41504602F00EF802F0D2F9FE
:102A700001F084FB22462B4601F034FA01F07EFE81
:102A800043E74FF09C41304601F0FEFF02F0C2F9EF
:102A900001F074FB52465B4601F024FA01F06EFE31
:102AA00052E74FF0000ADFF808B043E70000E0BF4C
:102AB0000000E03F2DE9F04F83B09146074688467D
:102AC000002A00F0B780D0F800A0561E5046002122
:102AD00006F0010602F094F9002840F0AE8050465E
:102AE0004FF0824100246C4D02F062F9002800F0A2
:102AF000AE806FF00040012504244D45C8F8000069
:102B000000F09880002E55D03E590021304602F04A
:102B100077F9002840F0BB80DFF87CB14FF0000A65
:102B200030464FF0824102F043F9002800F09F80C8
:102B30006FF00040013548F8040004344D4539D1A8
:102B400078E030464FF082414FF0000ADFF84CB198
:102B500002F02EF900283FD14FF09B41304601F0A2
:102B600093FF02F057F901F009FB52465B4601F072
:102B7000B9F901F003FE261D57F806A0002148F818
:102B800004005046013502F03BF9002832D0434B97
:102B9000002250464FF08241CDE9002302F008F9AF
:102BA000002832D001356FF00040341D4D4548F803
:102BB00006003FD03E590021304602F021F900289E
:102BC000BFD130464FF082414FF0000ADFF8C8B065
:102BD00002F0EEF80028BFD0261D57F806A06FF0CF
:102BE000004048F8040000215046013502F008F981
:102BF0000028CCD1284B002250464FF08241CDE92D
:102C0000002302F0D5F80028CCD14FF09B4150466C
:102C100001F03AFF02F0FEF801F0B0FADDE900231E
:102C200001F060F901F0AAFD0135341D4D4548F869
:102C30000600BFD103B0BDE8F08F50464FF082418F
:102C40000024164D02F0B4F800287FF452AF4FF084
:102C50009B41504601F018FF02F0DCF801F08EFABB
:102C600022462B4601F03EF901F088FD43E74FF084
:102C70009B41304601F008FF02F0CCF801F07EFAEB
:102C800052465B4601F02EF901F078FD52E74FF015
:102C9000000ADFF808B043E70000E0BF0000E03FB3
:102CA0002DE9F8430F46002966D0044654F8045B2A
:102CB0004FF07E584E1E28464146DFF8D09006F071
:102CC000010602F09DF8002858D12846494602F036
:102CD00079F808B144F8049C0125BD424CD01EB3DC
:102CE00054F8046B4FF07E51304602F089F800280A
:102CF00047D13046254902F065F808B144F8049CF4
:102D00000135BD4210D13FE044F8048C54F8046B07
:102D10004FF07E513046013502F072F8F8B144F8B8
:102D2000048C0135BD4225D054F8046B4FF07E5120
:102D3000304602F065F815490028E5D1304602F02A
:102D400041F80028E2D044F8049C54F8046B4FF09A
:102D50007E513046013502F053F80028DFD130466D
:102D60000A4902F02FF80028DBD00135BD4244F8B3
:102D7000049CD9D1BDE8F883BDE8F88344F8048CFD
:102D8000AAE744F8048CBBE7BDE8F883000080BFE5
:102D900010B5054B1868FEF72BFC00B910BD2020BC
:102DA000BDE8104000F084BAB45300102DE9F043A0
:102DB00083B0DFF8848040224FF000094146CDF80F
:102DC000049000F0DDFA00282CDD1A4D08EB000617
:102DD0006FEA080087194146286801AA4B4608F1A6
:102DE0000104FEF7CBFAB44207F001071AD04FB145
:102DF0002146286801AA4B4608F10204FEF7BEFAF4
:102E0000B4420FD021460023671C01AA2868FEF7B0
:102E1000B5FA023400232868394601AAFEF7AEFA53
:102E2000B442EFD1019B0BB1FEF738FF03B0BDE810
:102E3000F08300BFB853001074530010F0B583B096
:102E4000184D0746002428680194FEF7D1FB00289E
:102E500024D0154E09E0013431192868FEF780FBB3
:102E600001280AD10134402C0FD001AA3119286859
:102E7000FEF776FB012801AAEDD034B9019B0BB90E
:102E800003B0F0BDFEF70AFFFAE7384606492246CE
:102E900000F026FA019B002BF2D0F3E700F008FACD
:102EA000EEE700BFB45300107453001010B5437820
:102EB0000C46212B0ED0222B0AD0202B01D0002033
:102EC00010BD11680648072202F0BAFC07232360F0
:102ED000012010BD02481060072201200A6010BDC9
:102EE0001400001010B582B0084B02A9044601F886
:102EF000010D142218680023FEF78CF901280CBF7D
:102F000020464FF0FF3002B010BD00BFB453001098
:102F100038B50546007850B1002403E00134E4B22E
:102F2000285D20B1FFF7DEFFB0F1FF3FF6D138BDDD
:102F300000B583B0064B0DF1070118684FF0FF3262
:102F40000023FEF74FFA9DF8070003B000BD00BF55
:102F5000B853001000F088BAEFF3108062B67047E3
:102F6000704700BF10B501210022C820FEF720F9EC
:102F70001C4C002220600121C820FEF719F91A4AD2
:102F800023681060002B29D0002827D000F016FB02
:102F9000164800F039FB164A0120164900F0C2F825
:102FA0008120002100F03CF98220134900F038F91B
:102FB0001249052000F034F9114800F05FF9202093
:102FC00000F076F90F4B30224FF08071012083F82A
:102FD00018231960BDE8104000F064B90020FDF727
:102FE000B7FAD3E7B8530010B453001058AB010040
:102FF000BC530010AD2E01003D2E0100AD2D01008F
:10300000912D010000E100E070B5094C094D2668E2
:103010008020402EA8BF40263246296800F060F983
:10302000286822688319961B2B60266070BD00BF3C
:10303000EC530010F05300108020012100F044B93F
:1030400070B500282AD111F004012AD12F4D2A6829
:10305000002A56DD2E4C216800F092F900284CDB46
:10306000226829681318081A23602860C0B9294803
:10307000294990F800C0294BCCF3411E51F82E206D
:1030800053F82E302260002B37D02549224698472E
:10309000002832D0BDE87040FFF7B6BF8028F9D0D5
:1030A00070BD1C4D0822294600F06AF929781A4C97
:1030B000C1F34112EB88164854F82250134C0560B6
:1030C0001748236003600BB1C909E9D0134951F8CF
:1030D000223093B10F4E124D304629460C4A984784
:1030E00058B1B6F806C02A686245D4BF2260C4F859
:1030F00000C0BDE87040FFF787BFBDE87040FFF734
:103100009BBF0A46BDE8704000F03AB9EC5300108E
:10311000F0530010E4530010D4530010C4530010B7
:10312000F4530010034B43F82010034B43F82020C6
:10313000704700BFC4530010D4530010104B02045A
:1031400042F4A0623020C3F80802C3F81022D3F87A
:1031500000220B4802F01002002AF8D00B0443F4BE
:103160008071C0F808220246C0F81012D2F800029E
:1031700000F01003002BF9D0014AC2F80832704762
:1031800000C00050124B0004302140F4A062C3F88C
:1031900008121946C3F81022D1F800320C4A03F085
:1031A0001003002BF8D040F40070C2F8083211462A
:1031B000C2F81002D1F80032054A03F02003002BB8
:1031C000F8D0C2F80832D2F81422D0B2704700BF4B
:1031D00000C0005030B400F00F05C00940EA4500BF
:1031E000012414FA00F20D4BD3F844521C462A4332
:1031F000C3F84422C3F84802C3F84C12D4F80012B2
:1032000001F48073002BF9D0044A40F04000002103
:10321000C2F8083230BCFFF791BF00BF00C00050B9
:1032200030B400F00F0CC30943EA4C05012212FA36
:1032300005F0094B094DD3F8344245F82C1040EA0B
:103240000404C3F83442D3F8040240F00402C3F883
:10325000042230BC704700BF00C000500054001072
:10326000044B0549D3F80422086042F00802C3F871
:103270000422704700C00050FC530010044B054965
:10328000D3F80422086042F00102C3F80422704718
:1032900000C00050F853001040F08001D020FFF72C
:1032A0004DBF00BF011E18BF0121FE20FFF746BF22
:1032B0000146F320FFF742BF00F00F03C00940EAC8
:1032C0004300FFF75FBF00BFC20900F00F0342EAEF
:1032D0004300003940F0400018BF0121FFF72EBF26
:1032E000F0B400F00F04244BA50045F00205C3F82C
:1032F0002852C3F82422D3F82852C00915F0020F2F
:1033000040EA440012D08E78CC780F78350445EA34
:1033100004654E7845EA070C4CEA0625C3F81C52B2
:10332000D3F82852043115F0020FECD1124B0504EA
:1033300045F4A0603021C3F808121D46C3F81002FE
:10334000D5F800020C4900F01003002BF8D0C1F8AA
:1033500008323023C1F80832084B0846C1F8103251
:10336000D0F8001201F01003002BF9D00248C0F889
:1033700008321046F0BC704700C000500005FA004B
:10338000F0B400F00F04334BA50045F00105C3F87D
:103390002852D3F8205215F4006FFAD015F4806F3C
:1033A00055D0AB059D0D35B3002615F0010F334602
:1033B000284F18D013F0030F08BFD7F8186211B1C7
:1033C0009A4288BFCE540133AB4214D0360A13F070
:1033D000030F01D1D7F8186211B19A4288BFCE54B9
:1033E0000133360AE6E7D7F8186209B102B10E7068
:1033F0000123360ADEE7C30943EA44000204154B01
:10340000002142F4A0623020C3F82812C3F8080259
:103410001946C3F81022D1F800020E4A00F010033A
:10342000002BF8D0C2F808320B4B3020C2F808024B
:103430001146C2F81032D1F8002202F01003002B1E
:10344000F9D004492846C1F80832F0BC70474FF063
:10345000FF30FAE700C000500005F200011E18BF5F
:103460000121D820FFF76ABEF8B5294BD3F80042F6
:1034700014F0010F09D0274801220568C3F808227B
:103480001DB1F520FFF77EFEA84714F0080F2DD1DF
:1034900014F0040F29D01E4E04251F4FC6F8085201
:1034A00034460025012111FA05F3D4F83002034215
:1034B00018D0C4F83832D4F8003203F02002002AC1
:1034C000F9D0681057F82030C6F80822D6F8141240
:1034D00043B100F00F0E4EEAC51C0CF08F0001F056
:1034E0001F0198470135202DDCD1F8BD084B08217C
:1034F000FE20C3F80812FFF745FE10F01A0FC7D0E0
:10350000064A1368002BC3D000F015009847BFE7A8
:1035100000C00050F853001000540010FC5300107D
:1035200010B5224B22481C69224A24F4402119611B
:103530001C6944F480211961DC68114624F0405E66
:103540002EF03004DC60DC6844F0005C4CF01004C9
:10355000DC605C6824F070545C605C6844F0A054EB
:103560005C60D0F8C43043F00043C0F8C43012238C
:10357000C2F8F43FD1F8F80F0E4B00F01202122AF5
:10358000F8D100224FF0FF31C3F804221046C3F8EF
:103590000812C3F82C22C3F83422C3F83812C3F837
:1035A0004022FFF785FE012010BD00BF00C0024091
:1035B00000C00F4000C00050704700BF10B50E4C57
:1035C000FFF7AEFF0D48FFF74BFE00202146FFF747
:1035D00027FE80202146FFF723FE00204021FFF731
:1035E000F9FD80204021FFF7F5FD00200449054A40
:1035F000FFF798FD012010BD41300100B9350100F1
:103600006936010040540010014B1860704700BF3C
:103610004C540010F0B41349060A0968C0B20C7883
:1036200074B1002702E009190C784CB14D78B5420D
:10363000F9D1B84207D009190C780137002CF5D11F
:103640002046F0BC7047022E196003D00978012093
:103650001160F6E7CC7891F802C001204CEA04230F
:103660001360EEE74C540010F0B583B05A4B05469A
:103670001C680F4616460CB1A047A0B9287800F088
:103680001F03012B2BD0022B16D09BB995F801C03C
:103690003268BCF1090F0DD8DFE80CF05D0C0C0CA2
:1036A0000C584F0C6436012003B0F0BD0A2A75D0C7
:1036B0000B2A60D00020F7E76C783668012C65D0C3
:1036C00017D228790193FFF7F7FD0023C0F3400CD0
:1036D00086F800C07370019901203960E4E76A78C8
:1036E0003168002AE2D10A704A70022218463A6014
:1036F000DAE7032CDED16A88002ADBD128790121A0
:10370000FFF7E2FD0120CFE7AE78002E55D0334A17
:1037100014682378002B46D0FF27394608E0052A95
:103720002FD0022A00D16179E4182378002B3AD0F7
:103730006278042AF3D1E778F6E76888A9883A46E0
:10374000334603B0BDE8F040FFF764BFA878FFF749
:10375000A3FD0120A8E7002302211370537001206C
:103760003960A1E71E48012390F800C0184682F88E
:1037700000C03B6098E76A88002A9BD13A601846EF
:1037800092E78E42D0D1E7B13146CDE76988002972
:1037900090D12879FFF798FD204685E70020087032
:1037A00018463B6080E70120FFF758FEB5F802C0DD
:1037B0000B4B012083F800C076E73046FFF74EFE42
:1037C000F4E794F805E02179A07841EA0E21FFF7AB
:1037D00001FD31462378A7E7485400104C540010EF
:1037E00050540010014B1860704700BF485400103F
:1037F0002DE970438AB004460D4600F079F840F296
:103800001C06C1F2000696F90030B3F1FF3F804676
:10381000894637D02046294600F0FEF8002831D0EE
:10382000204629460022002300F08AFF002829D0E4
:1038300036784AF6D433C0F20103CDE9024501934C
:103840000023CDE904450893002E20D00023002258
:10385000CFF6F0732046CDE9062329460022002347
:1038600000F05AFF002822D0022300939E4234D059
:10387000684600F019F900282FD0089B002B27D1AB
:10388000DDE90689404649460AB0BDE870834FF637
:10389000FF734FF06042CCF2EF732046CDE9062370
:1038A00029460022002300F037FF0028DCD1012345
:1038B000022E009316D0684600F0F6F890B14AF652
:1038C0001C30C0F2010000F0F1F8CDE90601D4E7A8
:1038D00001F07EFF089B0360D2E701F079FF22230D
:1038E0000360CAE701F074FF21230360E7E700BF2C
:1038F000B1F5801F2DE9F84F04460D460F461EDA3C
:1039000021F00043034364D000296CDB0023002234
:10391000C4F2503300F098FC4FF6FF73C7F6EF7314
:103920000D4604462F466FF035019F420EDD2046BE
:10393000294622462B4600F0D5FABDE8F88F4FF60F
:10394000FF730021C7F6EF739F42F0DCA1F57E7193
:1039500027F07F49073929F4700901EB27574FEA0F
:10396000D77808EB0700C8F57E7800F007FC08F16F
:10397000070806460F46204649EA085100F09CF821
:103980001FA3D3E90023804689463046394600F01C
:103990005BFC1DA3D3E9002382468B4630463946A3
:1039A00000F052FC1AA3D3E9002304460D4640461A
:1039B000494600F049FC02460B462046294600F0E5
:1039C00091FA02460B465046594600F08BFABDE884
:1039D000F88F0021002000220023CCF2503100F0AB
:1039E0005DFDBDE8F88F02460B4600F079FA002233
:1039F000002300F053FDBDE8F88F00BFAFF3008057
:103A000000609F501344D33F362BF111F3FE593D14
:103A10000EE526157BCBDB3F50EA010310B43CD00A
:103A2000D0F1010238BF0022B1F1004F14BF0023D2
:103A300002F00103002B30D14FF6FF73A1F5801087
:103A4000C7F6DF7301F1FE44984204F570048CBFA1
:103A5000002001209C428CBF034640F00103002B54
:103A600020D1B1F5801F01F100402CBF00230123BC
:103A7000B0F5801F38BF43F001038BB911F5801FEB
:103A8000C7F6F07314BF00200120994214BF01460D
:103A900040F0010102EA010000E0022010BC704782
:103AA0000320FBE70420F9E70020704700210020F5
:103AB000C7F6F871704700BFB1F5801F02462DE9C7
:103AC000F04F0B4687B00F4662DA21F00045054300
:103AD00000F003810029C0F2BE8100230022C4F25D
:103AE00050336FF0350500F0AFFB0F460B464FF635
:103AF000FF710246C7F6EF718F4250DC27F07F441A
:103B000045F6647624F47004C0F20906A61910463E
:103B100006F48016002286F07E53A5F57E7583F4A8
:103B2000E003073D43EA04010023C3F6F07305EB0D
:103B3000275500F0D5F9A31C23F4700305EB1655A7
:103B4000022B8046894631DC0022002300F0E4FD90
:103B5000002800F0CB80002D00F08481284600F082
:103B60000DFB8FA3D3E9002304460D4600F06CFB48
:103B70008DA3D3E9002306460F462046294600F0D0
:103B800063FB02460B463046394600F0ABF90AE0CB
:103B90004FF6FF710025C7F6EF718F42AEDD10467C
:103BA000194600F09FF907B0BDE8F08F00224FF0F2
:103BB000804300F097F94EF68636CFF6F976A619CF
:103BC00002460B464046494600F068FCCDE902013A
:103BD000284600F0D3FACDE90401DDE902010246EE
:103BE0000B4600F031FB02460B46CDE9000100F028
:103BF0002BFB6FA3D3E9002382468B4600F024FB06
:103C00006DA3D3E9002300F06DF952465B4600F046
:103C10001BFB6BA3D3E9002300F064F952465B461B
:103C200000F012FB68A3D3E9002300F05BF9DDE9A3
:103C3000002300F009FB66A3D3E90023CDE90001CE
:103C40005046594600F000FB63A3D3E9002300F07F
:103C500049F952465B4600F0F7FA61A3D3E9002325
:103C600000F040F952465B4600F0EEFA0B46024681
:103C7000DDE9000100F036F94BF65103C0F206030E
:103C80001B1B43EA0606002E82468B4657DD0023A7
:103C90000022C3F6E0734046494600F0D5FA42469A
:103CA0004B4600F0D1FA06460F46002D40F0A080AA
:103CB00052465B4600F016F9DDE9022300F0C4FA33
:103CC00002460B463046394600F00AF902460B46DA
:103CD0004046494600F004F965E700210020002233
:103CE0000023CCF2503100F0D9FB5CE742464B4652
:103CF0004046494600F0A8FA3BA3D3E90023064614
:103D00000F464046494600F09FFA0B460021024606
:103D1000C3F6E071002000F0E3F802460B4630469F
:103D2000394600F091FA06460F46002D40F09D807E
:103D30004046494632463B4600F0D2F833E7002D74
:103D400000F0B78016A3D3E90023DDE9040100F0F9
:103D50007BFA52465B4606460F464046494600F00F
:103D6000BFF8DDE9022300F06FFA0FA3D3E90023C7
:103D700004460D46DDE9040100F066FA02460B46F2
:103D80002046294600F0ACF842464B4600F0A8F821
:103D900002460B463046394600F0A2F803E700BF62
:103DA0000000E0FE422EE63F763C7935EF39EA3DF1
:103DB00044523EDF12F1C23FDE03CB966446C73F5A
:103DC000599322942449D23F935555555555E53F73
:103DD0009FC678D0099AC33FAF788E1DC571CC3F7E
:103DE00004FA97999999D93F555555555555D53F49
:103DF00035A3D3E90023DDE9040100F025FA52469A
:103E00005B46CDE900013046394600F06BF8DDE94C
:103E1000022300F019FA2EA3D3E9002304460D462D
:103E2000DDE9040100F010FA02460B46204629465F
:103E300000F058F802460B463046394600F050F87C
:103E400042464B4600F04CF802460B46DDE90001C5
:103E500000F046F8A7E600F043F80022002300F047
:103E60001DFBA0E6002000219DE6284600F086F913
:103E700015A3D3E9002304460D4600F0E5F914A389
:103E8000D3E9002382468B462046294600F0DCF920
:103E900002460B463046394600F022F842464B4671
:103EA00000F01EF802460B465046594600F018F83E
:103EB00079E652465B464046494600F011F8DDE996
:103EC000022300F0C1F901E70000E0FE422EE63FC8
:103ED000763C7935EF39EA3D81F0004102E000BFE0
:103EE00083F0004330B54FEA41044FEA430594EABA
:103EF000050F08BF90EA020F1FBF54EA000C55EAF5
:103F0000020C7FEA645C7FEA655C00F0E2804FEAC5
:103F10005454D4EB5555B8BF6D420CDD2C4480EAA7
:103F2000020281EA030382EA000083EA010180EAD7
:103F3000020281EA0303362D88BF30BD11F0004F25
:103F40004FEA01314FF4801C4CEA113102D040425B
:103F500061EB410113F0004F4FEA03334CEA133396
:103F600002D0524263EB430394EA050F00F0A780AE
:103F7000A4F10104D5F1200E0DDB02FA0EFC22FAA9
:103F800005F2801841F1000103FA0EF2801843FA9D
:103F900005F359410EE0A5F120050EF1200E012A8E
:103FA00003FA0EFC28BF4CF0020C43FA05F3C018CC
:103FB00051EBE37101F0004507D54FF0000EDCF145
:103FC000000C7EEB00006EEB0101B1F5801F1BD3EE
:103FD000B1F5001F0CD349085FEA30004FEA3C0CF2
:103FE00004F101044FEA445212F5800F80F09A80E8
:103FF000BCF1004F08BF5FEA500C50F1000041EBEC
:10400000045141EA050130BD5FEA4C0C404141EBEF
:10401000010111F4801FA4F10104E9D191F0000F16
:1040200004BF01460020B1FA81F308BF2033A3F199
:104030000B03B3F120020CDA0C3208DD02F1140C90
:10404000C2F10C0201FA0CF021FA02F10CE002F1CB
:104050001402D8BFC2F1200C01FA02F120FA0CFCC4
:10406000DCBF41EA0C019040E41AA2BF01EB04510D
:10407000294330BD6FEA04041F3C1CDA0C340EDC0B
:1040800004F11404C4F1200220FA04F001FA02F34E
:1040900040EA030021FA04F345EA030130BDC4F10C
:1040A0000C04C4F1200220FA02F001FA04F340EA01
:1040B0000300294630BD21FA04F0294630BD94F0B2
:1040C000000F83F4801306BF81F480110134013D99
:1040D0004EE77FEA645C18BF7FEA655C29D094EA0A
:1040E000050F08BF90EA020F05D054EA000C04BF88
:1040F0001946104630BD91EA030F1EBF0021002073
:1041000030BD5FEA545C05D14000494128BF41F011
:10411000004130BD14F580043CBF01F5801130BD75
:1041200001F0004545F0FE4141F470014FF0000000
:1041300030BD7FEA645C1ABF194610467FEA655CB1
:104140001CBF0B46024650EA013406BF52EA033553
:1041500091EA030F41F4002130BD00BF90F0000F41
:1041600004BF0021704730B54FF4806404F132047D
:104170004FF000054FF0000150E700BF90F0000F36
:1041800004BF0021704730B54FF4806404F132045D
:1041900010F0004548BF40424FF000013EE700BF2D
:1041A00042004FEAE2014FEA31014FEA02701FBFBD
:1041B00012F07F4393F07F4F81F06051704792F08F
:1041C000000F14BF93F07F4F704730B54FF4607409
:1041D00001F0004521F0004120E700BF50EA010254
:1041E00008BF704730B54FF000050AE050EA010201
:1041F00008BF704730B511F0004502D5404261EB71
:1042000041014FF4806404F132045FEA915C3FF4B1
:10421000DCAE4FF003025FEADC0C18BF03325FEA4A
:10422000DC0C18BF033202EBDC02C2F1200300FAFF
:1042300003FC20FA02F001FA03FE40EA0E0021FA24
:1042400002F11444C1E600BF70B54FF0FF0C4CF40E
:10425000E06C1CEA11541DBF1CEA135594EA0C0FC4
:1042600095EA0C0F00F0DEF82C4481EA030621EAFF
:104270004C5123EA4C5350EA013518BF52EA03353A
:1042800041F4801143F4801338D0A0FB02CE4FF0EC
:104290000005E1FB02E506F00042E0FB03E54FF01C
:1042A0000006E1FB03569CF0000F18BF4EF0010E14
:1042B000A4F1FF04B6F5007F64F5407404D25FEA10
:1042C0004E0E6D4146EB060642EAC62141EA5551C3
:1042D0004FEAC52040EA5E504FEACE2EB4F1FD0C05
:1042E00088BFBCF5E06F1ED8BEF1004F08BF5FEA83
:1042F000500E50F1000041EB045170BD06F0004635
:1043000046EA010140EA020081EA0301B4EB5C04E1
:10431000C2BFD4EB0C0541EA045170BD41F48011D9
:104320004FF0000E013C00F3AB8014F1360FDEBFFE
:10433000002001F0004170BDC4F10004203C35DADA
:104340000C341BDC04F11404C4F1200500FA05F35D
:1043500020FA04F001FA05F240EA020001F00042FE
:1043600021F0004110EBD37021FA04F642EB060174
:104370005EEA430E08BF20EAD37070BDC4F10C049E
:10438000C4F1200500FA04F320FA05F001FA04F262
:1043900040EA020001F0004110EBD37041F100014E
:1043A0005EEA430E08BF20EAD37070BDC4F1200559
:1043B00000FA05F24EEA020E20FA04F301FA05F2C1
:1043C00043EA020321FA04F001F0004121FA04F269
:1043D00020EA020000EBD3705EEA430E08BF20EA39
:1043E000D37070BD94F0000F0FD101F00046400073
:1043F00041EB010111F4801F08BF013CF7D041EAF5
:10440000060195F0000F18BF704703F000465200F8
:1044100043EB030313F4801F08BF013DF7D043EAC9
:104420000603704794EA0C0F0CEA135518BF95EA7F
:104430000C0F0CD050EA410618BF52EA4306D1D106
:1044400081EA030101F000414FF0000070BD50EA25
:10445000410606BF1046194652EA430619D094EAAF
:104460000C0F02D150EA013613D195EA0C0F05D199
:1044700052EA03361CBF104619460AD181EA0301ED
:1044800001F0004141F0FE4141F470014FF00000A5
:1044900070BD41F0FE4141F4780170BD70B54FF040
:1044A000FF0C4CF4E06C1CEA11541DBF1CEA1355C0
:1044B00094EA0C0F95EA0C0F00F0A7F8A4EB0504A2
:1044C00081EA030E52EA03354FEA013100F0888099
:1044D0004FEA03334FF0805545EA131343EA126362
:1044E0004FEA022245EA111545EA10654FEA002617
:1044F0000EF000419D4208BF964244F1FD0404F5D0
:10450000407402D25B084FEA3202B61A65EB03052B
:104510005B084FEA32024FF480104FF4002CB6EBE8
:10452000020E75EB030E22BFB61A754640EA0C0068
:104530005B084FEA3202B6EB020E75EB030E22BFA8
:10454000B61A754640EA5C005B084FEA3202B6EBE9
:10455000020E75EB030E22BFB61A754640EA9C00A8
:104560005B084FEA3202B6EB020E75EB030E22BF78
:10457000B61A754640EADC0055EA060E18D04FEA36
:10458000051545EA16754FEA06164FEAC30343EAD6
:1045900052734FEAC2025FEA1C1CC0D111F4801FA3
:1045A0000BD141EA00014FF000004FF0004CB6E79C
:1045B00011F4801F04BF01430020B4F1FD0C88BF3B
:1045C000BCF5E06F3FF6AFAEB5EB030C04BFB6EB46
:1045D000020C5FEA500C50F1000041EB045170BD39
:1045E0000EF0004E4EEA113114EB5C04C2BFD4EB66
:1045F0000C0541EA045170BD41F480114FF0000EEA
:10460000013C90E645EA060E8DE60CEA135594EA65
:104610000C0F08BF95EA0C0F3FF43BAF94EA0C0F68
:104620000AD150EA01347FF434AF95EA0C0F7FF4DD
:1046300025AF104619462CE795EA0C0F06D152EA31
:1046400003353FF4FDAE1046194622E750EA410615
:1046500018BF52EA43067FF4C5AE50EA41047FF426
:104660000DAF52EA43057FF4EBAE12E74FF0FF3C8B
:1046700006E000BF4FF0010C02E000BF4FF0010C5C
:104680004DF804CD4FEA410C7FEA6C5C4FEA430CD5
:1046900018BF7FEA6C5C1BD001B050EA410C0CBF24
:1046A00052EA430C91EA030F02BF90EA020F002086
:1046B000704710F1000F91EA030F58BF994208BFED
:1046C00090422CBFD8176FEAE37040F001007047AA
:1046D0004FEA410C7FEA6C5C02D150EA013C07D101
:1046E0004FEA430C7FEA6C5CD6D152EA033CD3D04C
:1046F0005DF8040B704700BF8446104662468C4646
:104700001946634600E000BF01B5FFF7B7FF002878
:1047100048BF10F1000F01BD4DF808EDFFF7F4FFA1
:104720000CBF012000205DF808FB00BF4DF808ED2C
:10473000FFF7EAFF34BF012000205DF808FB00BF4F
:104740004DF808EDFFF7E0FF94BF012000205DF871
:1047500008FB00BF4DF808EDFFF7CEFF94BF012026
:1047600000205DF808FB00BF4DF808EDFFF7C4FF1F
:1047700034BF012000205DF808FB00BF4FEA410272
:1047800012F5001215D211D56FF47873B3EB6252A3
:1047900012D94FEAC12343F0004343EA505311F0CA
:1047A000004F23FA02F018BF404270474FF000005C
:1047B000704750EA013005D111F0004008BF6FF09A
:1047C000004070474FF00000704700BF4FEA4102C1
:1047D000B2F1E04324BFB3F5001CDCF1FE5C0DD95F
:1047E00001F0004C4FEAC0024CEA5070B2F1004FA9
:1047F00040EB830008BF20F00100704711F0804FAC
:1048000021D113F13872BCBF01F00040704741F470
:1048100080114FEA5252C2F11802C2F1200C10FA74
:104820000CF320FA02F018BF40F001004FEAC12358
:104830004FEAD32303FA0CFC40EA0C0023FA02F3FC
:104840004FEA4303CCE77FEA625307D150EA0133D2
:104850001EBF4FF0FE4040F44000704701F00040A2
:1048600040F0FE4040F40000704700BF80F0004080
:1048700002E000BF81F0004142001FBF5FEA410338
:1048800092EA030F7FEA226C7FEA236C6AD04FEA38
:104890001262D2EB1363C1BFD2184140484041407D
:1048A000B8BF5B42192B88BF704710F0004F40F42F
:1048B000000020F07F4018BF404211F0004F41F44B
:1048C000000121F07F4118BF494292EA030F3FD017
:1048D000A2F1010241FA03FC10EB0C00C3F120032A
:1048E00001FA03F100F0004302D5494260EB4000B9
:1048F000B0F5000F13D3B0F1807F06D340084FEA24
:10490000310102F10102FE2A51D2B1F1004F40EB18
:10491000C25008BF20F0010040EA03007047490080
:1049200040EB000010F4000FA2F10102EDD1B0FA4B
:1049300080FCACF1080CB2EB0C0200FA0CF0AABF40
:1049400000EBC25052421843BCBFD04018437047DE
:1049500092F0000F81F4000106BF80F400000132E4
:10496000013BB5E74FEA41037FEA226C18BF7FEABB
:10497000236C21D092EA030F04D092F0000F08BFFD
:104980000846704790EA010F1CBF0020704712F0E4
:104990007F4F04D1400028BF40F00040704712F123
:1049A00000723CBF00F50000704700F0004343F088
:1049B000FE4040F4000070477FEA226216BF0846BE
:1049C0007FEA23630146420206BF5FEA412390EA81
:1049D000010F40F4800070474FF0000304E000BF77
:1049E00010F0004348BF40425FEA000C08BF704728
:1049F00043F0964301464FF000001CE050EA0102EC
:104A000008BF70474FF000030AE000BF50EA010200
:104A100008BF704711F0004302D5404261EB4101ED
:104A20005FEA010C02BF84460146002043F0B64312
:104A300008BFA3F18053A3F50003BCFA8CF2083A37
:104A4000A3EBC25310DB01FA02FC634400FA02FC40
:104A5000C2F12002BCF1004F20FA02F243EB020047
:104A600008BF20F00100704702F1200201FA02FCA9
:104A7000C2F1200250EA4C0021FA02F243EB02009C
:104A800008BF20EADC7070474FF0FF0C1CEAD052E0
:104A90001EBF1CEAD15392EA0C0F93EA0C0F6FD0A1
:104AA0001A4480EA010C400218BF5FEA41211ED07F
:104AB0004FF0006343EA501043EA5111A0FB01316B
:104AC0000CF00040B1F5000F3EBF490041EAD37140
:104AD0005B0040EA010062F17F02FD2A1DD8B3F1BC
:104AE000004F40EBC25008BF20F00100704790F02B
:104AF000000F0CF0004C08BF49024CEA502040EA7D
:104B000051207F3AC2BFD2F1FF0340EAC250704742
:104B100040F400004FF00003013A5DDC12F1190F80
:104B2000DCBF00F000407047C2F10002410021FAF2
:104B300002F1C2F1200200FA02FC5FEA310040F10A
:104B4000000053EA4C0308BF20EADC70704792F083
:104B5000000F00F0004C02BF400010F4000F013ABB
:104B6000F9D040EA0C0093F0000F01F0004C02BFB6
:104B7000490011F4000F013BF9D041EA0C018FE725
:104B80000CEAD15392EA0C0F18BF93EA0C0F0AD02B
:104B900030F0004C18BF31F0004CD8D180EA010051
:104BA00000F00040704790F0000F17BF90F0004FEA
:104BB000084691F0000F91F0004F14D092EA0C0FCC
:104BC00001D142020FD193EA0C0F03D14B0218BF5F
:104BD000084608D180EA010000F0004040F0FE40A5
:104BE00040F40000704740F0FE4040F44000704741
:104BF0004FF0FF0C1CEAD0521EBF1CEAD15392EAC0
:104C00000C0F93EA0C0F69D0A2EB030280EA010CAF
:104C100049024FEA402037D04FF0805343EA111148
:104C200043EA10130CF000408B4238BF5B0042F1A6
:104C30007D024FF4000C8B4224BF5B1A40EA0C004B
:104C4000B3EB510F24BFA3EB510340EA5C00B3EB7D
:104C5000910F24BFA3EB910340EA9C00B3EBD10F6B
:104C600024BFA3EBD10340EADC001B0118BF5FEABD
:104C70001C1CE0D1FD2A3FF650AF8B4240EBC250E6
:104C800008BF20F0010070470CF0004C4CEA5020A7
:104C90007F32C2BFD2F1FF0340EAC250704740F4F6
:104CA00000004FF00003013A37E792F0000F00F0E8
:104CB000004C02BF400010F4000F013AF9D040EA66
:104CC0000C0093F0000F01F0004C02BF490011F4FA
:104CD000000F013BF9D041EA0C0195E70CEAD153F2
:104CE00092EA0C0F08D142027FF47DAF93EA0C0FD9
:104CF0007FF470AF084676E793EA0C0F04D14B02BD
:104D00003FF44CAF08466EE730F0004C18BF31F06E
:104D1000004CCAD130F000427FF45CAF31F0004368
:104D20007FF43CAF5FE700BF4FF0FF3C06E000BF01
:104D30004FF0010C02E000BF4FF0010C4DF804CD24
:104D40004FEA40024FEA41037FEA226C18BF7FEA34
:104D5000236C11D001B052EA530C18BF90EA010F36
:104D600058BFB2EB030088BFC81738BF6FEAE170C5
:104D700018BF40F0010070477FEA226C02D15FEA61
:104D8000402C05D17FEA236CE4D15FEA412CE1D0CD
:104D90005DF8040B704700BF844608466146FFE794
:104DA0000FB5FFF7C9FF002848BF10F1000F0FBD76
:104DB0004DF808EDFFF7F4FF0CBF012000205DF86F
:104DC00008FB00BF4DF808EDFFF7EAFF34BF0120F4
:104DD00000205DF808FB00BF4DF808EDFFF7E0FF8D
:104DE00094BF012000205DF808FB00BF4DF808EDDE
:104DF000FFF7D2FF94BF012000205DF808FB00BF41
:104E00004DF808EDFFF7C8FF34BF012000205DF822
:104E100008FB00BF4FEA4002B2F1FE4F0FD34FF044
:104E20009E03B3EB12620DD94FEA002343F0004317
:104E300010F0004F23FA02F018BF404270474FF0C5
:104E40000000704712F1610F01D1420205D110F04C
:104E5000004008BF6FF0004070474FF000007047FF
:104E60004BB942B9002908BF002802D04FF0FF31EA
:104E7000084600F03BB882B0EC462DE9005000F047
:104E80001DF8DDF804E002B00CBC70472DE970435A
:104E90001646804689461D4600F02AF800FB05F3B9
:104EA000A0FB064506FB0136069B7519B8EB04040A
:104EB00069EB0505C3E90045BDE870832DE9704342
:104EC0001646804689461D4600F0C2F900FB05F3F0
:104ED000A0FB064506FB0136069B7519B8EB0404DA
:104EE00069EB0505C3E90045BDE87083704700BF65
:104EF00000292DE9F04F1C4685B0C0F2CB8000267A
:104F0000002CC0F2C2808C461746144605468846DF
:104F10009A46002B4AD18A426ED9B2FA82F35BB12B
:104F2000C3F1200401FA03F830FA04F210FA03F591
:104F300017FA03F442EA08084FEA144A4046514679
:104F40001FFA84FB00F008FB51468146404600F002
:104F500031FC280C0BFB09F340EA0148434509D911
:104F600018EB040809F1FF3904D2434584BF09F165
:104F7000FF39A044C3EB080851464046ADB200F0EB
:104F8000EBFA51460746404600F014FC0BFB07FBCA
:104F900045EA0145AB4505D9013F2D1902D2AB4584
:104FA00088BF013F47EA0949002403E08B420CD93E
:104FB0000024A1464A46234616B1524263EB4303FE
:104FC0001046194605B0BDE8F08FB3FA83F4002C03
:104FD00040F0B3808B424FF001092CBF4FF0000C22
:104FE0004FF0010C82428CBF67464CF00107002F46
:104FF000E0D13C46B946DDE722B90120114600F078
:10500000ABFA0446B4FA84F3002B49D1C4EB080888
:10501000270C1FFA84FA012102913946404600F01C
:105020009BFA39468146404600F0C4FB2A0C0AFB35
:1050300009F342EA014B5B4509D91BEB040B09F16B
:10504000FF3904D25B4584BF09F1FF39A344C3EBA8
:105050000B0B39465846ADB200F07EFA3946804611
:10506000584600F0A7FB0AFB08FA45EA0145AA45A5
:1050700007D92D1908F1FF3803D2AA4588BF08F1D6
:10508000FF3848EA0949029C94E7F643524263EB31
:10509000430338E7404261EB41014FF0FF362FE711
:1050A0009C40C3F1200728FA07FA35FA07F2270CCB
:1050B00008FA03FB3946504642EA0B029D40029231
:1050C00000F04AFA39468346504600F073FB029BD3
:1050D0001FFA84FA4FEA13490AFB0BF349EA014825
:1050E000434505D918EB04080BF1FF3BC0F0AA803B
:1050F000C3EB08083946404600F02EFA394681468F
:10510000404600F057FB02980AFB09F31FFA80FCA7
:105110004CEA0148434509D918EB040809F1FF3965
:1051200004D2434584BF09F1FF39A04449EA0B4E3C
:10513000C3EB0808CDF808E06FE7C4F120030AFAD2
:1051400004FADA4021FA03F842EA0A0A01FA04F9F9
:1051500030FA03F240464FEA1A4B42EA0901039142
:10516000594617FA04F3029300F0F6F959468146BE
:10517000404600F01FFB1FFA8AF3039803FB09F275
:10518000070C47EA0148424504D918EB0A0809F11F
:10519000FF3951D3C2EB080859464046019300F04D
:1051A000DBF959460746404600F004FB019B039893
:1051B00003FB07F31FFA80FC4CEA014C634507D957
:1051C000013F1CEB0A0C03D2634501D9013FD444D3
:1051D00047EA0949029FC3EB0C0C1FFA89FE4FEA0C
:1051E0001943B8B23F0C00FB0EF800FB03F107FBBC
:1051F0000E1207FB03F002EB1842914288BF00F544
:10520000803000EB124EF44512D34FEA02421FFAEF
:1052100088F814BF0021012102EB080C15FA04F4F0
:1052200064452CBF002401F00104002C3FF4C2AE01
:1052300009F1FF390024BDE6424584BF09F1FF3979
:10524000D044A7E7434584BF0BF1FF3BA0444FE7A1
:105250002DE9F04F054683B00C46174680460E46B2
:10526000002B4DD18A4261D9B2FA82F353B1C3F116
:10527000200411FA03F630FA04F29F4042EA0606CF
:1052800000FA03F83C0C304621461FFA87FA00F07A
:1052900063F921468146304600F08CFA4FEA184007
:1052A0000AFB09F340EA0146B34208D9F61909F1AD
:1052B000FF3904D2B34284BF09F1FF39F619F61A57
:1052C000214630461FFA88F800F046F92146054687
:1052D000304600F06FFA0AFB05FA48EA0148C24579
:1052E00006D9013D18EB070802D2C24588BF013D2F
:1052F00045EA094A00263146504603B0BDE8F08F22
:105300008B425BD8B3FA83F6002E5AD18B424FF012
:10531000010A2CBF0024012482428CBF254644F0A0
:105320000105002DE7D12E46AA46E4E722B9012067
:10533000114600F011F90746B7FA87F3002B40F049
:10534000B680E41B4FEA174BBDB2012659462046F2
:1053500000F002F959464FEA18498246204600F00B
:1053600029FA05FB0AF349EA0144A34208D9E419E2
:105370000AF1FF3A04D2A34284BF0AF1FF3AE419CA
:10538000E41A5946204600F0E7F85946814620467F
:1053900000F010FA1FFA88F305FB09F543EA01480B
:1053A000454508D918EB070809F1FF3903D24545EF
:1053B00088BF09F1FF3949EA0A4A9CE70026B2464C
:1053C00099E7C6F12001B34032FA01F724FA01F956
:1053D0001F43B44030FA01F348464FEA174843EA06
:1053E000040101914146B240009200F0B5F84146F7
:1053F000BCB28246484600F0DDF9019804FB0AF38E
:105400004FEA104B4BEA014B5B4505D91BEB070BF1
:105410000AF1FF3AC0F09380C3EB0B0B41465846AC
:1054200000F09AF841468146584600F0C3F90198C9
:1054300004FB09F41FFA80FC4CEA01439C4203D9A7
:10544000DB1909F1FF3974D3009F49EA0A4A1C1B92
:105450001FFA8AFEB8B23A0C4FEA1A4700FB0EFC5C
:1054600000FB07F302FB0E3102FB07F201EB1C41CC
:105470008B4288BF02F5803202EB114E744512D385
:105480004FEA01411FFA8CF214BF0023012301EB04
:10549000020C15FA06F666452CBF002603F001063D
:1054A000002E3FF428AF0AF1FF3A002623E79F4081
:1054B000C3F1200134FA01F614FA03F24FEA174B54
:1054C00025FA01FA3046594605FA03F84AEA020A73
:1054D00000F042F85946BDB28146304600F06AF904
:1054E0004FEA1A4C05FB09F34CEA0144A34203D9E5
:1054F000E41909F1FF3928D3E41A5946204600F08F
:105500002BF859460646204600F054F91FFA8AF453
:1055100005FB06F344EA0144A34206D9013EE4191F
:1055200003D2A34201D9013EE419E41A46EA09462E
:105530000CE79C4284BF09F1FF39DB1984E75B4526
:1055400084BF0AF1FF3ABB4466E7A34284BF09F176
:10555000FF39E419D0E700BF4A1E08BF7047C0F00A
:105560002481884240F21681114200F01781B0FA7E
:1055700080F3B1FA81F2A2EB0303C3F11F0304A28B
:1055800002EB03134FF000029F4600BFAFF3008011
:10559000B0EBC17F00BF42EB020228BFA0EBC1709D
:1055A000B0EB817F00BF42EB020228BFA0EB81700D
:1055B000B0EB417F00BF42EB020228BFA0EB41707D
:1055C000B0EB017F00BF42EB020228BFA0EB0170ED
:1055D000B0EBC16F00BF42EB020228BFA0EBC1607D
:1055E000B0EB816F00BF42EB020228BFA0EB8160ED
:1055F000B0EB416F00BF42EB020228BFA0EB41605D
:10560000B0EB016F00BF42EB020228BFA0EB0160CC
:10561000B0EBC15F00BF42EB020228BFA0EBC1505C
:10562000B0EB815F00BF42EB020228BFA0EB8150CC
:10563000B0EB415F00BF42EB020228BFA0EB41503C
:10564000B0EB015F00BF42EB020228BFA0EB0150AC
:10565000B0EBC14F00BF42EB020228BFA0EBC1403C
:10566000B0EB814F00BF42EB020228BFA0EB8140AC
:10567000B0EB414F00BF42EB020228BFA0EB41401C
:10568000B0EB014F00BF42EB020228BFA0EB01408C
:10569000B0EBC13F00BF42EB020228BFA0EBC1301C
:1056A000B0EB813F00BF42EB020228BFA0EB81308C
:1056B000B0EB413F00BF42EB020228BFA0EB4130FC
:1056C000B0EB013F00BF42EB020228BFA0EB01306C
:1056D000B0EBC12F00BF42EB020228BFA0EBC120FC
:1056E000B0EB812F00BF42EB020228BFA0EB81206C
:1056F000B0EB412F00BF42EB020228BFA0EB4120DC
:10570000B0EB012F00BF42EB020228BFA0EB01204B
:10571000B0EBC11F00BF42EB020228BFA0EBC110DB
:10572000B0EB811F00BF42EB020228BFA0EB81104B
:10573000B0EB411F00BF42EB020228BFA0EB4110BB
:10574000B0EB011F00BF42EB020228BFA0EB01102B
:10575000B0EBC10F00BF42EB020228BFA0EBC100BB
:10576000B0EB810F00BF42EB020228BFA0EB81002B
:10577000B0EB410F00BF42EB020228BFA0EB41009B
:10578000B0EB010F00BF42EB020228BFA0EB01000B
:10579000104670470CBF012000207047B1FA81F21B
:1057A000C2F11F0220FA02F0704708B14FF0FF303B
:1057B000FFF79CBB0029F8D02DE90340FFF7CCFE92
:1057C000BDE8064002FB00F3A1EB0301704700BFF8
:1057D00040F22003C1F2000318687047032A70B436
:1057E00004460D4626D941EA000313F0030F13D0F7
:1057F00020782B78984208BF294606D01EE014F87E
:10580000010F11F8013F984218D1012A02F1FF322D
:10581000F5D1002070BC70470B46044651F8045B7C
:1058200050F8046BAE4204D1043A0446032A0B46F6
:10583000F2D81D461046002ADAD1EBE7C01AE9E794
:10584000032A2DE9F00109D82AB10023CC5CC45405
:1058500001339342FAD1BDE8F00170470B4682183C
:10586000014603E02478013301F8014B11F0030FE6
:105870001C46F7D113F003055DD06E42C5F1040C50
:10588000ED009B594FEACC0C08E00434A7593B4685
:1058900007FA0CF748EA070741F8047B571A23FA7E
:1058A00005F8032FF1DC03E014F8013B01F8013B9C
:1058B0008A42F9D8CFE753F8404C41F8404C53F8AE
:1058C0003C4C41F83C4C53F8384C41F8384C53F8B8
:1058D000344C41F8344C53F8304C41F8304C53F8C8
:1058E0002C4C41F82C4C53F8284C41F8284C53F8D8
:1058F000244C41F8244C53F8204C41F8204C53F8E8
:105900001C4C41F81C4C53F8184C41F8184C53F8F7
:10591000144C41F8144C53F8104C41F8104C53F807
:105920000C4C41F80C4C53F8084C41F8084C53F817
:10593000044C41F8044C561A1D460C464033403185
:105940003F2EB8DC2B460FE053F8101C44F8101C17
:1059500053F80C1C44F80C1C53F8081C44F8081CA1
:1059600053F8041C44F8041C161B21461D46103431
:1059700010330F2EE8DC2B4602E0246841F8044B7C
:10598000551A1C46032D03F10403F6DC90E700BF13
:10599000032AC9B270B408D82AB10346121803F812
:1059A000011B9342FBD170BC70478218044601E092
:1059B00004F8011B14F0030FFAD14FF0013303FB7D
:1059C00001F31FE044F8403C44F83C3C44F8383CC8
:1059D00044F8343C44F8303C44F82C3C44F8283C2F
:1059E00044F8243C44F8203C44F81C3C44F8183C5F
:1059F00044F8143C44F8103C44F80C3C44F8083C8F
:105A000044F8043C161B254640343F2EDADC2C4675
:105A100007E044F8103C44F80C3C44F8083C44F8D7
:105A2000043C161B254610340F2EF2DC01E045F82D
:105A3000043B541B032CFADC01E005F8011B9542E2
:105A4000FBD3B0E70CB44FF4027370B59CB020AC3C
:105A50000E46ADF8103001A954F8042B4FF0FF3377
:105A6000ADF812306FF00045234601960596039578
:105A700006951B9400F0EEF8019B00221A701CB0F2
:105A8000BDE8704002B070470EB440F22003F0B59C
:105A90009CB021ACC1F20003064601A954F8042BC6
:105AA0006FF0004518684FF402772346019605967B
:105AB0004FF0FF36ADF81070ADF812600395069503
:105AC0001B9400F0C7F8019B00221A701CB0BDE8BF
:105AD000F04003B0704700BF10F0030F38B5044624
