:020000021000EC
:10000000E07F0010D1010100B9010100BD01010034
:10001000C1010100C5010100C9010100000000008B
:100020000000000000000000000000000D1C0100A6
:10003000CD01010000000000B11C0100ED1C010019
:100040005102010051020100510201005102010060
:100050005102010051020100510201005102010050
:100060005102010051020100510201005102010040
:100070005102010051020100510201005102010030
:100080005102010051020100510201005102010020
:100090005102010051020100510201005102010010
:1000A000A120010051020100510201005102010092
:1000B00051020100510201005102010051020100F0
:1000C0005102010051020100088F010000000010E0
:1000D0009C050000088F010000C007200000000000
:1000E000A80500103C4F000000C0072000000000E1
:1000F00040F2A853C1F200031A780AB9012018701F
:10010000704700BF40F2A450C1F2000008B5036878
:100110002BB140F20003C0F2000303B1984708BDC1
:10012000F0B583B0104B02AD18681F4640F0005286
:100130001A6000F07FFB002445F8040D4FF00056D4
:1001400028464FF47A7100F079FDE3434CB1DCB2FC
:10015000FE6128464FF47A7100F070FDE343002CF5
:10016000F5D1BE61FF24EBE720C0092030B585B092
:1001700000240C49502223460B4801250095019488
:100180000294039400F0EAF80849502223460848F4
:10019000009401940294039400F0E0F800F00EFB48
:1001A000FEE700BF588C0100210101005C8C0100BA
:1001B000B1200100FEE700BFFEE700BFFEE700BF81
:1001C000FEE700BFFEE700BFFEE700BFFEE700BF9F
:1001D00070B51A481A49884222D21A4CC3432246A3
:1001E00052F8046BCD18034643F8046BAD088B42FC
:1001F00005F0010514D23DB1166804F108021E6035
:1002000000F108038B420BD2144654F8045B1846E5
:1002100040F8045B5668221D5E60031D8B42F3D3D9
:1002200009480A494FF000028842B8BF40F8042B41
:10023000FADB01F0EDFDFFF799FFFEE7000000108B
:100240009C050010088F0100A8050010E454001060
:10025000FEE700BF4FF0FF30704700BF002070473F
:100260000020704700207047002070470020704732
:100270000020704710B50E4C0E4B1968226848607C
:10028000904204460BD30C4800681B68191D01F00E
:10029000F1FB0A490A68944238BF0C6010BD084857
:1002A00000681B68191DBDE8104001F0E3BB00BFEA
:1002B000B406001098060010C405001004000010D9
:1002C000B80600102DE9F04784B04B6801F108062C
:1002D0005B680D46B3424B6008BF5B688046D3F84D
:1002E0000C9017465868B042686008BF7068C468D0
:1002F00008BF6860236B1A78A52A27D14FF0000C3D
:1003000013F8011F0CF1010CA5291FFA8CFCF7D082
:100310004FEA9C0CD4F82CE0D4F840A00D4904F12D
:1003200034023B460C48CDF800E0CDF804C0CDF8CF
:1003300008A003F017F94046074903F03BF94C4584
:1003400001D06B68CEE704B0BDE8F0874FF0000C39
:10035000E0E700BF748C0100F80500102DE9F04FB4
:1003600083B005464C200E4614469946DDF830B061
:10037000DDF834A0DDF8388001F0ACFB074600283A
:1003800074D0B8F1000F7AD0C0F83080A200A52157
:10039000404603F06BF83B6B601E314603EB800870
:1003A0000C2207F1340003F087F9BBF1040F34BFCE
:1003B0005E460426002328F0070407F1040887F8A6
:1003C0003F304046FE62BE6401F042FBC6F10506C6
:1003D00007F1180001F03CFB3F61BE617F622046DF
:1003E00029464A4601F000FC3860BAF1000F01D0FE
:1003F000CAF8007001F044FC3C4B3D4C1A68551C97
:100400001D602168002934D03A4D296821B920683F
:10041000C26A934528BF2760374EF86A3168374B68
:100420008842374988BF30600E681A68B04288BF7A
:100430000860344902F1010E00EB800CC3F800E0C3
:1004400001EB8C003A64414601F006FB01F024FC0C
:100450002B681BB12368D86A834503D8012003B0F9
:10046000BDE8F08F01F004FC0120F8E74FF0FF3009
:10047000F5E727601E68012E12D01E4DCCE7A200C2
:100480001046019201F026FB019A8046386300284D
:100490007FF47DAF384601F075FB4FF0FF30DEE7AB
:1004A000184801F0C9FA184801F0C6FA174801F0D7
:1004B000C3FA174D174801F0BFFA174E174801F05D
:1004C000BBFA284601F0B8FA304601F0B5FA1448F4
:1004D00001F0B2FA134801F0AFFA134801F0ACFA98
:1004E000124B13481D60034D066095E7D8060010B7
:1004F00098060010C8050010DC060010BC060010AD
:100500002C0600103006001044060010580600109B
:10051000C00600106C060010E405001080060010F4
:100520009C060010D0050010B0050010C405001096
:10053000B806001070B5044601F0A2FB144B1A680F
:1005400094421ED0ECB125462E1D304601F0B0FA83
:10055000AB6A1BB105F1180001F0AAFA0D4831464B
:1005600001F07AFA0C4A0D4B10681968013001311C
:100570001060196001F090FB0949086800B11CB1D6
:1005800070BD1D680024DFE7BDE8704001F070BB5E
:1005900098060010D0050010CC050010BC06001015
:1005A000C805001010B5044601F06AFB24B1E46AE6
:1005B00001F072FB204610BD034B1C68E46A01F099
:1005C0006BFB204610BD00BF980600102DE9F041DE
:1005D0000446042934BF0F46042701F051FB214B88
:1005E0001A6894423AD0002C38D02546AB6CBB42F6
:1005F00015D018D3D4F1010438BF0024EE6A03EB00
:10060000830CB342184E686906EB8C0308BFEF6297
:10061000C7F105019842AF64A9610BD03CB9BDE8B0
:10062000F04101F039BB003C18BF0124E6E701F0BE
:100630001FFBF4E72F1D384601F03AFA0B4BE86A2E
:10064000196800EB8002884288BF1860394606EBC3
:10065000820001F001FA002CE1D0E8E71D680024D7
:10066000C4E700BF98060010300600102C060010EA
:10067000084B42699A4201D000207047806A0649BF
:10068000884204D0D0F1010038BF0020704700201C
:10069000704700BFB00500109C06001030B583B055
:1006A000044670B1184D2B6898420AD001F0E8FA60
:1006B00062691648824206D003B0BDE8304001F0BE
:1006C000EBBA03B030BDA36A11498B42F4D0002BC2
:1006D000F2D1231D1846019301F0EAF90D4AE36AAD
:1006E00011688B42019900D913600B4A03EB830C0C
:1006F00002EB8C0001F0B0F92868E26AC36A9A4202
:10070000DAD301F0B5FAD7E798060010B00500106B
:100710009C0600102C0600103006001070B505462F
:100720004FF0280080F311881E4B6A699A4206D068
:1007300000244FF0000080F31188204670BDAC6AA1
:1007400019488442F4D0002CF2D1184A1368FBB93E
:10075000174EEC6A30682E1DC16A30468C4234BF99
:100760000024012401F0A4F9124BE86A1A68124926
:10077000904288BF186000EB800001EB800031469A
:1007800001F06AF94FF0000080F31188204670BD37
:1007900005F1180101F060F94FF0000080F31188B5
:1007A000204670BDB00500109C0600109406001095
:1007B000980600102C0600103006001010B584B00A
:1007C0000024502223460D480D49009401940294C0
:1007D0000394FFF7C3FD0128034601D004B010BD08
:1007E0004FF0280080F31188064A1360064B1C6006
:1007F00004B0BDE8104001F019BA00BF8D0B010034
:10080000888C0100C8050010B40600104FF02800C5
:1008100080F31188024B00221A6001F027BA00BF52
:10082000C8050010024B1868421C1A60704700BFD0
:100830009406001010B501F023FA034B1C6801F078
:100840002BFA204610BD00BFB40600104FF0280060
:1008500080F31188034803684FF0000080F311888B
:1008600018467047B4060010014B1868704700BF67
:10087000D80600102DE9F04F83B03E480368002BE6
:1008800050D13D4C23685A1C22602168002950D069
:10089000DFF800A1DAF800302168994246D3374DDD
:1008A0002A681368002B38D02A683349D368D3F8F4
:1008B0000CB00868DBF80430834257D8304E314F13
:1008C000B146A84609E0D8F80020D368D3F80CB0A8
:1008D0002168DBF804308B4248D80BF1040108464C
:1008E000019101F0E5F8DBF828300BF118000199CF
:1008F00013B101F0DDF80199DBF82C30306803EB1F
:10090000830C834288BFC9F8003007EB8C0001F0EC
:10091000A3F82A6810680028D5D14FF0FF30CAF834
:10092000000003E0184B1A68511C196003B0BDE8C1
:10093000F08F124B154918680D68154A1D60086044
:100940001168481C10601968086830B9DFF844A0C5
:100950004FF0FF33CAF800309EE71868DFF834A084
:10096000C268D3685B68CAF8003095E7CAF80030FF
:10097000DCE700BF94060010B4060010C4050010A8
:100980002C06001030060010AC050010B806001050
:10099000B0060010040000102DE9F04701F070F9D6
:1009A0002D4B1868421E1A601D68002D4DD12B4931
:1009B0000C68002C31D02A4F2A4EB946DFF8B4809B
:1009C0001EE0D9F80C20D46804F1180004F1040AE0
:1009D00001F06EF8504601F06BF8E16A336801EB04
:1009E000810C994288BF316008EB8C00514601F0C0
:1009F00033F81D48E46A0268D36A9C4228BF012587
:100A000038680028DDD1194C226882B9012D11D037
:100A1000174B1C68012C0ED0144601F03DF92046FE
:100A2000BDE8F087FFF726FF2368591E2160226882
:100A3000002AF7D10E4B00201860012401F018F9AC
:100A400001F02AF92046BDE8F087002401F024F9DE
:100A50002046BDE8F08700BF94060010D8060010BD
:100A60009C0600102C06001098060010AC05001023
:100A7000D4060010300600102DE9F0413B4D002255
:100A80002E683B49741C2C600270074602F092FDF0
:100A90003848394D066806EB860105EB81010B6885
:100AA00006F00108002B40D1741EF6B1B8F1000F1A
:100AB00008D004EB840C05EB8C01086800284FD1AA
:100AC000013C12D304EB840C55F82C30661E05EB68
:100AD0008C01002B2ED106EB860E55F82E0005EB6F
:100AE0008E01D0B9741E002EECD1244B1A68116807
:100AF00000292FD1224B19680868002824D12149E8
:100B00000B68E3B920490A681AB138465322FFF747
:100B1000D9FBBDE8F041FFF73FBF38465222FFF74F
:100B2000D1FB741E002ECDD1DFE738465222FFF7ED
:100B3000C9FBB9E738465222FFF7C4FBCBE738467A
:100B40004422FFF7BFFBDDE7196838464222FFF772
:100B5000B9FBD4E7196838464222FFF7B3FBC9E76F
:100B600038465222FFF7AEFBAAE700BF94060010FA
:100B7000908C0100DC06001030060010C405001047
:100B8000B8060010D0050010B00500102DE9F047A0
:100B9000164C174F174DDFF86090A046BA462368F1
:100BA000002BFCD02968481C28603E68FFF7F4FE43
:100BB000002EF4D001F064F8DAF80C60F668301D0D
:100BC00000F076FFD9F80010481EC9F80000D8F8E8
:100BD00000305A1EC8F8002001F05EF8306B00F0BB
:100BE000D1FF304600F0CEFFD9E700BFCC050010A2
:100BF000D005001094060010D806001070B5044609
:100C000018B9BDE8704001F033B8094D09492868AA
:100C1000094B421C2A600D681868043000F048FF38
:100C20006019FFF727FBFFF7B7FE0028E9D070BD7A
:100C300094060010B40600109806001070B5144B0E
:100C4000144A1D686C1C1C6003681568CC18AB4204
:100C500011D9A34219D911688C4216D90E4A0460E1
:100C60001068043000F024FF2046FFF703FBFFF775
:100C700093FE30B170BDA342F0D811688C42EDD81C
:100C800003E0BDE8704000F0F3BF0460EFE700BF91
:100C900094060010B40600109806001038B52B48D2
:100CA0000368002B39D12A4C226820681568036B31
:100CB0009D423CD925682749286B1422244D02F017
:100CC000FBFA00282DD1244B2449186800EB80053D
:100CD000AA00885848B91A68501E18601D6805EBAC
:100CE000850C51F82C20002AF5D01B6803EB8305F6
:100CF000AA0001EB020EDEF8045002F108006B6856
:100D000001EB000C6345CEF8043008BF5B68D9687E
:100D100008BFCEF80430216038BD114901220A60B5
:100D200038BD286829683431FFF744FACBE72068DA
:100D300021683431FFF73EFA25680649286B1422F2
:100D4000034D02F0B9FA0028BDD0EAE7940600107E
:100D500098060010608C01002C0600103006001070
:100D6000D40600102DE9F041194D044600F088FF2B
:100D70002B689C4222D0002C20D02646371D3846B6
:100D800000F096FEB06A18B106F1180000F090FE6F
:100D9000104E3946304600F05FFE00F07DFF0CB18A
:100DA000BDE8F0810C4A116871B90C4930680B68D4
:100DB000984206D0BDE8F041FFF770BF2E680024CE
:100DC000DCE72C60BDE8F081BDE8F04100F050BFE9
:100DD00098060010B0050010C8050010D8060010D5
:100DE00070B50D4C0D462168183100F043FE2068A7
:100DF000043000F05DFEB5F1FF3F06D0074B1A68E6
:100E0000A818BDE87040FFF735BA216804480431DE
:100E1000BDE8704000F020BE98060010B406001037
:100E2000B005001038B5C168CC6804F11805284633
:100E300000F03EFE11480368D3B9251D284600F096
:100E400037FE0F49E06A0A680E4B904200EB8002C1
:100E500088BF086003EB8200294600F0FDFD0A4AC6
:100E6000E06A1168CB6A984234BF0020012038BD87
:100E70000648294600F0F0FDF1E700BF9406001097
:100E80002C06001030060010980600109C0600107A
:100E9000034B04491A680B6802604360704700BF47
:100EA000B0060010B4060010F8B50C46054600F078
:100EB000E7FE2368B3F1FF3F2BD01848296802688A
:100EC00091421DD016496A680E68B24213D90E6865
:100ED0001349C2EB060C63450DD90F680026C7EB1A
:100EE000030E7244226000680B6828606B6000F09B
:100EF000D3FE3046F8BD012600F0CEFE3046F8BDE8
:100F000007496A680E680649C2EB060C6345E4D8D7
:100F1000F1E7002600F0C0FE3046F8BDB006001034
:100F2000B4060010014B01221A607047D40600106D
:100F300000B1406C704700BF00B14164704700BF12
:100F400060B1036B1A78A52A0BD1002013F8011F9A
:100F50000130A52980B2F9D080087047024B18688B
:100F6000EFE70020704700BF98060010014B18689B
:100F7000704700BF980600102DE9F041164DC36A76
:100F800029680446CA6A93420FD22A68134ED16A6E
:100F900003EB830C426906EB8C03C1F105019A4215
:100FA000816104D02A68D36AC362BDE8F081071D5D
:100FB000384600F07DFD2868094AC36A116803EBD2
:100FC00083008B4206EB80003946E36288BF1360E2
:100FD000BDE8F04100F040BD98060010300600105A
:100FE0002C06001070B50446D8B1C26A836C9A42D0
:100FF00017D0051D284600F05BFD0A4BA06C1A684F
:10100000C0F105019042A1610749E06288BF186004
:1010100000EB800001EB80002946BDE8704000F045
:101020001BBD70BD2C0600103006001070B50446C4
:1010300000F026FEA36C002B17DD606AA8B104F156
:10104000240506E0A36C5A1E002AA2640DDD616A25
:1010500059B12846FFF7E6FE0028F3D0FFF762FFFC
:10106000A36C5A1E002AA264F1DC4FF0FF31A16488
:1010700000F012FE00F004FE606C002817DD22690B
:10108000AAB104F1100506E0616C481E00286064F6
:101090000DDD23695BB12846FFF7C4FE0028F3D0BD
:1010A000FFF740FF616C481E00286064F1DC4FF0E0
:1010B000FF326264BDE8704000F0EEBD38B5036CED
:1010C000044633B90568002D28D0A26B511CA163DA
:1010D00038BD82B91A46806802F020F9A168206CF8
:1010E00062680B189342A360EFD32268A260A26BE0
:1010F000511CA16338BD1A46C06802F00FF9226C7A
:10110000E168524220688B188342E360DDD2636855
:101110009818A26BE060511CA16338BD4068FFF7CE
:1011200061FF6560D1E700BF38B50129044606D0EC
:10113000436A006908B913B138BD002038BD23687F
:10114000E16B226C481E01FB023502FB0031656039
:101150004FF0FF32002504F11000A360E1606264EB
:10116000A264A56300F068FC04F1240000F064FCB4
:10117000012038BD70B582B0044608B902B070BD18
:1011800050200191009200F0A5FC0199054600282D
:10119000F4D004FB01F0013000F09CFC01990646FC
:1011A000286050B12964EC6328460121FFF7BCFF99
:1011B000009A284685F84D20E0E7284600F0E2FC3A
:1011C0003046DBE710B5044600F05AFD236823B132
:1011D000002400F061FD204610BD646800F05CFD55
:1011E000204610BD10B502220C460021FFF7C2FFB9
:1011F00000B1846310BD00BF2DE9F04385B0044603
:10120000019298460E4600F03BFDA26BE36B002571
:101210009A422F4631D30198002850D0002D3AD061
:1012200000F03AFDFFF7FEFA00F02AFD626CA16CB7
:10123000B2F1FF3F08BF6764B1F1FF3F08BFA76489
:1012400000F02AFD02A801A9FFF72EFE00283BD1DD
:1012500000F016FDD4F83890E56B00F01DFDA945AF
:101260001DD02046FFF7E2FEFFF796FB012500F0B8
:1012700007FDA26BE36B9A42CDD22046314642462F
:10128000FFF71CFF606A002825D100F005FD012052
:1012900005B0BDE8F08302A8FFF7FAFDC0E70199A9
:1012A00004F11000FFF79CFD2046FFF7BFFEFFF79B
:1012B00073FB0028DAD100F0DBFC0125D7E70090B2
:1012C00000F0EAFC0098E3E72046FFF7AFFEFFF7E7
:1012D00063FB0020DCE704F12400FFF7A3FD0128F5
:1012E000D3D100F0C5FCD0E738B545680446FFF718
:1012F0003DFE854201D0002038BDE1680139E16042
:1013000009B1012038BD20460A460B46FFF774FF9D
:10131000012038BD70B50646502000F0DBFB0446C6
:10132000D8B100254FF0FF330122E2636364A36468
:10133000103065602560A560E560A563256484F8CC
:101340004D6000F079FB04F1240000F075FB2046AD
:1013500029462A462B46FFF74FFF204670BD00BFA7
:1013600038B5044615464FF0280080F31188A06B6D
:10137000E26B904206D300234FF0000080F3118807
:10138000184638BD1A462046FFF798FEA36CB3F105
:10139000FF3F08D0591CA16401234FF0000080F3E7
:1013A0001188184638BD636A0BB90123E4E704F1DC
:1013B0002400FFF737FD0028F7D001232B60DBE77F
:1013C0002DE9F04184B004461F460E46019200F01C
:1013D00057FCA36B0025A846002B3AD101980028A2
:1013E00070D0002D5BD000F057FCFFF71BFA00F027
:1013F00047FC636CA26CB3F1FF3F08BFC4F84480A4
:10140000B2F1FF3F08BFC4F8488000F045FC02A8D5
:1014100001A9FFF749FD00285BD100F031FCA56B65
:1014200000F03AFC002D3ED12068002842D00199FE
:1014300004F12400FFF7D4FC2046FFF7F7FDFFF787
:10144000ABFA002827D0012500F01AFCA36B002B73
:10145000C4D02368E56853B1226C6068A918814242
:10146000E160304624BFE360194601F057FF002FCA
:1014700036D1A36B21685A1EA263002940D020698F
:10148000002830D004F11000FFF7CCFC01282AD14D
:1014900000F0EEFB27E000F0EBFB0125D4E702A80B
:1014A000FFF7F6FC9FE72046FFF7C0FD0125FFF799
:1014B00073FAC9E700F0E4FB6068FFF75DFD00F038
:1014C000EBFBB4E7009000F0E7FB009804B0BDE848
:1014D000F0812046FFF7AAFDFFF75EFA0020F5E74E
:1014E000616AE56019B900F0D7FB0120EEE704F16D
:1014F0002400FFF797FC0028F5D000F0B9FBF2E7D5
:10150000FFF734FD6060BAE770B5456804460E46E3
:10151000FFF72CFD85420CD00021204632460B46B9
:10152000FFF74EFF012800D070BDE3685A1CE2604F
:1015300070BDE16801200B18E36070BD70B5044612
:1015400015464FF0280080F31188A36BC3B12068C3
:1015500060B1E368226C66689B18B342E36024BF05
:101560000346E0600846194601F0D8FEA06B636CA4
:10157000421EB3F1FF3FA26308D00133636401232D
:101580004FF0000080F31188184670BD216931B911
:1015900001234FF0000080F31188184670BD04F15C
:1015A0001000FFF73FFC0028F2D001232B60E7E793
:1015B00010B5044600F064FBA46B00F06DFB204600
:1015C00010BD00BF806B704710B51F4B04465A68B2
:1015D000904222D0D968884224D05A69904223D0C0
:1015E000D969884222D05A6A904221D0D96A884269
:1015F00020D05A6B90421FD0D96B88421ED05A6CB3
:1016000090421DD0D96C88421CD0206800F0BAFAF4
:101610002046BDE8104000F0B5BA0022002043F893
:101620003200F2E70122F9E70222F7E70322F5E7A9
:101630000422F3E70522F1E70622EFE70722EDE7B0
:101640000822EBE70922E9E79454001090F84C00D7
:10165000704700BF80F84C10704700BF90F84D00F5
:10166000704700BF806BD0F1010038BF0020704789
:10167000826BC16B531A584240EB0300704700BFA6
:1016800010B4174B1A68A2B19A68C2B11A69C2B1F4
:101690009A69C2B11A6AC2B19A6AC2B11A6BC2B16E
:1016A0009A6BC2B11A6C1AB19A6CB2B110BC704785
:1016B000082203EBC20443F832106060F6E701220F
:1016C000F7E70222F5E70322F3E70422F1E7052218
:1016D000EFE70622EDE70722EBE70922E9E700BF83
:1016E000945400102DE9F843044638200D469046E6
:1016F00000F0F0F90646002843D0244B1A683AB3AC
:1017000037460022012D28BF012547F8044BB28639
:101710003846F562C6F8308000F09AF906F11800F4
:1017200000F096F91A4BF06A19681A4A8842C5F116
:10173000050500EB800188BF1860366102EB81006F
:101740007662B561394600F087F90120BDE8F8837B
:101750001E601048DFF8549000F06EF90E4F0F48ED
:1017600000F06AF9484600F067F9384600F064F97D
:101770000B4800F061F90B480B4BC0F800901F605C
:10178000BEE74FF0FF30BDE8F88300BF0C07001044
:101790005807001030070010100700104407001011
:1017A000F80600102C0700105C070010E00600107F
:1017B0002DE9F041114E124C356822684519101D73
:1017C0000F4600F075F9336821689D424D600CD2D8
:1017D0000C480431006800F04DF96FB121683846BB
:1017E0001831BDE8F04100F045B9074B04311868E5
:1017F00000F040F9002FF1D1BDE8F081240700107E
:101800000C0700105C0700102C0700102DE9F04FAA
:1018100083B0734E3368002B00F0DE80714D724C44
:101820002F464FF0280080F31188F068D0F80C8024
:1018300008F1180000F03CF94FF0000080F3118827
:1018400008F10409484600F033F9D8F82C302A682A
:1018500003EB8301934204EB810088BF3B60494660
:1018600000F0FAF830680028DBD1FEF7E3FFDFF87C
:101870008CB1DFF88C91DBF800105C4E431AC9F88C
:1018800000303268DFF868A1DFF85881002B46D0BD
:1018900001325F1E3260C9F80070002A00F08A80B1
:1018A000534FDAF800301868002834D0DB68DB6862
:1018B0005968914206D92EE0D9683268CB685868D9
:1018C000904228D84FF0280080F31188191D08464F
:1018D0000091019300F0ECF8019B00999A6A03F1E2
:1018E00018001AB100F0E4F8019B00994FF00000D5
:1018F00080F31188DB6A2A6803EB830C934288BF6C
:10190000C8F8003004EB8C0000F0A6F83B681868BB
:101910000028D1D13268D9F80030002BB8D12B681B
:10192000CBF800209A00D1188800215851BB002B19
:101930003DD0591E8A0002EB010E04EB8E0CDCF840
:1019400000000B4601F00101D8B9002B3BD051B18A
:10195000013B9A0002EB030E04EB8E0CDCF8000056
:1019600078B9002B2FD0013B9A00D11854F82100F0
:1019700038B9013B9A0002EB030E54F82E00002800
:10198000EFD02B60D518AA0004EB020CDCF8045051
:1019900002F1080E6A687444A242CCF8042014D004
:1019A000D368144918460B601A68196B904703B046
:1019B000BDE8F08F1049DAF800000B680C4FCAF848
:1019C000003008606FE72B60F1E70749142000FB47
:1019D000031352685A60E3E7024D034C45E700BF2A
:1019E000F8060010580700103007001024070010F8
:1019F0002C0700100C0700105C07001028070010CF
:101A0000F406001038B5C068C46804F1180528460B
:101A100000F04EF82946064800F01EF8054AE06A34
:101A20001168CB6A984234BF0020012038BD00BF46
:101A3000F80600100C0700104FF0FF3200F108010B
:101A4000002382604160C16001610360704700BF94
:101A500000230361704700BF43685A688B604A6087
:101A60005A689160596002684160531C08610360C4
:101A7000704700BF10B40B68B3F1FF3F15D000F101
:101A8000080254682468A34204D352685468246846
:101A9000A342FAD25368086199604B6051600368B1
:101AA0008A600133036010BC70470269F2E700BF2F
:101AB00010B4426884680369946081685C684A6015
:101AC0001A68844208BF5960013A002101611A6016
:101AD00010BC704770B50446FEF7A4FE244A136894
:101AE00063B92448244E25494FF498457360036038
:101AF0000123316045604D60086013606CB104F1F2
:101B0000100212F0070F1CBF22F007020832541E09
:101B100044F6FE3C644504D90024FEF73DFF204610
:101B200070BD154D2B6803E0196821B11D460B46A9
:101B300058688242F8D80F498B42EDD02C681E6855
:101B4000811A103420292E600DD99E1871605A60B8
:101B50007568094900E019460B6858688542FAD84B
:101B6000336010460E60064B19680A1A1A60D4E7F3
:101B7000685300106C530010605300106007001091
:101B80000800001070B50546B0B1A0F11006FEF7D0
:101B900049FE7468094A00E01A46136859688C4285
:101BA000FAD8074845F8103C036816601C19046011
:101BB000BDE87040FEF7F0BE70BD00BF605300107E
:101BC00008000010014B1868704700BF08000010A3
:101BD000704700BF03480068006880F3088862B659
:101BE00000DF00BF08ED00E030B44FF08075031F48
:101BF00040F8045CA0F1080443F8041C00234038BA
:101C000044F8043C44F8182C30BC7047064B196863
:101C10000868B0E8F00F80F309884FF0000080F307
:101C200011884EF00D0E70479806001010B50B4B42
:101C3000196841F4780018601C68094944F078423A
:101C40001A600848084B002407220C60186043F80B
:101C5000042CFFF7BFFF204610BD00BF20ED00E0C1
:101C60000C000010BFD4010014E000E0704700BF7A
:101C7000024B4FF080521A60704700BF04ED00E045
:101C80004FF0280080F31188024B1868421C1A603C
:101C9000704700BF0C000010044A1068431E136018
:101CA0001BB94FF0000080F3118870470C00001042
:101CB000EFF309800C4B1A6820E9F00F10602DE952
:101CC00008404FF0280080F31188FEF7E7FF4FF03F
:101CD000000080F31188BDE8084019680868B0E882
:101CE000F00F80F3098870479806001008B5074B7D
:101CF0004FF080521A604FF0280080F31188FEF7F1
:101D0000B9FD4FF0000080F3118808BD04ED00E03C
:101D100010B5394BD3F88800C0F30162032A12D002
:101D2000D3F80C2102F00302012A4AD0022A2DD056
:101D3000D3F80431314A03F0FF00411C304BB2FBB1
:101D4000F1F0186010BDD3F80C1101F00302012A64
:101D500028D0022A40D0D3F88810D3F8882048042D
:101D6000440C601C2749D3F80441C2F307435A1CB2
:101D70000023A0FB010100F0E5FD04F0FF020023B9
:101D8000013200F0DFFD1E4B186010BDD3F80401D6
:101D90004FF4FA4C00F0FF02511C194BBCFBF1F060
:101DA000186010BDD3F88810D3F888204804440C7C
:101DB000601CD3F80441C2F307435A1C12490023A4
:101DC000D7E7D3F80421114B02F0FF01481C0C4A5D
:101DD000B3FBF0F1116010BDD3F88810D3F8882060
:101DE0004804440CC2F30741601C4A1CD3F8044168
:101DF0004FF47A410023BCE700C00F4000093D00CA
:101E00001000001000127A0000366E01001BB700AF
:101E100030B438492023C1F8A031D1F8A001354AA7
:101E200010F0400FF9D000250321C2F8041101245D
:101E3000C2F8A851AA20C2F8AC5155231325C2F804
:101E40000C411146C2F88450C2F88C00C2F88C30A4
:101E5000C2F88040C2F88C00C2F88C30D1F88830CB
:101E6000244A13F0806FF9D00321AA245520C2F828
:101E70008010C2F88C401146C2F88C00D1F888302E
:101E80001C4A13F0407FF9D02324C2F8A440AA20B2
:101E900055230124C2F8AC001146C2F8AC30C2F898
:101EA000A040C2F8AC00C2F8AC30D1F8A830114A5A
:101EB00013F4806FF9D00321AA235520C2F8A01093
:101EC000C2F8AC301146C2F8AC00D1F8A800094AFB
:101ED00010F4407FF9D0084B4FF49870C2F8C4302A
:101EE000C2F8C801116821F4704C4CF4A04313608F
:101EF00030BC704700C00F40DE87280410B5054B8A
:101F00001868FFF75FFB00B910BD2020BDE8104046
:101F100000F078BAB45300102DE9F04383B0DFF835
:101F2000848040224FF000094146CDF8049000F033
:101F3000D1FA00282CDD1A4D08EB00066FEA0800E4
:101F400087194146286801AA4B4608F10104FFF7AA
:101F500007FAB44207F001071AD04FB121462868AA
:101F600001AA4B4608F10204FFF7FAF9B4420FD078
:101F700021460023671C01AA2868FFF7F1F9023403
:101F800000232868394601AAFFF7EAF9B442EFD1E5
:101F9000019B0BB1FFF76CFE03B0BDE8F08300BFFF
:101FA000B853001074530010F0B583B0184D0746B5
:101FB000002428680194FFF705FB002824D0154E63
:101FC00009E0013431192868FFF7B8FA01280AD16D
:101FD0000134402C0FD001AA31192868FFF7AEFA5E
:101FE000012801AAEDD034B9019B0BB903B0F0BDB3
:101FF000FFF73EFEFAE738460649224600F01AFA95
:10200000019B002BF2D0F3E700F0FCF9EEE700BFF4
:10201000B45300107453001010B543780C46212BB4
:102020000ED0222B0AD0202B01D0002010BD116829
:102030000648072201F072F907232360012010BD32
:1020400002481060072201200A6010BD1400001031
:1020500010B582B0084B02A9044601F8010D142204
:1020600018680023FFF7C8F801280CBF20464FF07E
:10207000FF3002B010BD00BFB453001000B583B0F4
:10208000064B0DF1070118684FF0FF320023FFF7F0
:1020900097F99DF8070003B000BD00BFB8530010CA
:1020A00000F08CBAEFF3108062B67047704700BF43
:1020B00010B5012100221420FFF75CF81E4C00220D
:1020C000206001211420FFF755F81C4A2368106096
:1020D00073B368B300F01CFB194800F03FFB194ACA
:1020E0000120194900F0C8F88120002100F042F9D0
:1020F0008220164900F03EF91549052000F03AF912
:10210000144800F065F9202000F07CF9124B3022D1
:102110004FF0807183F818230120196000F06CF9EA
:10212000FFF7ACFFB0F1FF3FFAD0FFF791FFF7E701
:102130000020FEF7FFF9CDE7B8530010B4530010AC
:10214000988C0100BC53001019200100A91F010048
:10215000191F0100FD1E010000E100E070B5094CEF
:10216000094D26688020402EA8BF402632462968A7
:1021700000F060F9286822688319961B2B6026609E
:1021800070BD00BFEC530010F053001080200121FF
:1021900000F044B970B500282AD111F004012AD109
:1021A0002F4D2A68002A56DD2E4C216800F092F946
:1021B00000284CDB226829681318081A236028605D
:1021C000C0B92948294990F800C0294BCCF3411ED9
:1021D00051F82E2053F82E302260002B37D025499D
:1021E00022469847002832D0BDE87040FFF7B6BFBE
:1021F0008028F9D070BD1C4D0822294600F06AF9EC
:1022000029781A4CC1F34112EB88164854F8225031
:10221000134C05601748236003600BB1C909E9D06E
:10222000134951F8223093B10F4E124D30462946D2
:102230000C4A984758B1B6F806C02A686245D4BF20
:102240002260C4F800C0BDE87040FFF787BFBDE85A
:102250007040FFF79BBF0A46BDE8704000F03AB9F6
:10226000EC530010F0530010E4530010D45300104E
:10227000C4530010F4530010034B43F82010034BD9
:1022800043F82020704700BFC4530010D4530010FF
:10229000104B020442F4A0623020C3F80802C3F8D5
:1022A0001022D3F800220B4802F01002002AF8D0C6
:1022B0000B0443F48071C0F808220246C0F81012E3
:1022C000D2F8000200F01003002BF9D0014AC2F846
:1022D0000832704700C00050124B0004302140F417
:1022E000A062C3F808121946C3F81022D1F80032D0
:1022F0000C4A03F01003002BF8D040F40070C2F831
:1023000008321146C2F81002D1F80032054A03F033
:102310002003002BF8D0C2F80832D2F81422D0B231
:10232000704700BF00C0005030B400F00F05C00976
:1023300040EA4500012414FA00F20D4BD3F8445250
:102340001C462A43C3F84422C3F84802C3F84C127F
:10235000D4F8001201F48073002BF9D0044A40F045
:1023600040000021C2F8083230BCFFF791BF00BF27
:1023700000C0005030B400F00F0CC30943EA4C0514
:10238000012212FA05F0094B094DD3F8344245F801
:102390002C1040EA0404C3F83442D3F8040240F09D
:1023A0000402C3F8042230BC704700BF00C00050D4
:1023B00000540010044B0549D3F80422086042F091
:1023C0000802C3F80422704700C00050FC530010FC
:1023D000044B0549D3F80422086042F00102C3F817
:1023E0000422704700C00050F853001040F08001F4
:1023F000D020FFF74DBF00BF011E18BF0121FE20F6
:10240000FFF746BF0146F320FFF742BF00F00F037E
:10241000C00940EA4300FFF75FBF00BFC20900F0F8
:102420000F0342EA4300003940F0400018BF012189
:10243000FFF72EBFF0B400F00F04244BA50045F0C9
:102440000205C3F82852C3F82422D3F82852C00941
:1024500015F0020F40EA440012D08E78CC780F7845
:10246000350445EA04654E7845EA070C4CEA062532
:10247000C3F81C52D3F82852043115F0020FECD1E6
:10248000124B050445F4A0603021C3F808121D4624
:10249000C3F81002D5F800020C4900F01003002B1D
:1024A000F8D0C1F808323023C1F80832084B08468A
:1024B000C1F81032D0F8001201F01003002BF9D04F
:1024C0000248C0F808321046F0BC704700C0005007
:1024D0000005FA00F0B400F00F04334BA50045F0FE
:1024E0000105C3F82852D3F8205215F4006FFAD032
:1024F00015F4806F55D0AB059D0D35B3002615F052
:10250000010F3346284F18D013F0030F08BFD7F838
:10251000186211B19A4288BFCE540133AB4214D035
:10252000360A13F0030F01D1D7F8186211B19A429D
:1025300088BFCE540133360AE6E7D7F8186209B1EE
:1025400002B10E700123360ADEE7C30943EA4400F4
:102550000204154B002142F4A0623020C3F8281277
:10256000C3F808021946C3F81022D1F800020E4A37
:1025700000F01003002BF8D0C2F808320B4B3020CB
:10258000C2F808021146C2F81032D1F8002202F057
:102590001003002BF9D004492846C1F80832F0BCDA
:1025A00070474FF0FF30FAE700C000500005F2001E
:1025B000011E18BF0121D820FFF76ABEF8B5294BCC
:1025C000D3F8004214F0010F09D027480122056812
:1025D000C3F808221DB1F520FFF77EFEA84714F0CE
:1025E000080F2DD114F0040F29D01E4E04251F4FC3
:1025F000C6F8085234460025012111FA05F3D4F833
:102600003002034218D0C4F83832D4F8003203F054
:102610002002002AF9D0681057F82030C6F80822A6
:10262000D6F8141243B100F00F0E4EEAC51C0CF0A0
:102630008F0001F01F0198470135202DDCD1F8BD36
:10264000084B0821FE20C3F80812FFF745FE10F0E2
:102650001A0FC7D0064A1368002BC3D000F015002C
:102660009847BFE700C00050F85300100054001016
:10267000FC53001010B5224B22481C69224A24F456
:10268000402119611C6944F480211961DC681146FC
:1026900024F0405E2EF03004DC60DC6844F0005C26
:1026A0004CF01004DC605C6824F070545C605C6882
:1026B00044F0A0545C60D0F8C43043F00043C0F84C
:1026C000C4301223C2F8F43FD1F8F80F0E4B00F0DB
:1026D0001202122AF8D100224FF0FF31C3F804226F
:1026E0001046C3F80812C3F82C22C3F83422C3F8EA
:1026F0003812C3F84022FFF785FE012010BD00BF4D
:1027000000C0024000C00F4000C00050704700BF32
:1027100010B50E4CFFF7AEFF0D48FFF74BFE002043
:102720002146FFF727FE80202146FFF723FE0020E9
:102730004021FFF7F9FD80204021FFF7F5FD002043
:102740000449054AFFF798FD012010BD95210100BD
:102750000D270100BD27010040540010014B1860F7
:10276000704700BF4C540010F0B41349060A0968C2
:10277000C0B20C7874B1002702E009190C784CB192
:102780004D78B542F9D1B84207D009190C78013714
:10279000002CF5D12046F0BC7047022E196003D002
:1027A000097801201160F6E7CC7891F802C0012089
:1027B0004CEA04231360EEE74C540010F0B583B0EC
:1027C0005A4B05461C680F4616460CB1A047A0B9E7
:1027D000287800F01F03012B2BD0022B16D09BB9B9
:1027E00095F801C03268BCF1090F0DD8DFE80CF094
:1027F0005D0C0C0C0C584F0C6436012003B0F0BD7E
:102800000A2A75D00B2A60D00020F7E76C7836686A
:10281000012C65D017D228790193FFF7F7FD00232B
:10282000C0F3400C86F800C0737001990120396034
:10283000E4E76A783168002AE2D10A704A7002221D
:1028400018463A60DAE7032CDED16A88002ADBD129
:1028500028790121FFF7E2FD0120CFE7AE78002EB5
:1028600055D0334A14682378002B46D0FF273946C9
:1028700008E0052A2FD0022A00D16179E4182378D4
:10288000002B3AD06278042AF3D1E778F6E768881B
:10289000A9883A46334603B0BDE8F040FFF764BF6D
:1028A000A878FFF7A3FD0120A8E7002302211370F9
:1028B000537001203960A1E71E48012390F800C041
:1028C000184682F800C03B6098E76A88002A9BD1CE
:1028D0003A60184692E78E42D0D1E7B13146CDE753
:1028E0006988002990D12879FFF798FD204685E76F
:1028F0000020087018463B6080E70120FFF758FE73
:10290000B5F802C00B4B012083F800C076E73046D3
:10291000FFF74EFEF4E794F805E02179A07841EA4C
:102920000E21FFF701FD31462378A7E74854001038
:102930004C54001050540010014B1860704700BFF9
:10294000485400104BB942B9002908BF002802D0F2
:102950004FF0FF31084600F03BB882B0EC462DE95D
:10296000005000F01DF8DDF804E002B00CBC704728
:102970002DE970431646804689461D4600F02AF828
:1029800000FB05F3A0FB064506FB0136069B751907
:10299000B8EB040469EB0505C3E90045BDE87083A5
:1029A0002DE970431646804689461D4600F0C2F95F
:1029B00000FB05F3A0FB064506FB0136069B7519D7
:1029C000B8EB040469EB0505C3E90045BDE8708375
:1029D000704700BF00292DE9F04F1C4685B0C0F2BA
:1029E000CB800026002CC0F2C2808C4617461446CD
:1029F000054688469A46002B4AD18A426ED9B2FAD9
:102A000082F35BB1C3F1200401FA03F830FA04F257
:102A100010FA03F517FA03F442EA08084FEA144AD9
:102A2000404651461FFA84FB00F00AFB514681469E
:102A3000404600F033FC280C0BFB09F340EA014848
:102A4000434509D918EB040809F1FF3904D243457D
:102A500084BF09F1FF39A044C3EB08085146404642
:102A6000ADB200F0EDFA51460746404600F016FCC4
:102A70000BFB07FB45EA0145AB4505D9013F2D1985
:102A800002D2AB4588BF013F47EA0949002403E071
:102A90008B420CD90024A1464A46234616B1524225
:102AA00063EB43031046194605B0BDE8F08FB3FA57
:102AB00083F4002C40F0B3808B424FF001092CBF0F
:102AC0004FF0000C4FF0010C82428CBF67464CF077
:102AD0000107002FE0D13C46B946DDE722B90120CD
:102AE000114600F0ADFA0446B4FA84F3002B49D144
:102AF000C4EB0808270C1FFA84FA01210291394619
:102B0000404600F09DFA39468146404600F0C6FB3B
:102B10002A0C0AFB09F342EA014B5B4509D91BEB7E
:102B2000040B09F1FF3904D25B4584BF09F1FF3979
:102B3000A344C3EB0B0B39465846ADB200F080FA04
:102B400039468046584600F0A9FB0AFB08FA45EAD8
:102B50000145AA4507D92D1908F1FF3803D2AA4526
:102B600088BF08F1FF3848EA0949029C94E7F64318
:102B7000524263EB430338E7404261EB41014FF0BF
:102B8000FF362FE79C40C3F1200728FA07FA35FAF1
:102B900007F2270C08FA03FB3946504642EA0B02BB
:102BA0009D40029200F04CFA39468346504600F0B0
:102BB00075FB029B1FFA84FA4FEA13490AFB0BF3D9
:102BC00049EA0148434505D918EB04080BF1FF3BDE
:102BD000C0F0AA80C3EB08083946404600F030FA3E
:102BE00039468146404600F059FB02980AFB09F33A
:102BF0001FFA80FC4CEA0148434509D918EB040848
:102C000009F1FF3904D2434584BF09F1FF39A044DB
:102C100049EA0B4EC3EB0808CDF808E06FE7C4F1B2
:102C200020030AFA04FADA4021FA03F842EA0A0A0F
:102C300001FA04F930FA03F240464FEA1A4B42EA2D
:102C400009010391594617FA04F3029300F0F8F9C9
:102C500059468146404600F021FB1FFA8AF303984B
:102C600003FB09F2070C47EA0148424504D918EB77
:102C70000A0809F1FF3951D3C2EB0808594640460A
:102C8000019300F0DDF959460746404600F006FB87
:102C9000019B039803FB07F31FFA80FC4CEA014CED
:102CA000634507D9013F1CEB0A0C03D2634501D9E8
:102CB000013FD44447EA0949029FC3EB0C0C1FFAB9
:102CC00089FE4FEA1943B8B23F0C00FB0EF800FB37
:102CD00003F107FB0E1207FB03F002EB18429142CF
:102CE00088BF00F5803000EB124EF44512D34FEA56
:102CF00002421FFA88F814BF0021012102EB080CE0
:102D000015FA04F464452CBF002401F00104002CE2
:102D10003FF4C2AE09F1FF390024BDE6424584BF4D
:102D200009F1FF39D044A7E7434584BF0BF1FF3BCE
:102D3000A0444FE72DE9F04F054683B00C461746F7
:102D400080460E46002B4DD18A4261D9B2FA82F3F9
:102D500053B1C3F1200411FA03F630FA04F29F4094
:102D600042EA060600FA03F83C0C304621461FFAF8
:102D700087FA00F065F921468146304600F08EFA68
:102D80004FEA18400AFB09F340EA0146B34208D96A
:102D9000F61909F1FF3904D2B34284BF09F1FF39B2
:102DA000F619F61A214630461FFA88F800F048F95D
:102DB00021460546304600F071FA0AFB05FA48EA5A
:102DC0000148C24506D9013D18EB070802D2C245A9
:102DD00088BF013D45EA094A00263146504603B006
:102DE000BDE8F08F8B425BD8B3FA83F6002E5AD140
:102DF0008B424FF0010A2CBF0024012482428CBF79
:102E0000254644F00105002DE7D12E46AA46E4E709
:102E100022B90120114600F013F90746B7FA87F3EB
:102E2000002B40F0B680E41B4FEA174BBDB20126E1
:102E30005946204600F004F959464FEA184982469F
:102E4000204600F02BFA05FB0AF349EA0144A342AD
:102E500008D9E4190AF1FF3A04D2A34284BF0AF167
:102E6000FF3AE419E41A5946204600F0E9F85946B9
:102E70008146204600F012FA1FFA88F305FB09F597
:102E800043EA0148454508D918EB070809F1FF391D
:102E900003D2454588BF09F1FF3949EA0A4A9CE750
:102EA0000026B24699E7C6F12001B34032FA01F795
:102EB00024FA01F91F43B44030FA01F348464FEABF
:102EC000174843EA040101914146B240009200F0E4
:102ED000B7F84146BCB28246484600F0DFF9019897
:102EE00004FB0AF34FEA104B4BEA014B5B4505D953
:102EF0001BEB070B0AF1FF3AC0F09380C3EB0B0BFF
:102F00004146584600F09CF841468146584600F03C
:102F1000C5F9019804FB09F41FFA80FC4CEA01434F
:102F20009C4203D9DB1909F1FF3974D3009F49EAA8
:102F30000A4A1C1B1FFA8AFEB8B23A0C4FEA1A471B
:102F400000FB0EFC00FB07F302FB0E3102FB07F255
:102F500001EB1C418B4288BF02F5803202EB114E1F
:102F6000744512D34FEA01411FFA8CF214BF0023BB
:102F7000012301EB020C15FA06F666452CBF00266C
:102F800003F00106002E3FF428AF0AF1FF3A0026B5
:102F900023E79F40C3F1200134FA01F614FA03F24B
:102FA0004FEA174B25FA01FA3046594605FA03F85D
:102FB0004AEA020A00F044F85946BDB2814630465A
:102FC00000F06CF94FEA1A4C05FB09F34CEA014496
:102FD000A34203D9E41909F1FF3928D3E41A594669
:102FE000204600F02DF859460646204600F056F9D6
:102FF0001FFA8AF405FB06F344EA0144A34206D90A
:10300000013EE41903D2A34201D9013EE419E41AB6
:1030100046EA09460CE79C4284BF09F1FF39DB19F7
:1030200084E75B4584BF0AF1FF3ABB4466E7A342ED
:1030300084BF09F1FF39E419D0E700BF00000000A8
:103040004A1E08BF7047C0F02481884240F21681B2
:10305000114200F01781B0FA80F3B1FA81F2A2EBCD
:103060000303C3F11F0304A202EB03134FF000029A
:103070009F4600BFAFF30080B0EBC17F00BF42EBC3
:10308000020228BFA0EBC170B0EB817F00BF42EB12
:10309000020228BFA0EB8170B0EB417F00BF42EB82
:1030A000020228BFA0EB4170B0EB017F00BF42EBF2
:1030B000020228BFA0EB0170B0EBC16F00BF42EB72
:1030C000020228BFA0EBC160B0EB816F00BF42EBF2
:1030D000020228BFA0EB8160B0EB416F00BF42EB62
:1030E000020228BFA0EB4160B0EB016F00BF42EBD2
:1030F000020228BFA0EB0160B0EBC15F00BF42EB52
:10310000020228BFA0EBC150B0EB815F00BF42EBD1
:10311000020228BFA0EB8150B0EB415F00BF42EB41
:10312000020228BFA0EB4150B0EB015F00BF42EBB1
:10313000020228BFA0EB0150B0EBC14F00BF42EB31
:10314000020228BFA0EBC140B0EB814F00BF42EBB1
:10315000020228BFA0EB8140B0EB414F00BF42EB21
:10316000020228BFA0EB4140B0EB014F00BF42EB91
:10317000020228BFA0EB0140B0EBC13F00BF42EB11
:10318000020228BFA0EBC130B0EB813F00BF42EB91
:10319000020228BFA0EB8130B0EB413F00BF42EB01
:1031A000020228BFA0EB4130B0EB013F00BF42EB71
:1031B000020228BFA0EB0130B0EBC12F00BF42EBF1
:1031C000020228BFA0EBC120B0EB812F00BF42EB71
:1031D000020228BFA0EB8120B0EB412F00BF42EBE1
:1031E000020228BFA0EB4120B0EB012F00BF42EB51
:1031F000020228BFA0EB0120B0EBC11F00BF42EBD1
:10320000020228BFA0EBC110B0EB811F00BF42EB50
:10321000020228BFA0EB8110B0EB411F00BF42EBC0
:10322000020228BFA0EB4110B0EB011F00BF42EB30
:10323000020228BFA0EB0110B0EBC10F00BF42EBB0
:10324000020228BFA0EBC100B0EB810F00BF42EB30
:10325000020228BFA0EB8100B0EB410F00BF42EBA0
:10326000020228BFA0EB4100B0EB010F00BF42EB10
:10327000020228BFA0EB0100104670470CBF0120DE
:1032800000207047B1FA81F2C2F11F0220FA02F069
:10329000704708B14FF0FF30FFF79ABB0029F8D014
:1032A0002DE90340FFF7CCFEBDE8064002FB00F32A
:1032B000A1EB0301704700BF032A70B404460D461A
:1032C00026D941EA000313F0030F13D020782B789E
:1032D000984208BF294606D01EE014F8010F11F8E5
:1032E000013F984218D1012A02F1FF32F5D10020A6
:1032F00070BC70470B46044651F8045B50F8046BF1
:10330000AE4204D1043A0446032A0B46F2D81D46C5
:103310001046002ADAD1EBE7C01AE9E7032A2DE9C3
:10332000F00109D82AB10023CC5CC4540133934284
:10333000FAD1BDE8F00170470B468218014603E060
:103340002478013301F8014B11F0030F1C46F7D12B
:1033500013F003055DD06E42C5F1040CED009B59DE
:103360004FEACC0C08E00434A7593B4607FA0CF7A7
:1033700048EA070741F8047B571A23FA05F8032F98
:10338000F1DC03E014F8013B01F8013B8A42F9D873
:10339000CFE753F8404C41F8404C53F83C4C41F8CF
:1033A0003C4C53F8384C41F8384C53F8344C41F805
:1033B000344C53F8304C41F8304C53F82C4C41F815
:1033C0002C4C53F8284C41F8284C53F8244C41F825
:1033D000244C53F8204C41F8204C53F81C4C41F835
:1033E0001C4C53F8184C41F8184C53F8144C41F845
:1033F000144C53F8104C41F8104C53F80C4C41F855
:103400000C4C53F8084C41F8084C53F8044C41F864
:10341000044C561A1D460C46403340313F2EB8DC52
:103420002B460FE053F8101C44F8101C53F80C1CEA
:1034300044F80C1C53F8081C44F8081C53F8041CEE
:1034400044F8041C161B21461D46103410330F2E61
:10345000E8DC2B4602E0246841F8044B551A1C4670
:10346000032D03F10403F6DC90E700BF032AC9B281
:1034700070B408D82AB10346121803F8011B93420E
:10348000FBD170BC70478218044601E004F8011BB0
:1034900014F0030FFAD14FF0013303FB01F31FE0E7
:1034A00044F8403C44F83C3C44F8383C44F8343C54
:1034B00044F8303C44F82C3C44F8283C44F8243C84
:1034C00044F8203C44F81C3C44F8183C44F8143CB4
:1034D00044F8103C44F80C3C44F8083C44F8043CE4
:1034E000161B254640343F2EDADC2C4607E044F814
:1034F000103C44F80C3C44F8083C44F8043C161BCF
:10350000254610340F2EF2DC01E045F8043B541B35
:10351000032CFADC01E005F8011B9542FBD3B0E770
:103520000CB44FF4027370B59CB020AC0E46ADF8ED
:10353000103001A954F8042B4FF0FF33ADF81230CE
:103540006FF00045234601960596039506951B945A
:1035500000F0EEF8019B00221A701CB0BDE870402C
:1035600002B070470EB440F21C03F0B59CB021AC21
:10357000C1F20003064601A954F8042B6FF0004580
:1035800018684FF402772346019605964FF0FF36F0
:10359000ADF81070ADF81260039506951B9400F01D
:1035A000C7F8019B00221A701CB0BDE8F04003B0C0
:1035B000704700BF10F0030F38B5044612D10368FE
:1035C000A3F1013222EA030313F0803F0AD1031D65
:1035D000184653F8042BA2F1013525EA020212F035
:1035E000803FF5D003782BB1431C184613F8012B0C
:1035F000002AFAD100F002F8204638BD80EA010224
:10360000844612F0030F4FD111F0030F32D14DF861
:10361000044D11F0040F51F8043B0BD0A3F101321B
:103620009A4312F0803F04BF4CF8043B51F8043B2E
:1036300016D100BF51F8044BA3F101329A4312F0A6
:10364000803FA4F101320BD14CF8043BA24312F0AD
:10365000803F04BF51F8043B4CF8044BEAD02346AA
:103660000CF8013B13F0FF0F4FEA3323F8D15DF85C
:10367000044B704711F0010F06D011F8012B0CF824
:10368000012B002A08BF704711F0020FBFD031F89C
:10369000022B12F0FF0F16BF2CF8022B8CF8002023
:1036A00012F47F4FB3D1704711F8012B0CF8012BA6
:1036B000002AF9D1704700BF41EA000313F0030F5D
:1036C0000B4670B414BF00240124032A94BF0024C5
:1036D00004F001040546D4B9BAB10E782B46013A7C
:1036E00003F8016B56B1AC1C7AB111F8015F2346A7
:1036F000013A04F8015C0134002DF5D12AB19A1881
:10370000002103F8011B9342FBD170BC704719469E
:1037100053F8044BA4F1013626EA040616F0803F64
:10372000DAD1043A45F8044B032A1946EFD8D3E717
:103730002DE9F04FC5B0144612930C91119002F090
:103740004BFB0068199003F033FC1C900C988389A4
:1037500013F0800F03D00369002B01F06F810DF18E
:103760007C0A002356460DF1F7010E9309941A9333
:103770001B9317931D930F930791CDF8E4A03B93F0
:103780003A93099A1378B3F1250218BF0122002B4E
:103790000CBF002302F00103002B00F0BD80099B49
:1037A0005A1C174601323B78191E18BF0121252BE0
:1037B0000CBF002301F00103002BF2D1099CB7EBF1
:1037C000040810D03A9C099801343B9D072CC6F898
:1037D0000480306045443A943B9500F3818008367C
:1037E0000F9941440F913B78002B00F081807C1CA5
:1037F000002200230D928DF80F31202509942B21F2
:103800007B784FF0FF37089222460132A3F1200067
:10381000582800F21C83DFE810F02D031A031A0366
:1038200036031A031A031A031A031A031A03C703E7
:1038300081001A035D0085001A039F00A500A50002
:10384000A500A500A500A500A500A500A5001A03D8
:103850001A031A031A031A031A031A031A031A0380
:103860001A03B70041021A0341021A031A031A038A
:103870001A037F021A031A0385021A031A031A0392
:103880001A031A03A3021A031A03B2021A031A0331
:103890001A031A031A031A031A031A031A031A0340
:1038A00054033C034102410241024E033C031A030C
:1038B0001A030B031A039A0368037E03DD021A033B
:1038C000E3021A03AB031A031A03D2030D9B1290EF
:1038D0005B420D93089C44F004040894137894E729
:1038E000119839AA0C9903F093FB40B9564677E733
:1038F0003B9B23B1119839AA0C9903F089FB0C99D1
:103900000F9A8B8913F0400F18BF4FF0FF320F92C0
:103910000F9845B0BDE8F08F099F64E78DF80F114F
:10392000137872E712F8013B2A2B01F0FC81A3F116
:103930003000092801F2AC811446002714F8013B3D
:1039400007EB870700EB4707A3F130000928224661
:10395000F4D947EAE77759E7089B43F080030893D7
:10396000137852E714460020A3F1300814F8013B05
:1039700000EB8000A3F1300C2246BCF1090F08EBEC
:103980004000F1D90D9041E70992089A169342F050
:1039900010020892089B13F0200F00F08182129C05
:1039A000E31D23F0070303F108001290D3E900455B
:1039B000002C75F10002C0F2CD8554EA05034FF0EA
:1039C00001030CBF00220122002FA2BF089921F0A1
:1039D00080010891002F18BF42F00102002A00F078
:1039E000AC83012B00F0FE84022B00F0DE840DF18D
:1039F000BC0B0BF12703EA084FEAD40848EA4578E4
:103A000004F00704114604F130020D4644469C467A
:103A10001A70013B54EA0500EDD10899CDF84CC06D
:103A200011F0010F40F088850BF1280BCCEB0B0255
:103A300010929DF80F210020109C1497BC42B8BF33
:103A40003C4618900A9412B10A9801300A900899DD
:103A500011F0020B02D00A9B02330A93089C14F067
:103A60008404159440F0CD820D980A99471A002FCE
:103A700040F3C782102F41F365803B9D48F61458F0
:103A80003A9CC0F2010829464FF0100922460C9DCD
:103A90004446DDF8448002E0103F102F1BDD013268
:103AA0003460C6F8049010310836072A3A9206F1BD
:103AB00008033B91F0DD4046294639AA564603F0FB
:103AC000A7FA0AF1080300287FF419AF103F3B99C9
:103AD000102F3A9AE3DCA0460D4614460134C6F88E
:103AE0000080072C77603D443A943B9500F37E823A
:103AF0009DF80F211E466AB13A9C43AB03333360F5
:103B000001340123072C73601D443A943B9500F364
:103B1000E9830836BBF1000F0CD03A9C43AB33600D
:103B2000022301347360072C1D443A943B9500F343
:103B3000CE830836159A802A00F0108314991098C5
:103B40000F1A002F40F35B83102F40F3EB853A9C54
:103B50002A46DFF8988A4FF0100B23460C9D444606
:103B6000DDF8448002E0103F102F1BDD013334608C
:103B7000C6F804B010320836072B3A9306F108094C
:103B80003B92F0DD4046294639AA0AF1080903F0C4
:103B90003FFA564600287FF4B2AE103F3B9A102FF2
:103BA0003A9BE3DCA04615461C460134C6F800806B
:103BB000072C77603D443A943B9500F37D83089A47
:103BC00012F4807F40F04E823A9C109B013413988F
:103BD000072C1D44C9F80430C9F800003B953A94FD
:103BE00000F3358209F10809089C14F0040F46D04F
:103BF0000D980A99461A002E41DD102E40F3DA87FF
:103C00003A9C48F61458C0F2010810272346DDF804
:103C100030B04446DDF8448002E0103E102E19DD3D
:103C200001331035072BC9F80040C9F8047009F1B9
:103C300008093A933B95F0DD4046594639AAD146EA
:103C400003F0E6F900287FF45AAE103E3B9D102E9B
:103C50003A9BE5DCA0461C460134C9F80080072CDD
:103C6000C9F8046035443A943B9508DD119839AAA7
:103C70000C9903F0CDF900287FF441AE3B9D0F9ADB
:103C80000A9C0D9B9C42ACBF1219D2180F92002DBA
:103C900040F00383002056463A9072E508991D468D
:103CA000099211F0080F169300F08784129AD31D21
:103CB00023F0070303F10804129418681A905B6854
:103CC0001B931A981B9903F03DF8012840F050848B
:103CD0001A98002200231B9904F06EFF002840F080
:103CE0001C879DF80F21032048F6385348F63451BD
:103CF0000A901698C0F20101C0F20103002447287F
:103D0000D8BF0B4608991393032321F08001149424
:103D100008911093189496E6089C44F008040894BF
:103D2000137872E50899099241F010010891089AF8
:103D3000169312F0200300F0DF80129BDA1D00239F
:103D400022F0070202F108041294D2E9004554EA75
:103D500005000CBF0022012200208DF80F0133E680
:103D6000089C099244F0100408940898169310F0E7
:103D7000200F00F0048112990123CA1DE0E7099287
:103D800048F64451089AC0F20101169312F0200F30
:103D9000179100F02081129CE31D23F0070303F12B
:103DA00008001290D3E9004554EA0502089B0CBFB5
:103DB00000220122134200F06983169830230899EB
:103DC00001228DF80C31022341F002018DF80D0122
:103DD0000891C1E7089840F020000890137814E596
:103DE00009920021129A16938DF80F11141D136871
:103DF0001393002B00F0F086002FC0F293861398E7
:103E000000213A4602F0C6FA002800F03687139BDC
:103E1000C01A1090B84240F3F484002027EAE771FA
:103E200014900A919DF80F211294109718900AE6A9
:103E300013786C2B0BBF089B089C43F0200344F0C5
:103E400010040ABF0893089412F8013FDDE40992B8
:103E50001693002B3FF44CAD002201218DF8BC30AD
:103E60002FAC00230A9110918DF80F311492189203
:103E70001394ECE59DF80F31002B40F09B838DF8F7
:103E80000F511378C1E4089840F0010008901378AE
:103E9000BBE41693089B099213F0200F7FF47FADCB
:103EA000089911F0100F00F0A383129A14680432DD
:103EB0001292E5177CE5089840F0400008901378CE
:103EC000A3E416930121129B0020099200221C1DDD
:103ED0000A911B68129410912FA98DF80F0114926A
:103EE000189213918DF8BC30B1E50992089A169397
:103EF00012F020037FF421AF089911F0100200F0B6
:103F00009183129C22680434002512941446003ACE
:103F100018BF012220E7129B7821089C00250992F6
:103F200048F658501A6844F0020404330894129377
:103F300014463023003A8DF80C3118BF0122C0F22C
:103F400001008DF80D1117900223169104E70992D4
:103F5000089A12F0200F00F05883129B0F9C1298C1
:103F600019682246E31704301290C1E9002308E4DF
:103F70000898099210F0200F16937FF4FCAE089970
:103F800011F0100F40F09182089810F0400F00F0EF
:103F90008C821299012300250A880431129114465B
:103FA000003A18BF0122D7E6129B129C1B68201D05
:103FB000002B0D93FFF68AAC1378129025E409923A
:103FC00048F65850089AC0F20100169312F0200FDC
:103FD00017907FF4E0AE089911F0100F00F0FA820C
:103FE000129A0025146804321292DDE6119839AA5B
:103FF0000C9903F00DF800287FF481AC9DF80F2197
:1040000056463B9D77E5089A12F0010F40F0FD807F
:104010003A9C0135139A01230134C9F80430072C66
:10402000C9F800203B953A9400F31F8509F1080B6D
:104030000BF108091D9B0134072C1D44CBF80430FB
:104040003EABCBF800303B953A947FF7CDAD11985D
:1040500039AA0C9902F0DCFF00287FF450ACD1465D
:104060003B9DC1E51699652940F3CB801A98002243
:1040700000231B9904F096FD002800F03E813A9C35
:1040800048F67453C0F20103C9F80030013401232B
:10409000072CC9F804301D443A943B95D8BF09F168
:1040A000080900F34683429B0E9A934204DB089B67
:1040B00013F0010F3FF498AD3A9C1C980134199904
:1040C000072C0544C9F80400D8BF09F10803C9F852
:1040D00000103B953A9400F3BC830E9A561E002EB6
:1040E00040F31D83102E40F3E8853A9C1027DFF83B
:1040F000FC842246DDF830B04446DDF8448003E01D
:10410000103E102E40F3C48101321C605F601035F8
:104110000833072A3A9203F108093B95F0DD40463F
:10412000594639AA0AF1080902F072FF53460028DD
:104130007FF4E5AB3B9D3A9AE2E7002B40F0B78075
:10414000089C14F0010F00F02B81012030230DF1A9
:10415000E30110908DF8E33013916AE40D9B0A9C03
:104160001F1B002F7FF7EAAC102F40F369853A9CA4
:104170003346DFF878844FF010092246DDF830B07E
:104180004446DDF8448002E0103F102F1BDD013271
:104190001C60C3F8049010350833072A3A9203F1E3
:1041A00008063B95F0DD4046594639AA0AF1080653
:1041B00002F02EFF534600287FF4A1AB103F3B9D39
:1041C000102F3A9AE3DCA04614460134C3F800806D
:1041D000072C5F603D443A943B957FF7AFAC119854
:1041E00039AA0C9902F014FF00287FF488AB1499C7
:1041F000564610983B9D0F1A002F3FF7A5ACB146CD
:10420000DDE40E9901297FF7FEAE3A9C0135139B40
:104210000134C9F800300123072CC9F80430D8BF95
:1042200009F108093B953A94D8BF09F1080600F353
:10423000418101341C991998072C0D44D8BF06F10F
:10424000080BC9F80410C9F800003A943B9500F334
:104250003F811A98002200231B9904F0A3FC002838
:1042600040F0CE800E9B013413985A1E7260431C9E
:10427000072C336015443A943B957FF7D9AE1198DB
:1042800039AA0C9902F0C4FE00287FF438AB0AF179
:104290000809D3463B9D3A9CCCE6119839AA0C9963
:1042A00002F0B6FE00283FF4F5ACFFF728BB1092F1
:1042B00039AA1392FFF7BDBB119839AA0C9902F0E5
:1042C000A7FE00287FF41BABD1463B9D77E41198F5
:1042D00039AA0C9902F09CFE00287FF410AB3B9D9C
:1042E000564627E4119839AA0C9902F091FE00284D
:1042F0007FF405AB3B9D56460CE4429E002E40F3F6
:1043000023820E9E189C1398A642A8BF26460E999B
:10431000002E00EB010B0EDD3A9CAD19C9F8000030
:104320000134C9F80460072C3B953A94D8BF09F1D1
:10433000080900F31184189A26EAE676961B002EE7
:1043400040F3E983102E40F3E1843A9C2946DFF8DC
:104350009C82102722460C9D4446DDF8448003E0F1
:10436000103E102E40F3708101321031072AC9F837
:104370000040C9F8047009F108093A9209F10803EC
:104380003B91EDDD4046294639AAD14602F040FE78
:104390000AF1080300287FF4B2AA3B993A9ADFE7B2
:1043A000109339AB1393FFF744BB0DF1BC0B179976
:1043B0000BF1270004F00F02230943EA05734FEACB
:1043C000151C8A5C1C460346654601381A7054EA7F
:1043D0000502EFD10BF1280B1393C3EB0B031093E2
:1043E000FFF727BB0A2C75F100017FD23034012280
:1043F0000DF1E30310928DF8E3401393FFF719BB1F
:104400000E994F1E002FDCBF06F10809B3467FF757
:1044100011AE102FD8BFDFF8D4812CDDDFF8CC81AE
:1044200023462A464FF0100944460C9DDDF844808F
:1044300002E0103F102F1BDD01333460C6F80490FA
:1044400010320836072B3A9306F1080B3B92F0DD49
:104450004046294639AA0AF1080B02F0D9FD564612
:1044600000287FF44CAA103F3B9A102F3A9BE3DCC4
:10447000A04615461C460134C6F80080072C77601C
:104480003D443A943B957FF7D3ADF8E6022363E4CD
:10449000A04614460134C3F80080072C5E60354402
:1044A0003A943B957FF7A0ABD1E5129B129C1A681A
:1044B000012328E5119839AA0C9902F0A9FD0028DA
:1044C0007FF41DAA3B9D0AF108063A9CD146B0E64E
:1044D000119839AA0C9902F09BFD00287FF40FAACD
:1044E0003B9D0AF1080B3A9C5646B2E60DF1BC0B17
:1044F000B1460BF12708204629460A220023FEF781
:1045000021FA464620462946002308F1FF3802F1E9
:1045100030040A223470FEF715FA04460D4654EAB8
:104520000500E8D113960BF1280B13994E46C1EB09
:104530000B011091FFF77DBA302A00F033831393FB
:104540000BF1280B1398C3EB0B043023109403706A
:10455000FFF76FBA644265EB45052D2354EA050069
:104560008DF80F310CBF002201220123FFF72CBA76
:104570001A981B9902F0E6FB002840F07581149010
:1045800048F6405348F63C521698C0F20102C0F279
:1045900001034728D8BF13461393149B032408999B
:1045A0000A9421F080019DF80F210891109418932E
:1045B000FFF749BA1378FFF728B91299CB1D23F0FA
:1045C000070303F1080212921C681A945B681B939C
:1045D000FFF777BB089B13F0400F00F0268112987D
:1045E0000025048804301290FFF7DEBB248D010003
:1045F000089B13F0400F00F011811298B0F90040B1
:1046000004301290E517FFF7D3B9089911F0100F95
:1046100000F01281129A0F9C1368043212921C60EF
:10462000FFF7AFB8089810F0400300F0FC81129B30
:104630000025129C19880434134612940A1E0C4655
:1046400018BF0122FFF788BBA0460D46144601346F
:10465000C9F80080072CC9F8046035443A943B95AA
:1046600000F3AF82429A0E9CA2424ADB089810F0F7
:10467000010F46D1139C189821180E9CC1EB0B0713
:10468000A21ABA42B8BF1746002F0ADD3A9CED19AC
:10469000196001345F60072C3B953A9400F37482F3
:1046A000083327EAE776961B002E38DD102E40F3FC
:1046B00004833A9C1027DFF8B4862246DDF830B038
:1046C0004446DDF8448003E0103E102E7FF7E0AE54
:1046D00001321C605F6010350833072A3A9203F1FB
:1046E00008093B95F0DD4046594639AA0AF1080908
:1046F00002F08EFC534600287FF401A93B9D3A9AB4
:10470000E2E73A9C1C9901341998072C0D44596032
:1047100018603B953A9400F32B820833AAE7994638
:10472000FFF762BA06F108093A9CDFF84086FFF706
:104730003CBA119839AA0C9902F06AFC00287FF45F
:10474000DEA83B9DD146AEE43A9C48F67453C0F2D5
:104750000103C9F8003001340123072CC9F80430E3
:104760001D443A943B95D8BF09F1080900F38C81A8
:1047700036B90E9B23B9089C14F0010F3FF434AAFC
:104780003A9C1C9801341999072C0544C9F8040077
:10479000C9F80010D8BF09F108093B953A9400F315
:1047A000AB817642002E40F39881102ED8BFDFF8FF
:1047B000BC8540F37A81DFF8B48523461027DDF805
:1047C00030B04446DDF8448003E0103E102E40F344
:1047D0006A8101331035072BC9F80040C9F804700D
:1047E00009F108093A933B95EFDD4046594639AA4D
:1047F000D14602F00DFC00287FF481A83B9D3A9B36
:10480000E3E7109B002212940024149223EAE3733E
:104810009DF80F210A931894FFF715B912990C68A7
:1048200004311291E517FFF7C3B8129900250C68FF
:1048300004311291FFF7B8BA089810F0400F00F059
:104840000C8112990F9A0B68043112911A80FEF7AD
:1048500098BF119839AA0C9902F0DAFB00287FF46E
:104860004EA83B9D534638E4B7F1FF3F00F051811D
:10487000169CA4F1670EDEF1000343EB0E03472CF8
:1048800008BF43F0010313B1002F08BF01271B9B92
:104890000898002B40F480700890C0F20182DDF887
:1048A0006C9000221492169BA3F16604D4F1000BC5
:1048B0004BEB040B462B08BF4BF0010BBBF1000F79
:1048C00040F0BB81452B02D0652B40F0E68107F11B
:1048D000010802231A9C42A9CDF82C9000930A9457
:1048E000DDE90A231198029141A9CDF804800391D2
:1048F00040A9049100F0D2FA169AB2F1670318BFEA
:104900000123472A0CBF002303F00103139023B9AE
:10491000089B13F0010F00F0E181139800EB0804ED
:10492000BBF1000F05D00378302B00F0E281429BF1
:10493000E4181A9800220023494604F033F90028AD
:1049400000F08581234640941699139CA1F16700DD
:104950004242C4EB030342EB00020E93472914BF0B
:10496000134642F00103002B00F04881429B13F1F3
:10497000030F109302DB9F4280F274811698023875
:104980001690013B169A002B42938DF8F820C0F246
:10499000C3812B228DF8F920092B40F3868146F242
:1049A00067640DF1F600C6F2666484FB0321DA1732
:1049B0000546C2EBA10202EB8201A3EB41011346C3
:1049C0003031092A00F80119EFDC30336A1E05F88E
:1049D000013C0DF1F7039A4280F0C4810DF1FA0316
:1049E00012F8011B03F8011B1946079C9442F7D8E3
:1049F0003EAB0E98CB1A0E9918181D9301291090F2
:104A000040F36E81109B0024189401331093149B83
:104A1000002B40F00781109C9DF80F2124EAE474DC
:104A20000A94FFF710B8129800250268043012901B
:104A30001446003A18BF0122FFF78EB940211198A1
:104A400001F0EAF90C9908600861002800F0828101
:104A50000C9840234361FEF782BE129C0F98236896
:104A6000043412941860FEF78CBE119839AA0C9980
:104A700002F0CEFA00287EF442AF3B9D0DF184098E
:104A80003A9CD346FFF7D6BA119839AA0C9902F08E
:104A9000BFFA00287EF433AF429ED1463B9D002EE4
:104AA0007FF46EAE65E6A0461C460134C9F800806E
:104AB000072CC9F8046035443A943B95D8BF09F1F6
:104AC00008090ADD119839AA0C9902F0A1FA002808
:104AD0007EF415AF3B9DD1463A9C01340E9B139A50
:104AE000072C1D44C9F80430C9F800203A943B95BE
:104AF0007FF778A8FFF7ABBA119839AA0C9902F0A2
:104B000087FA00287EF4FBAE429ED1463B9D3A9C3C
:104B100047E60627BBE64B46A4E52D228DF80F217C
:104B2000FFF7E1B813980021149102F041FA149BA9
:104B30001294189320EAE07210900A929DF80F21C7
:104B4000FEF781BF48F6145806F108033B9DC0F2FA
:104B500001083A9CFEF7C2BF119839AA0C9902F0DD
:104B600057FA00287EF4CBAE3B9DD146FFF7E3BB5E
:104B7000119839AA0C9902F04BFA00287EF4BFAEC6
:104B8000429A53463B9D75E5119839AA0C9902F05B
:104B90003FFA00287EF4B3AE429A53460E983B9DEE
:104BA000821A7EE5139B0BF1280BC3EB0B031093CA
:104BB000FEF73FBF48F614583A9CC0F20108FFF7D1
:104BC0004BB8119839AA0C9902F022FA00287EF409
:104BD00096AE53463B9D45E5062F28BF062748F66F
:104BE0006C5027EAE771C0F201001A4610970A914B
:104BF0001294149318931390FEF725BF1699662903
:104C000040F08F80429B002B109340F398801FB997
:104C1000089810F0010F02D05A1CD2191092189364
:104C20001695F4E610982D2200218DF80F2120EA28
:104C3000E07014910A90FEF707BFB846032349E6D7
:104C400033463A9C0836DFF82481FFF7BEBA409B12
:104C50009C427FF679AE302203F8012BA3424093A9
:104C6000FAD171E60E9A93422EDB089C14F0010FE4
:104C70003DD0581C67251090D1E727EAE7721490C1
:104C80000A9212949DF80F2110971890FEF7DBBE40
:104C9000002747EAE777FEF7B9BDB846022319E6D1
:104CA0002D2103F100491491FDE5303330223FA955
:104CB0008DF8FA208DF8FB309AE603F108093A9C4A
:104CC000DFF8A880FFF7E6BB002B0E99D4BFC3F135
:104CD00002020122521867251092A0E7409B33E69A
:104CE000089A12F001037FF48DAE18938FE66725C2
:104CF00095E71A9800220023494603F053FF002845
:104D00007FF415AEC8F10103429310E609F10803E0
:104D10003A9CDFF858809AE42D225B428DF8F92006
:104D20003AE6429B2DE6129807680430002FBFF642
:104D300043A913784FF0FF371290FEF766BD1FB9F5
:104D4000089911F0010F02D00237109767E701228E
:104D5000109264E7119C4FF0FF320C230F922360F6
:104D6000FEF7D6BD0DF1FA0142E600BF248D010029
:104D70002DE9F04F83B0036981460D6901919D4291
:104D800000F38980EA1C01F1140400F11408013DCC
:104D900092008B1882181F1D596850680131FEF768
:104DA0004FF9064600283CD000204246234686465E
:104DB00053F804CB11681FFA8CFB4FEA1C4C1FFA06
:104DC00081FA0BFB060BD6440CFB06F000EB1B40F4
:104DD0001FFA8BFBCBEB0E0A1FFA80FE000CCEEB0A
:104DE000114E9F420EEB2A4E1FFA8AFC4CEA0E41EE
:104DF0004FEA2E4E42F8041BDAD22A1D09EB820339
:104E0000596871B998450AD259F822203AB9043B39
:104E100002E053F8042912B9013D9845F9D3C9F8C5
:104E200010504846019901F075FD00282FDB01362E
:104E300043464FF0000C54F8040B19681FFA80FA2F
:104E4000000C8AB2C0EB1141CAEB0202A7429444A3
:104E500001EB2C421FFA8CFC4CEA02414FEA224C37
:104E600043F8041BE7D22A1D09EB8203596871B984
:104E700098450AD259F822203AB9043B02E053F887
:104E8000042912B9013D9845F9D3C9F810503046AC
:104E900003B0BDE8F08F0020FAE700BF2DE9F04F26
:104EA0009FB0456A0446904699462B9E002D00F01F
:104EB00090832B6853B16A680125194695409D601F
:104EC0005A6001F0E5FA636A00221A60B9F1000540
:104ED000C0F2D3800023336000231A46C7F6F07374
:104EE000C7F6F07205EA0303934200F0AF80002298
:104EF000002340464946CDE90289012603F052FECF
:104F000088B916F0FF0F12D12A9801232C9903605B
:104F100048F67450C0F2010011B17B4B581E0B6073
:104F20001FB0BDE8F08F002616F0FF0FECD0204632
:104F3000DDE902231CA900911DA9019101F0FEFDEC
:104F4000C5F30A568246002E00F0AC800398A6F501
:104F50007E761D9F073E20F07F43002123F47003DF
:104F6000169143F07E5343F4E00303930023DDE9FD
:104F700002010022C3F6F87303F0F8F95CA3D3E949
:104F8000002303F0A7FB5CA3D3E9002303F0F0F9AF
:104F9000CDE90201304603F037FB59A3D3E90023E2
:104FA00003F098FB02460B46DDE9020103F0E0F94D
:104FB000CDE9020103F028FE002200230546DDE9C9
:104FC000020103F0F9FD40B1284603F01DFBDDE9C5
:104FD000022303F0E7FD00B9013D162D00F25582D2
:104FE00048F6B0514246C0F201014B4601EBC50103
:104FF000D1E9000103F0FEFD002800F00083013D2F
:1050000000201590013FBE1B00F1F48200200B969A
:105010000D90002DC0F2E6820B99002211954919DE
:105020000F920B91289A092A70D8052A40F390868E
:105030000027043A28922898831E032B00F20A8442
:10504000DFE813F00204EC03CC0305042A9842F2D3
:105050000F73036048F68450C0F20100B8F1000FEE
:1050600011D02C9900293FF45BAFC278C31C0AB160
:1050700000F108032C9A136052E725F00045012344
:10508000A946336028E748F6785248F68453C5F3BA
:105090001300C0F20102C0F2010300280CBF104649
:1050A0001846DEE71D9F1C9BFB1803F586639E1CBC
:1050B000202EDCBFC6F1200008FA00F007DDC6F1A3
:1050C00040001E3B854028FA03F345EA0300012215
:1050D000169203F089FAA6F58666033E0B46024651
:1050E000CDE90223039BA3F1F87303933EE700BFCE
:1050F00061436F63A787D23FB3C8608B288AC63FDE
:10510000FB799F501344D33F758D010000204FF071
:10511000FF310746012228900E9110920A912990A2
:10512000666A002373602046716801F07DF9636A46
:1051300030601B680C93002F00F0DE80002D40468D
:105140004946CDE90889CDE9020140F32E8448F6AD
:10515000B05305F00F02C0F201032E1103EBC2039E
:1051600016F0100F08BF4FF00208D3E90001CDE997
:10517000120140F04782BEB148F67867DDE912239C
:10518000C0F2010716F0010F1046194607D0D7E903
:10519000002308F1010803F09DFA02460B46083788
:1051A0007610EFD1CDE91223DDE90801DDE9122304
:1051B00003F0BAFBCDE908011599002938D0002386
:1051C000DDE908010022C3F6F073012603F0F4FCC8
:1051D000002800F001830A9A002AD4BF002606F0B6
:1051E00001062EB30E9B002B40F382800023002289
:1051F000C4F22403DDE9080103F06CFACDE90801EB
:1052000008F10100691E129103F0FEF902460B46F7
:10521000DDE9080103F05EFA00230022C4F21C035A
:1052200003F0A6F8DDF838B08046A1F150793CE2F1
:10523000404603F0E9F9DDE9082303F04BFA0023C7
:105240000022C4F21C0303F093F80A9AA1F15076ED
:105250008046B146002A40F0258200230022C4F295
:105260001403DDE9080103F081F842463346CDE935
:10527000080103F0BFFC002840F00F824246DDE940
:10528000080106F1004303F097FC002830D0DDF858
:1052900028B0CDF820B0299B00270C9EDD4359464D
:1052A000204601F0F5F8089971B13B1E18BF0123A3
:1052B0008F420CBF002303F00103002B40F05E83FC
:1052C0002046089901F0E4F82046514601F0E0F844
:1052D0000023337001352A9A2C9B1560002B00F0B7
:1052E00018841E600C981BE6189DDDF85CA0089CD5
:1052F000DDE90201804689461C9BDF43FF0F0E2D2E
:10530000CCBF002707F00107002F00F0C18048F64E
:10531000B0532999C0F201030A9A03EBC503CF0FDA
:10532000D3E90001002ACCBF002707F00107CDE92F
:105330000201002F40F09E8102460B46404649463E
:10534000CDE9048903F0F0FA03F05EFC0C9E81467F
:1053500003F05AF9DDE9022303F0BCF902460B46DB
:10536000DDE9040103F002F809F13003CDE904019D
:1053700006F8013B0A9A012A56D000230022C4F203
:1053800024034FF0010803F0A5F900220023CDE922
:10539000040103F007FC00B1B84618F0FF0F93D0EA
:1053A0000A9937460C98A046079500EB010BCDF8FB
:1053B00028A05D46DDE904AB0DE003F08BF9002287
:1053C000002382468B4603F0EDFB00B1002414F06D
:1053D000FF0F00F00F84DDE90223504659460124F7
:1053E00003F0A2FA03F010FC814603F00DF9DDE9A9
:1053F000022309F1300603F06DF902460B465046D0
:10540000594602F0B3FF002307F8016B0022AF42B8
:10541000C4F224033E4682468B46CED1CDE904AB8E
:105420004446079DDDF828A0DDE9040102460B464D
:1054300002F09EFFCDE90401DDE90423DDE902016C
:1054400003F0BAFB60B9DDE90201DDE9042303F0F2
:10545000A9FB00283FF438AF19F0010F3FF434AF37
:1054600012950C98334613F8011C5A1E1E4613461B
:10547000392940F0E1838342F5D10C983121129B08
:105480005D1C3023037011701EE701211591B9E5F1
:105490001099002940F0C780109B0F9F0D9E089324
:1054A000002E0B98D4BF002301230028D4BF002373
:1054B00003F001034BB103460D99B342A8BF334635
:1054C000F61AC91AC01A0D910B900F9A002A1ADD0C
:1054D000109B002B00F09483002F10DD08993A46B2
:1054E000204601F06FF9524608902046089901F0D5
:1054F000D5F851468346204600F0CAFFDA460F9899
:10550000C21B40F084830121204601F0BDF81199AF
:105510000029834605DD59462046119A01F052F9CB
:105520008346289A012A40F39E8100271199002979
:1055300040F0F28201230B9A9B1813F01F0300F036
:105540002282C3F12003042B40F3F683043B0D9821
:10555000F618D218C0180B920D900D9B002B05DD8C
:10556000514620461A4601F07FF982460B980028E2
:1055700005DD594620460B9A01F076F983461599C8
:10558000002940F0D38228990A9A0229D4BF002327
:105590000123002ACCBF002303F00103002B00F0FD
:1055A0007C81002A7FF477AE594605220A9B20466B
:1055B00000F08AFF83465046594601F0ABF90028B7
:1055C0007FF769AE0C9E31230135002706F8013BB9
:1055D00065E6102000F010FC6062456085600560A3
:1055E000C56073E40D9B684200210F905B1B119115
:1055F0000D9317E5764200230D960B9309E50022E3
:105600001592FFE448F678634046C0F2010349462C
:1056100006F00F064FF00308D3E9082303F084F9DE
:10562000CDE90801A7E5289A012A40F3F6820A99F4
:105630000F9A4B1E9A42A8BFC3EB02070A9ABFBF3C
:105640000F981199C0EB0303C918BEBFC018119180
:105650000F90002AC0F2F9820D9E0A9B0D9A2046F7
:105660000121D2180D920B9AD2180B9201F00CF86E
:10567000089015E70A9B002B40F0D88200230022F7
:10568000C4F21403DDE9020103F024F842464B465C
:1056900003F0A6FA00287FF4FAADDDF828B0CDF8C3
:1056A00020B08FE7DDF828B01295109B002B00F09A
:1056B000AF8148F6B0530021C0F20103002003EB94
:1056C000CB03C3F6E0710C9E53E9022303F02CF9DF
:1056D00042464B4602F04AFE80468946DDE9080113
:1056E00003F092FA074602F08FFF02460B46DDE90F
:1056F000080102F03BFE07F13003CDE90801404606
:1057000006F8013B4946DDE9082303F073FA002857
:1057100040F0FC810021DDE908230020C3F6F07190
:1057200002F024FE02460B464046494603F062FA68
:1057300000287FF496AEBBF1010F7FF7D9AD0C982E
:10574000374618958344CDF85CA05D46DDE908AB8B
:1057500008940FE000210020C3F6F07102F006FE6D
:1057600042464B4603F028FA002840F06A82AF42D6
:105770003FF4BAAD00230022C4F224034046494658
:1057800002F0A8FF00230022C4F2240380468946C9
:105790005046594602F09EFF8B46824603F034FA8B
:1057A000044602F031FF303402460B46504659465B
:1057B00002F0DCFD42464B4607F8014B3E4682466E
:1057C0008B4603F0F9F952465B460028C2D0DDF85B
:1057D0005CA0089C129D77E50026FCE40123109351
:1057E00029990029C2BF8B460E910A9140F3B481DA
:1057F000666A0022BBF1170F726040F2A182042397
:105800005B00013203F114015945F9D90A9B72601A
:105810000E2B8CBF002707F0010784E400231093B0
:10582000299828180E9000F1010BBBF1000FC8BF9A
:10583000CDF828B0DCDCBBF10E0F8CBF002707F0E1
:105840000107CDF828B06BE400201090C8E70122D2
:105850001092E5E74FF0FF33002701200E931090E0
:105860000A9329975CE4B8F1000F7FF45EAEC9F3A8
:1058700013034746002B7FF459AEC7F6F07309EACD
:1058800003031F46002B3FF451AE0D9B01270B98DD
:1058900001330D9301300B9048E61098002800F07A
:1058A0006181002E05DD20460899324600F0DCFFBC
:1058B0000890002F40F0ED81089802900A9908F0B6
:1058C00001020C9E089F71180A920B910895594687
:1058D0005046FFF74DFA39464FF001093030079036
:1058E000504601F017F85946029A0546204601F045
:1058F0002FF8C3688046002B3AD02046414600F07E
:10590000C7FD289B59EA030303D10A98002800F039
:10591000F381002DC0F29D812898284303D10A9974
:10592000002900F09681B9F1000F00F3D281079AA7
:1059300006F8012BB0460B9B9E4200F0C6815146F3
:105940000A220023204600F0BFFD824602988742CB
:1059500022D039460A220023204600F0B5FD0299E4
:105960000A2200230746204600F0AEFD0290AEE773
:105970005046414600F0CEFF8146BEE720463946FC
:1059800000F086FD9CE41C230D99F6180B9AC918AB
:105990000D91D2180B92E0E5394620460A220023E9
:1059A00000F092FD0746029091E76E42002E00F053
:1059B0001D8106F00F0348F6B052C0F20102DDE986
:1059C000080102EBC303D3E9002302F083FE361182
:1059D000CDE9080100F00A8148F678674FF0020827
:1059E000C0F2010702460B4616F0010F1046194699
:1059F00007D0D7E9002308F1010802F06BFE024648
:105A00000B4608377610EFD1CDE90823FFF7D4BB5A
:105A10000BF1FF321792179848F6B051C0F201010E
:105A200042464B460C9E01EBC001D1E9000102F059
:105A300051FECDE91801DDE9080103F0E5F807465C
:105A400002F0E2FD0B460246DDE9080102F08EFCA1
:105A5000BBF1010F07F13003CDE9080106F8013B66
:105A60002BD00C991B9501F1FF390F46D944DDE984
:105A70000801D3464D46B246264600230022C4F212
:105A8000240302F027FE8946804603F0BDF8044651
:105A900002F0BAFD303402460B464046494602F059
:105AA00065FC07F8014FAF42E7D1179A34461B9DBA
:105AB0005646B618DA46CDE9080100230022C3F69F
:105AC000E073DDE9180102F053FC02460B46DDE904
:105AD000080103F08FF800287FF4C3AC0021DDE952
