:020000021000EC
:10000000E07F0010D1010100B9010100BD01010034
:10001000C1010100C5010100C9010100000000008B
:100020000000000000000000000000000D1C0100A6
:10003000CD01010000000000B11C0100ED1C010019
:100040005102010051020100510201005102010060
:100050005102010051020100510201005102010050
:100060005102010051020100510201005102010040
:100070005102010051020100510201005102010030
:100080005102010051020100510201005102010020
:100090005102010051020100510201005102010010
:1000A000092F01005102010051020100510201001B
:1000B00051020100510201005102010051020100F0
:1000C000510201005102010070AA0100000000105D
:1000D000A005000070AA010000C007200000000079
:1000E000B00500103C4F000000C0072000000000D9
:1000F00040F2B053C1F200031A780AB90120187017
:10010000704700BF40F2A850C1F2000008B5036874
:100110002BB140F20003C0F2000303B1984708BDC1
:10012000F0B583B0104B02AD18681F4640F0005286
:100130001A6000F07FFB002445F8040D4FF00056D4
:1001400028464FF47A7100F079FDE3434CB1DCB2FC
:10015000FE6128464FF47A7100F070FDE343002CF5
:10016000F5D1BE61FF24EBE720C0092030B585B092
:1001700000240C49502223460B4801250095019488
:100180000294039400F0EAF80849502223460848F4
:10019000009401940294039400F0E0F800F00EFB48
:1001A000FEE700BFBCA7010021010100C0A70100BC
:1001B000192F0100FEE700BFFEE700BFFEE700BF0A
:1001C000FEE700BFFEE700BFFEE700BFFEE700BF9F
:1001D00070B51A481A49884222D21A4CC3432246A3
:1001E00052F8046BCD18034643F8046BAD088B42FC
:1001F00005F0010514D23DB1166804F108021E6035
:1002000000F108038B420BD2144654F8045B1846E5
:1002100040F8045B5668221D5E60031D8B42F3D3D9
:1002200009480A494FF000028842B8BF40F8042B41
:10023000FADB01F0EDFDFFF799FFFEE7000000108B
:10024000A005001070AA0100B0050010EC540010C9
:10025000FEE700BF4FF0FF30704700BF002070473F
:100260000020704700207047002070470020704732
:100270000020704710B50E4C0E4B1968226848607C
:10028000904204460BD30C4800681B68191D01F00E
:10029000F1FB0A490A68944238BF0C6010BD084857
:1002A00000681B68191DBDE8104001F0E3BB00BFEA
:1002B000BC060010A0060010CC05001004000010C1
:1002C000C00600102DE9F04784B04B6801F1080624
:1002D0005B680D46B3424B6008BF5B688046D3F84D
:1002E0000C9017465868B042686008BF7068C468D0
:1002F00008BF6860236B1A78A52A27D14FF0000C3D
:1003000013F8011F0CF1010CA5291FFA8CFCF7D082
:100310004FEA9C0CD4F82CE0D4F840A00D4904F12D
:1003200034023B460C48CDF800E0CDF804C0CDF8CF
:1003300008A005F089FB4046074905F0ADFB4C4598
:1003400001D06B68CEE704B0BDE8F0874FF0000C39
:10035000E0E700BFD8A70100000600102DE9F04F2C
:1003600083B005464C200E4614469946DDF830B061
:10037000DDF834A0DDF8388001F0ACFB074600283A
:1003800074D0B8F1000F7AD0C0F83080A200A52157
:10039000404605F0DDFA3B6B601E314603EB8008FA
:1003A0000C2207F1340005F0F9FBBBF1040F34BF58
:1003B0005E460426002328F0070407F1040887F8A6
:1003C0003F304046FE62BE6401F042FBC6F10506C6
:1003D00007F1180001F03CFB3F61BE617F622046DF
:1003E00029464A4601F000FC3860BAF1000F01D0FE
:1003F000CAF8007001F044FC3C4B3D4C1A68551C97
:100400001D602168002934D03A4D296821B920683F
:10041000C26A934528BF2760374EF86A3168374B68
:100420008842374988BF30600E681A68B04288BF7A
:100430000860344902F1010E00EB800CC3F800E0C3
:1004400001EB8C003A64414601F006FB01F024FC0C
:100450002B681BB12368D86A834503D8012003B0F9
:10046000BDE8F08F01F004FC0120F8E74FF0FF3009
:10047000F5E727601E68012E12D01E4DCCE7A200C2
:100480001046019201F026FB019A8046386300284D
:100490007FF47DAF384601F075FB4FF0FF30DEE7AB
:1004A000184801F0C9FA184801F0C6FA174801F0D7
:1004B000C3FA174D174801F0BFFA174E174801F05D
:1004C000BBFA284601F0B8FA304601F0B5FA1448F4
:1004D00001F0B2FA134801F0AFFA134801F0ACFA98
:1004E000124B13481D60034D066095E7E0060010AF
:1004F000A0060010D0050010E4060010C40600108D
:1005000034060010380600104C060010600600107B
:10051000C806001074060010EC05001088060010D4
:10052000A4060010D8050010B8050010CC05001076
:10053000C006001070B5044601F0A2FB144B1A6807
:1005400094421ED0ECB125462E1D304601F0B0FA83
:10055000AB6A1BB105F1180001F0AAFA0D4831464B
:1005600001F07AFA0C4A0D4B10681968013001311C
:100570001060196001F090FB0949086800B11CB1D6
:1005800070BD1D680024DFE7BDE8704001F070BB5E
:10059000A0060010D8050010D4050010C4060010F5
:1005A000D005001010B5044601F06AFB24B1E46ADE
:1005B00001F072FB204610BD034B1C68E46A01F099
:1005C0006BFB204610BD00BFA00600102DE9F041D6
:1005D0000446042934BF0F46042701F051FB214B88
:1005E0001A6894423AD0002C38D02546AB6CBB42F6
:1005F00015D018D3D4F1010438BF0024EE6A03EB00
:10060000830CB342184E686906EB8C0308BFEF6297
:10061000C7F105019842AF64A9610BD03CB9BDE8B0
:10062000F04101F039BB003C18BF0124E6E701F0BE
:100630001FFBF4E72F1D384601F03AFA0B4BE86A2E
:10064000196800EB8002884288BF1860394606EBC3
:10065000820001F001FA002CE1D0E8E71D680024D7
:10066000C4E700BFA00600103806001034060010D2
:10067000084B42699A4201D000207047806A0649BF
:10068000884204D0D0F1010038BF0020704700201C
:10069000704700BFB8050010A406001030B583B045
:1006A000044670B1184D2B6898420AD001F0E8FA60
:1006B00062691648824206D003B0BDE8304001F0BE
:1006C000EBBA03B030BDA36A11498B42F4D0002BC2
:1006D000F2D1231D1846019301F0EAF90D4AE36AAD
:1006E00011688B42019900D913600B4A03EB830C0C
:1006F00002EB8C0001F0B0F92868E26AC36A9A4202
:10070000DAD301F0B5FAD7E7A0060010B80500105B
:10071000A4060010340600103806001070B5054617
:100720004FF0280080F311881E4B6A699A4206D068
:1007300000244FF0000080F31188204670BDAC6AA1
:1007400019488442F4D0002CF2D1184A1368FBB93E
:10075000174EEC6A30682E1DC16A30468C4234BF99
:100760000024012401F0A4F9124BE86A1A68124926
:10077000904288BF186000EB800001EB800031469A
:1007800001F06AF94FF0000080F31188204670BD37
:1007900005F1180101F060F94FF0000080F31188B5
:1007A000204670BDB8050010A40600109C0600107D
:1007B000A0060010340600103806001010B584B0F2
:1007C0000024502223460D480D49009401940294C0
:1007D0000394FFF7C3FD0128034601D004B010BD08
:1007E0004FF0280080F31188064A1360064B1C6006
:1007F00004B0BDE8104001F019BA00BF8D0B010034
:10080000ECA70100D0050010BC0600104FF0280036
:1008100080F31188024B00221A6001F027BA00BF52
:10082000D0050010024B1868421C1A60704700BFC8
:100830009C06001010B501F023FA034B1C6801F070
:100840002BFA204610BD00BFBC0600104FF0280058
:1008500080F31188034803684FF0000080F311888B
:1008600018467047BC060010014B1868704700BF5F
:10087000E00600102DE9F04F83B03E480368002BDE
:1008800050D13D4C23685A1C22602168002950D069
:10089000DFF800A1DAF800302168994246D3374DDD
:1008A0002A681368002B38D02A683349D368D3F8F4
:1008B0000CB00868DBF80430834257D8304E314F13
:1008C000B146A84609E0D8F80020D368D3F80CB0A8
:1008D0002168DBF804308B4248D80BF1040108464C
:1008E000019101F0E5F8DBF828300BF118000199CF
:1008F00013B101F0DDF80199DBF82C30306803EB1F
:10090000830C834288BFC9F8003007EB8C0001F0EC
:10091000A3F82A6810680028D5D14FF0FF30CAF834
:10092000000003E0184B1A68511C196003B0BDE8C1
:10093000F08F124B154918680D68154A1D60086044
:100940001168481C10601968086830B9DFF844A0C5
:100950004FF0FF33CAF800309EE71868DFF834A084
:10096000C268D3685B68CAF8003095E7CAF80030FF
:10097000DCE700BF9C060010BC060010CC05001090
:100980003406001038060010B4050010C006001030
:10099000B8060010040000102DE9F04701F070F9CE
:1009A0002D4B1868421E1A601D68002D4DD12B4931
:1009B0000C68002C31D02A4F2A4EB946DFF8B4809B
:1009C0001EE0D9F80C20D46804F1180004F1040AE0
:1009D00001F06EF8504601F06BF8E16A336801EB04
:1009E000810C994288BF316008EB8C00514601F0C0
:1009F00033F81D48E46A0268D36A9C4228BF012587
:100A000038680028DDD1194C226882B9012D11D037
:100A1000174B1C68012C0ED0144601F03DF92046FE
:100A2000BDE8F087FFF726FF2368591E2160226882
:100A3000002AF7D10E4B00201860012401F018F9AC
:100A400001F02AF92046BDE8F087002401F024F9DE
:100A50002046BDE8F08700BF9C060010E0060010AD
:100A6000A406001034060010A0060010B405001003
:100A7000DC060010380600102DE9F0413B4D002245
:100A80002E683B49741C2C600270074605F004F880
:100A90003848394D066806EB860105EB81010B6885
:100AA00006F00108002B40D1741EF6B1B8F1000F1A
:100AB00008D004EB840C05EB8C01086800284FD1AA
:100AC000013C12D304EB840C55F82C30661E05EB68
:100AD0008C01002B2ED106EB860E55F82E0005EB6F
:100AE0008E01D0B9741E002EECD1244B1A68116807
:100AF00000292FD1224B19680868002824D12149E8
:100B00000B68E3B920490A681AB138465322FFF747
:100B1000D9FBBDE8F041FFF73FBF38465222FFF74F
:100B2000D1FB741E002ECDD1DFE738465222FFF7ED
:100B3000C9FBB9E738465222FFF7C4FBCBE738467A
:100B40004422FFF7BFFBDDE7196838464222FFF772
:100B5000B9FBD4E7196838464222FFF7B3FBC9E76F
:100B600038465222FFF7AEFBAAE700BF9C060010F2
:100B7000F4A70100E406001038060010CC050010B0
:100B8000C0060010D8050010B80500102DE9F04788
:100B9000164C174F174DDFF86090A046BA462368F1
:100BA000002BFCD02968481C28603E68FFF7F4FE43
:100BB000002EF4D001F064F8DAF80C60F668301D0D
:100BC00000F076FFD9F80010481EC9F80000D8F8E8
:100BD00000305A1EC8F8002001F05EF8306B00F0BB
:100BE000D1FF304600F0CEFFD9E700BFD40500109A
:100BF000D80500109C060010E006001070B50446F1
:100C000018B9BDE8704001F033B8094D09492868AA
:100C1000094B421C2A600D681868043000F048FF38
:100C20006019FFF727FBFFF7B7FE0028E9D070BD7A
:100C30009C060010BC060010A006001070B5144BF6
:100C4000144A1D686C1C1C6003681568CC18AB4204
:100C500011D9A34219D911688C4216D90E4A0460E1
:100C60001068043000F024FF2046FFF703FBFFF775
:100C700093FE30B170BDA342F0D811688C42EDD81C
:100C800003E0BDE8704000F0F3BF0460EFE700BF91
:100C90009C060010BC060010A006001038B52B48BA
:100CA0000368002B39D12A4C226820681568036B31
:100CB0009D423CD925682749286B1422244D04F015
:100CC0006DFD00282DD1244B2449186800EB8005C8
:100CD000AA00885848B91A68501E18601D6805EBAC
:100CE000850C51F82C20002AF5D01B6803EB8305F6
:100CF000AA0001EB020EDEF8045002F108006B6856
:100D000001EB000C6345CEF8043008BF5B68D9687E
:100D100008BFCEF80430216038BD114901220A60B5
:100D200038BD286829683431FFF744FACBE72068DA
:100D300021683431FFF73EFA25680649286B1422F2
:100D4000034D04F02BFD0028BDD0EAE79C060010FF
:100D5000A0060010C4A701003406001038060010D9
:100D6000DC0600102DE9F041194D044600F088FF23
:100D70002B689C4222D0002C20D02646371D3846B6
:100D800000F096FEB06A18B106F1180000F090FE6F
:100D9000104E3946304600F05FFE00F07DFF0CB18A
:100DA000BDE8F0810C4A116871B90C4930680B68D4
:100DB000984206D0BDE8F041FFF770BF2E680024CE
:100DC000DCE72C60BDE8F081BDE8F04100F050BFE9
:100DD000A0060010B8050010D0050010E0060010B5
:100DE00070B50D4C0D462168183100F043FE2068A7
:100DF000043000F05DFEB5F1FF3F06D0074B1A68E6
:100E0000A818BDE87040FFF735BA216804480431DE
:100E1000BDE8704000F020BEA0060010BC06001027
:100E2000B805001038B5C168CC6804F1180528462B
:100E300000F03EFE11480368D3B9251D284600F096
:100E400037FE0F49E06A0A680E4B904200EB8002C1
:100E500088BF086003EB8200294600F0FDFD0A4AC6
:100E6000E06A1168CB6A984234BF0020012038BD87
:100E70000648294600F0F0FDF1E700BF9C0600108F
:100E80003406001038060010A0060010A40600105A
:100E9000034B04491A680B6802604360704700BF47
:100EA000B8060010BC060010F8B50C46054600F068
:100EB000E7FE2368B3F1FF3F2BD01848296802688A
:100EC00091421DD016496A680E68B24213D90E6865
:100ED0001349C2EB060C63450DD90F680026C7EB1A
:100EE000030E7244226000680B6828606B6000F09B
:100EF000D3FE3046F8BD012600F0CEFE3046F8BDE8
:100F000007496A680E680649C2EB060C6345E4D8D7
:100F1000F1E7002600F0C0FE3046F8BDB80600102C
:100F2000BC060010014B01221A607047DC0600105D
:100F300000B1406C704700BF00B14164704700BF12
:100F400060B1036B1A78A52A0BD1002013F8011F9A
:100F50000130A52980B2F9D080087047024B18688B
:100F6000EFE70020704700BFA0060010014B186893
:100F7000704700BFA00600102DE9F041164DC36A6E
:100F800029680446CA6A93420FD22A68134ED16A6E
:100F900003EB830C426906EB8C03C1F105019A4215
:100FA000816104D02A68D36AC362BDE8F081071D5D
:100FB000384600F07DFD2868094AC36A116803EBD2
:100FC00083008B4206EB80003946E36288BF1360E2
:100FD000BDE8F04100F040BDA0060010380600104A
:100FE0003406001070B50446D8B1C26A836C9A42C8
:100FF00017D0051D284600F05BFD0A4BA06C1A684F
:10100000C0F105019042A1610749E06288BF186004
:1010100000EB800001EB80002946BDE8704000F045
:101020001BBD70BD340600103806001070B50446B4
:1010300000F026FEA36C002B17DD606AA8B104F156
:10104000240506E0A36C5A1E002AA2640DDD616A25
:1010500059B12846FFF7E6FE0028F3D0FFF762FFFC
:10106000A36C5A1E002AA264F1DC4FF0FF31A16488
:1010700000F012FE00F004FE606C002817DD22690B
:10108000AAB104F1100506E0616C481E00286064F6
:101090000DDD23695BB12846FFF7C4FE0028F3D0BD
:1010A000FFF740FF616C481E00286064F1DC4FF0E0
:1010B000FF326264BDE8704000F0EEBD38B5036CED
:1010C000044633B90568002D28D0A26B511CA163DA
:1010D00038BD82B91A46806804F092FBA168206C82
:1010E00062680B189342A360EFD32268A260A26BE0
:1010F000511CA16338BD1A46C06804F081FB226C04
:10110000E168524220688B188342E360DDD2636855
:101110009818A26BE060511CA16338BD4068FFF7CE
:1011200061FF6560D1E700BF38B50129044606D0EC
:10113000436A006908B913B138BD002038BD23687F
:10114000E16B226C481E01FB023502FB0031656039
:101150004FF0FF32002504F11000A360E1606264EB
:10116000A264A56300F068FC04F1240000F064FCB4
:10117000012038BD70B582B0044608B902B070BD18
:1011800050200191009200F0A5FC0199054600282D
:10119000F4D004FB01F0013000F09CFC01990646FC
:1011A000286050B12964EC6328460121FFF7BCFF99
:1011B000009A284685F84D20E0E7284600F0E2FC3A
:1011C0003046DBE710B5044600F05AFD236823B132
:1011D000002400F061FD204610BD646800F05CFD55
:1011E000204610BD10B502220C460021FFF7C2FFB9
:1011F00000B1846310BD00BF2DE9F04385B0044603
:10120000019298460E4600F03BFDA26BE36B002571
:101210009A422F4631D30198002850D0002D3AD061
:1012200000F03AFDFFF7FEFA00F02AFD626CA16CB7
:10123000B2F1FF3F08BF6764B1F1FF3F08BFA76489
:1012400000F02AFD02A801A9FFF72EFE00283BD1DD
:1012500000F016FDD4F83890E56B00F01DFDA945AF
:101260001DD02046FFF7E2FEFFF796FB012500F0B8
:1012700007FDA26BE36B9A42CDD22046314642462F
:10128000FFF71CFF606A002825D100F005FD012052
:1012900005B0BDE8F08302A8FFF7FAFDC0E70199A9
:1012A00004F11000FFF79CFD2046FFF7BFFEFFF79B
:1012B00073FB0028DAD100F0DBFC0125D7E70090B2
:1012C00000F0EAFC0098E3E72046FFF7AFFEFFF7E7
:1012D00063FB0020DCE704F12400FFF7A3FD0128F5
:1012E000D3D100F0C5FCD0E738B545680446FFF718
:1012F0003DFE854201D0002038BDE1680139E16042
:1013000009B1012038BD20460A460B46FFF774FF9D
:10131000012038BD70B50646502000F0DBFB0446C6
:10132000D8B100254FF0FF330122E2636364A36468
:10133000103065602560A560E560A563256484F8CC
:101340004D6000F079FB04F1240000F075FB2046AD
:1013500029462A462B46FFF74FFF204670BD00BFA7
:1013600038B5044615464FF0280080F31188A06B6D
:10137000E26B904206D300234FF0000080F3118807
:10138000184638BD1A462046FFF798FEA36CB3F105
:10139000FF3F08D0591CA16401234FF0000080F3E7
:1013A0001188184638BD636A0BB90123E4E704F1DC
:1013B0002400FFF737FD0028F7D001232B60DBE77F
:1013C0002DE9F04184B004461F460E46019200F01C
:1013D00057FCA36B0025A846002B3AD101980028A2
:1013E00070D0002D5BD000F057FCFFF71BFA00F027
:1013F00047FC636CA26CB3F1FF3F08BFC4F84480A4
:10140000B2F1FF3F08BFC4F8488000F045FC02A8D5
:1014100001A9FFF749FD00285BD100F031FCA56B65
:1014200000F03AFC002D3ED12068002842D00199FE
:1014300004F12400FFF7D4FC2046FFF7F7FDFFF787
:10144000ABFA002827D0012500F01AFCA36B002B73
:10145000C4D02368E56853B1226C6068A918814242
:10146000E160304624BFE360194604F0C9F9002F5B
:1014700036D1A36B21685A1EA263002940D020698F
:10148000002830D004F11000FFF7CCFC01282AD14D
:1014900000F0EEFB27E000F0EBFB0125D4E702A80B
:1014A000FFF7F6FC9FE72046FFF7C0FD0125FFF799
:1014B00073FAC9E700F0E4FB6068FFF75DFD00F038
:1014C000EBFBB4E7009000F0E7FB009804B0BDE848
:1014D000F0812046FFF7AAFDFFF75EFA0020F5E74E
:1014E000616AE56019B900F0D7FB0120EEE704F16D
:1014F0002400FFF797FC0028F5D000F0B9FBF2E7D5
:10150000FFF734FD6060BAE770B5456804460E46E3
:10151000FFF72CFD85420CD00021204632460B46B9
:10152000FFF74EFF012800D070BDE3685A1CE2604F
:1015300070BDE16801200B18E36070BD70B5044612
:1015400015464FF0280080F31188A36BC3B12068C3
:1015500060B1E368226C66689B18B342E36024BF05
:101560000346E0600846194604F04AF9A06B636C34
:10157000421EB3F1FF3FA26308D00133636401232D
:101580004FF0000080F31188184670BD216931B911
:1015900001234FF0000080F31188184670BD04F15C
:1015A0001000FFF73FFC0028F2D001232B60E7E793
:1015B00010B5044600F064FBA46B00F06DFB204600
:1015C00010BD00BF806B704710B51F4B04465A68B2
:1015D000904222D0D968884224D05A69904223D0C0
:1015E000D969884222D05A6A904221D0D96A884269
:1015F00020D05A6B90421FD0D96B88421ED05A6CB3
:1016000090421DD0D96C88421CD0206800F0BAFAF4
:101610002046BDE8104000F0B5BA0022002043F893
:101620003200F2E70122F9E70222F7E70322F5E7A9
:101630000422F3E70522F1E70622EFE70722EDE7B0
:101640000822EBE70922E9E79C54001090F84C00CF
:10165000704700BF80F84C10704700BF90F84D00F5
:10166000704700BF806BD0F1010038BF0020704789
:10167000826BC16B531A584240EB0300704700BFA6
:1016800010B4174B1A68A2B19A68C2B11A69C2B1F4
:101690009A69C2B11A6AC2B19A6AC2B11A6BC2B16E
:1016A0009A6BC2B11A6C1AB19A6CB2B110BC704785
:1016B000082203EBC20443F832106060F6E701220F
:1016C000F7E70222F5E70322F3E70422F1E7052218
:1016D000EFE70622EDE70722EBE70922E9E700BF83
:1016E0009C5400102DE9F843044638200D469046DE
:1016F00000F0F0F90646002843D0244B1A683AB3AC
:1017000037460022012D28BF012547F8044BB28639
:101710003846F562C6F8308000F09AF906F11800F4
:1017200000F096F91A4BF06A19681A4A8842C5F116
:10173000050500EB800188BF1860366102EB81006F
:101740007662B561394600F087F90120BDE8F8837B
:101750001E601048DFF8549000F06EF90E4F0F48ED
:1017600000F06AF9484600F067F9384600F064F97D
:101770000B4800F061F90B480B4BC0F800901F605C
:10178000BEE74FF0FF30BDE8F88300BF140700103C
:101790006007001038070010180700104C070010F1
:1017A000000700103407001064070010E80600105E
:1017B0002DE9F041114E124C356822684519101D73
:1017C0000F4600F075F9336821689D424D600CD2D8
:1017D0000C480431006800F04DF96FB121683846BB
:1017E0001831BDE8F04100F045B9074B04311868E5
:1017F00000F040F9002FF1D1BDE8F0812C07001076
:101800001407001064070010340700102DE9F04F92
:1018100083B0734E3368002B00F0DE80714D724C44
:101820002F464FF0280080F31188F068D0F80C8024
:1018300008F1180000F03CF94FF0000080F3118827
:1018400008F10409484600F033F9D8F82C302A682A
:1018500003EB8301934204EB810088BF3B60494660
:1018600000F0FAF830680028DBD1FEF7E3FFDFF87C
:101870008CB1DFF88C91DBF800105C4E431AC9F88C
:1018800000303268DFF868A1DFF85881002B46D0BD
:1018900001325F1E3260C9F80070002A00F08A80B1
:1018A000534FDAF800301868002834D0DB68DB6862
:1018B0005968914206D92EE0D9683268CB685868D9
:1018C000904228D84FF0280080F31188191D08464F
:1018D0000091019300F0ECF8019B00999A6A03F1E2
:1018E00018001AB100F0E4F8019B00994FF00000D5
:1018F00080F31188DB6A2A6803EB830C934288BF6C
:10190000C8F8003004EB8C0000F0A6F83B681868BB
:101910000028D1D13268D9F80030002BB8D12B681B
:10192000CBF800209A00D1188800215851BB002B19
:101930003DD0591E8A0002EB010E04EB8E0CDCF840
:1019400000000B4601F00101D8B9002B3BD051B18A
:10195000013B9A0002EB030E04EB8E0CDCF8000056
:1019600078B9002B2FD0013B9A00D11854F82100F0
:1019700038B9013B9A0002EB030E54F82E00002800
:10198000EFD02B60D518AA0004EB020CDCF8045051
:1019900002F1080E6A687444A242CCF8042014D004
:1019A000D368144918460B601A68196B904703B046
:1019B000BDE8F08F1049DAF800000B680C4FCAF848
:1019C000003008606FE72B60F1E70749142000FB47
:1019D000031352685A60E3E7024D034C45E700BF2A
:1019E0000007001060070010380700102C070010D7
:1019F00034070010140700106407001030070010AF
:101A0000FC06001038B5C068C46804F11805284603
:101A100000F04EF82946064800F01EF8054AE06A34
:101A20001168CB6A984234BF0020012038BD00BF46
:101A300000070010140700104FF0FF3200F10801FA
:101A4000002382604160C16001610360704700BF94
:101A500000230361704700BF43685A688B604A6087
:101A60005A689160596002684160531C08610360C4
:101A7000704700BF10B40B68B3F1FF3F15D000F101
:101A8000080254682468A34204D352685468246846
:101A9000A342FAD25368086199604B6051600368B1
:101AA0008A600133036010BC70470269F2E700BF2F
:101AB00010B4426884680369946081685C684A6015
:101AC0001A68844208BF5960013A002101611A6016
:101AD00010BC704770B50446FEF7A4FE244A136894
:101AE00063B92448244E25494FF498457360036038
:101AF0000123316045604D60086013606CB104F1F2
:101B0000100212F0070F1CBF22F007020832541E09
:101B100044F6FE3C644504D90024FEF73DFF204610
:101B200070BD154D2B6803E0196821B11D460B46A9
:101B300058688242F8D80F498B42EDD02C681E6855
:101B4000811A103420292E600DD99E1871605A60B8
:101B50007568094900E019460B6858688542FAD84B
:101B6000336010460E60064B19680A1A1A60D4E7F3
:101B70007053001074530010685300106807001071
:101B80000800001070B50546B0B1A0F11006FEF7D0
:101B900049FE7468094A00E01A46136859688C4285
:101BA000FAD8074845F8103C036816601C19046011
:101BB000BDE87040FEF7F0BE70BD00BF6853001076
:101BC00008000010014B1868704700BF08000010A3
:101BD000704700BF03480068006880F3088862B659
:101BE00000DF00BF08ED00E030B44FF08075031F48
:101BF00040F8045CA0F1080443F8041C00234038BA
:101C000044F8043C44F8182C30BC7047064B196863
:101C10000868B0E8F00F80F309884FF0000080F307
:101C200011884EF00D0E7047A006001010B50B4B3A
:101C3000196841F4780018601C68094944F078423A
:101C40001A600848084B002407220C60186043F80B
:101C5000042CFFF7BFFF204610BD00BF20ED00E0C1
:101C60000C000010BFD4010014E000E0704700BF7A
:101C7000024B4FF080521A60704700BF04ED00E045
:101C80004FF0280080F31188024B1868421C1A603C
:101C9000704700BF0C000010044A1068431E136018
:101CA0001BB94FF0000080F3118870470C00001042
:101CB000EFF309800C4B1A6820E9F00F10602DE952
:101CC00008404FF0280080F31188FEF7E7FF4FF03F
:101CD000000080F31188BDE8084019680868B0E882
:101CE000F00F80F309887047A006001008B5074B75
:101CF0004FF080521A604FF0280080F31188FEF7F1
:101D0000B9FD4FF0000080F3118808BD04ED00E03C
:101D100010B5394BD3F88800C0F30162032A12D002
:101D2000D3F80C2102F00302012A4AD0022A2DD056
:101D3000D3F80431314A03F0FF00411C304BB2FBB1
:101D4000F1F0186010BDD3F80C1101F00302012A64
:101D500028D0022A40D0D3F88810D3F8882048042D
:101D6000440C601C2749D3F80441C2F307435A1CB2
:101D70000023A0FB010103F053F804F0FF0200234D
:101D8000013203F04DF81E4B186010BDD3F804016A
:101D90004FF4FA4C00F0FF02511C194BBCFBF1F060
:101DA000186010BDD3F88810D3F888204804440C7C
:101DB000601CD3F80441C2F307435A1C12490023A4
:101DC000D7E7D3F80421114B02F0FF01481C0C4A5D
:101DD000B3FBF0F1116010BDD3F88810D3F8882060
:101DE0004804440CC2F30741601C4A1CD3F8044168
:101DF0004FF47A410023BCE700C00F4000093D00CA
:101E00001000001000127A0000366E01001BB700AF
:101E100030B438492023C1F8A031D1F8A001354AA7
:101E200010F0400FF9D000250321C2F8041101245D
:101E3000C2F8A851AA20C2F8AC5155231325C2F804
:101E40000C411146C2F88450C2F88C00C2F88C30A4
:101E5000C2F88040C2F88C00C2F88C30D1F88830CB
:101E6000244A13F0806FF9D00321AA245520C2F828
:101E70008010C2F88C401146C2F88C00D1F888302E
:101E80001C4A13F0407FF9D02324C2F8A440AA20B2
:101E900055230124C2F8AC001146C2F8AC30C2F898
:101EA000A040C2F8AC00C2F8AC30D1F8A830114A5A
:101EB00013F4806FF9D00321AA235520C2F8A01093
:101EC000C2F8AC301146C2F8AC00D1F8A800094AFB
:101ED00010F4407FF9D0084B4FF49870C2F8C4302A
:101EE000C2F8C801116821F4704C4CF4A04313608F
:101EF00030BC704700C00F40DE8728042DE9F04F4A
:101F000083B0019283468A46002A00F084800468E8
:101F1000551E2146204602F097FD0146002002F0A2
:101F20008BFCDAF800108146204602F083FC014663
:101F300002F08AFD0146002002F07EFC019B012791
:101F400004249F4205F00105804653D0E5B1DBF83B
:101F5000044002272146204602F076FD014648460D
:101F600002F06AFCDAF804108146204602F062FCB6
:101F7000014602F069FD0146404602F05DFC019910
:101F800008248F42804635D05BF80460251D314619
:101F9000304602F059FD0146484602F04DFC5AF821
:101FA00004108146304602F045FC014602F04CFD2B
:101FB0000146404602F040FC5BF80580064641467B
:101FC000404602F041FD0146484602F035FC5AF811
:101FD00005108146404602F02DFC014602F034FD1A
:101FE0000146304602F028FC8046019802372C1D3D
:101FF0008742C9D14146484602F0DAFD02F0B0F806
:1020000001F0D4FB0022064B02F0FEF802F0BEFB0A
:1020100003B0BDE8F08F4FF00008C146EAE700BF0B
:102020000000244030B421B3B0F900500124154120
:102030004B1E8C4220F8025B03EA040319D03BB12B
:10204000B0F90030022413418C4220F8023B10D03A
:10205000B0F90030844653FA02F52CF8025B43884D
:10206000023418B250FA02F560468C4220F8025B46
:10207000EED130BC704700BF2DE9F04F83B09146E0
:1020800007468846002A00F0B380D0F800A0561E0C
:102090005046002106F0010602F092FE002840F0B2
:1020A000AA8050464FF07E5100246A4D02F060FE37
:1020B000002800F0AA806848012504244D45C8F88E
:1020C000000000F09580002E53D03E59002130468C
:1020D00002F076FE002840F0B880DFF878B14FF0CB
:1020E000000A30464FF07E5102F042FE002800F018
:1020F0009C805948013548F8040004344D4538D1D6
:1021000076E030464FF07E514FF0000ADFF84CB1D8
:1021100002F02EFE00283ED14FF09341304602F0EF
:1021200093FC02F057FE02F009F852465B4601F0BC
:10213000B9FE02F003FB261D57F806A0002148F85F
:1021400004005046013502F03BFE002830D0434BDE
:10215000002250464FF07E51CDE9002302F008FEE8
:10216000002830D03C480135341D4D4548F8060064
:102170003ED03E590021304602F022FE0028C0D158
:1021800030464FF07E514FF0000ADFF8C8B002F041
:10219000EFFD0028C0D0261D2F4857F806A00021CB
:1021A00048F804005046013502F00AFE0028CED15E
:1021B000284B002250464FF07E51CDE9002302F01B
:1021C000D7FD0028CED14FF09341504602F03CFCA1
:1021D00002F000FE01F0B2FFDDE9002301F062FE33
:1021E00002F0ACFA0135341D4D4548F80600C0D167
:1021F00003B0BDE8F08F50464FF07E510024174DDC
:1022000002F0B6FD00287FF456AF4FF093415046E0
:1022100002F01AFC02F0DEFD01F090FF22462B4690
:1022200001F040FE02F08AFA46E74FF09341304653
:1022300002F00AFC02F0CEFD01F080FF52465B4640
:1022400001F030FE02F07AFA54E74FF0000ADFF8AE
:102250000CB046E70000E0BFFFFF0F000000E03FCA
:102260002DE9F0010346002A41D0B0F90050B1F940
:102270000000541E281A0028B8BF4042012604EA74
:102280000605002838BF0020022496422CD075B1E4
:10229000B3F90270B1F9025026467C1B002CB8BF7E
:1022A0006442A04238BF2046042496421CD0A51C9C
:1022B00033F904800F5F33F905C04C5FC7EB0807A3
:1022C000002FB8BF7F42C4EB0C0CB84238BF384671
:1022D000BCF1000FB8BFCCF1000C0236604538BF2E
:1022E0006046AC1C9642E2D1BDE8F0017047104652
:1022F000FAE700BF2DE9F0010346002A3DD005684A
:102300000868541E281A0028B8BF4042012604EA73
:102310000605002838BF0020042496422AD065B163
:102320005D684C6802262C1B002CB8BF6442A0429A
:1023300038BF2046082496421CD0251D53F804803F
:102340000F5953F805C04C59C7EB0807002FB8BF09
:102350007F42C4EB0C0CB84238BF3846BCF1000FCA
:10236000B8BFCCF1000C0236604538BF60462C1D6A
:102370009642E2D1BDE8F00170471046FAE700BF8F
:1023800030B401B30568012415414B1E8C4240F85E
:10239000045B03EA040316D033B10368022413413B
:1023A0008C4240F8043B0ED00568844655FA02F38F
:1023B0004CF8043B4068023450FA02F560468C4207
:1023C00040F8045BF0D130BC704700BF10B419B3C3
:1023D00090F9004003461441411803F8014BC043F3
:1023E00040188B4200F0010016D030B193F9000084
:1023F000104103F8010B8B420ED093F900009C466C
:1024000050FA02F40CF8014B5C78634660B210415C
:1024100003F8010B8B42F0D110BC7047012808D0A3
:1024200007D9002201235B0001329842FBD81046F5
:1024300070470022104670472DE9F0410C461546C2
:10244000F9B10746002657F8048BE5B101236A1E4F
:102450000220AB4202EA030208D01AB10223042090
:10246000AB4203D002338000AB42FBD102F094FABE
:102470000146404602F0E8FA0136A64247F8040C4D
:10248000E1D1BDE8F0814FF07E51F2E788B1421E04
:10249000012302EA03010222834208D019B1022378
:1024A0000422834203D0023392008342FBD11046C0
:1024B00070470122FBE700BF2DE9F84F17460C4695
:1024C000002A00F0BA80054655F8046B02F1FF3887
:1024D0003046002108F0010802F072FC002840F0AC
:1024E000AE8030464FF080414FF0000ADFF8B8B1BF
:1024F00002F03EFC002800F0AE8047F6FF70012697
:10250000BE4224F8020B00F09880B8F1000F52D0C0
:1025100055F804AB0021504602F052FC002840F070
:10252000BC80DFF884914FF0000850464FF08041A6
:1025300002F01EFC002800F09F8047F6FF70013675
:10254000BE4224F8020B36D1ACE050464FF0804139
:102550004FF00008DFF8549102F00AFC00283DD14A
:102560004FF08D41504602F06FFA02F033FC00B29A
:1025700001F0E4FD42464B4601F094FC02F0DEF827
:1025800055F8048B002124F8020B4046013602F076
:1025900017FC80B340464FF080414FF0000ADFF84F
:1025A0000CB102F0E5FB88B3013647F6FF70BE427E
:1025B00024F8020B3FD055F804AB0021504602F03E
:1025C000FFFB0028C1D150464FF080414FF000087A
:1025D000DFF8D49002F0CCFB0028C1D055F8048B72
:1025E00047F6FF7024F8020B00214046013602F046
:1025F000E7FB0028CED140464FF080414FF0000A63
:10260000DFF8A4B002F0B4FB0028CDD14FF08D412B
:10261000404602F019FA02F0DDFB00B201F08EFD37
:1026200052465B4601F03EFC02F088F80136BE429D
:1026300024F8020BBFD1BDE8F88FBDE8F88F304613
:102640004FF080414FF0000ADFF860B002F090FBDD
:1026500000287FF452AF4FF08D41304602F0F4F97C
:1026600002F0B8FB00B201F069FD52465B4601F092
:1026700019FC02F063F842E74FF08D41504602F03A
:10268000E3F902F0A7FB00B201F058FD42464B46C9
:1026900001F008FC02F052F851E74FF00008DFF8B3
:1026A0000C9042E7BDE8F88F0000E0BF0000E03F7B
:1026B0002DE9F04F83B0914607468846002A00F086
:1026C000B780D0F800A0561E5046002106F0010643
:1026D00002F076FB002840F0AE8050464FF080417B
:1026E00000246C4D02F044FB002800F0AE806FF037
:1026F0000040012504244D45C8F8000000F09880F2
:10270000002E55D03E590021304602F059FB0028DA
:1027100040F0BB80DFF87CB14FF0000A30464FF04C
:10272000804102F025FB002800F09F806FF0004000
:10273000013548F8040004344D4539D178E030467D
:102740004FF080414FF0000ADFF84CB102F010FB6F
:1027500000283FD14FF09D41304602F075F902F05C
:1027600039FB01F0EBFC52465B4601F09BFB01F0AC
:10277000E5FF261D57F806A0002148F80400504642
:10278000013502F01DFB002832D0434B0022504699
:102790004FF08041CDE9002302F0EAFA002832D060
:1027A00001356FF00040341D4D4548F806003FD01C
:1027B0003E590021304602F003FB0028BFD13046CD
:1027C0004FF080414FF0000ADFF8C8B002F0D0FAB5
:1027D0000028BFD0261D57F806A06FF0004048F82B
:1027E000040000215046013502F0EAFA0028CCD15D
:1027F000284B002250464FF08041CDE9002302F0E3
:10280000B7FA0028CCD14FF09D41504602F01CF998
:1028100002F0E0FA01F092FCDDE9002301F042FB56
:1028200001F08CFF0135341D4D4548F80600BFD13D
:1028300003B0BDE8F08F50464FF080410024164DA4
:1028400002F096FA00287FF452AF4FF09D415046B7
:1028500002F0FAF802F0BEFA01F070FC22462B46B4
:1028600001F020FB01F06AFF43E74FF09D41304645
:1028700002F0EAF802F0AEFA01F060FC52465B4664
:1028800001F010FB01F05AFF52E74FF0000ADFF8A9
:1028900008B043E70000E0BF0000E03F2DE9F04F43
:1028A00083B0914607468846002A00F0B780D0F8EA
:1028B00000A0561E5046002106F0010602F080FAE4
:1028C000002840F0AE8050464FF0814100246C4D0E
:1028D00002F04EFA002800F0AE806FF000400125B3
:1028E00004244D45C8F8000000F09880002E55D013
:1028F0003E590021304602F063FA002840F0BB80C8
:10290000DFF87CB14FF0000A30464FF0814102F011
:102910002FFA002800F09F806FF00040013548F842
:10292000040004344D4539D178E030464FF0814100
:102930004FF0000ADFF84CB102F01AFA00283FD13C
:102940004FF09C41304602F07FF802F043FA01F06C
:10295000F5FB52465B4601F0A5FA01F0EFFE261D9D
:1029600057F806A0002148F804005046013502F04F
:1029700027FA002832D0434B002250464FF08141C5
:10298000CDE9002302F0F4F9002832D001356FF0D0
:102990000040341D4D4548F806003FD03E59002107
:1029A000304602F00DFA0028BFD130464FF0814189
:1029B0004FF0000ADFF8C8B002F0DAF90028BFD003
:1029C000261D57F806A06FF0004048F804000021CB
:1029D0005046013502F0F4F90028CCD1284B0022F2
:1029E00050464FF08141CDE9002302F0C1F90028A3
:1029F000CCD14FF09C41504602F026F802F0EAF9A3
:102A000001F09CFBDDE9002301F04CFA01F096FE99
:102A10000135341D4D4548F80600BFD103B0BDE86F
:102A2000F08F50464FF081410024164D02F0A0F97E
:102A300000287FF452AF4FF09C41504602F004F85A
:102A400002F0C8F901F07AFB22462B4601F02AFA7F
:102A500001F074FE43E74FF09C41304601F0F4FF73
:102A600002F0B8F901F06AFB52465B4601F01AFA2F
:102A700001F064FE52E74FF0000ADFF808B043E7C8
:102A80000000E0BF0000E03F2DE9F04F83B0914629
:102A900007468846002A00F0B780D0F800A0561EEE
:102AA0005046002106F0010602F08AF9002840F0A5
:102AB000AE8050464FF0824100246C4D02F058F930
:102AC000002800F0AE806FF00040012504244D4541
:102AD000C8F8000000F09880002E55D03E59002123
:102AE000304602F06DF9002840F0BB80DFF87CB181
:102AF0004FF0000A30464FF0824102F039F90028C9
:102B000000F09F806FF00040013548F80400043465
:102B10004D4539D178E030464FF082414FF0000A00
:102B2000DFF84CB102F024F900283FD14FF09B416F
:102B3000304601F089FF02F04DF901F0FFFA5246EC
:102B40005B4601F0AFF901F0F9FD261D57F806A02C
:102B5000002148F804005046013502F031F9002800
:102B600032D0434B002250464FF08241CDE9002342
:102B700002F0FEF8002832D001356FF00040341D1D
:102B80004D4548F806003FD03E590021304602F03E
:102B900017F90028BFD130464FF082414FF0000AAC
:102BA000DFF8C8B002F0E4F80028BFD0261D57F8BF
:102BB00006A06FF0004048F804000021504601359F
:102BC00002F0FEF80028CCD1284B002250464FF0EE
:102BD0008241CDE9002302F0CBF80028CCD14FF0A0
:102BE0009B41504601F030FF02F0F4F801F0A6FAE4
:102BF000DDE9002301F056F901F0A0FD0135341D97
:102C00004D4548F80600BFD103B0BDE8F08F5046EF
:102C10004FF082410024164D02F0AAF800287FF4FC
:102C200052AF4FF09B41504601F00EFF02F0D2F838
:102C300001F084FA22462B4601F034F901F07EFDC2
:102C400043E74FF09B41304601F0FEFE02F0C2F830
:102C500001F074FA52465B4601F024F901F06EFD72
:102C600052E74FF0000ADFF808B043E70000E0BF8A
:102C70000000E03F2DE9F8430F46002966D00446E6
:102C800054F8045B4FF07E584E1E28464146DFF84C
:102C9000D09006F0010602F093F8002858D128469B
:102CA000494602F06FF808B144F8049C0125BD4282
:102CB0004CD01EB354F8046B4FF07E51304602F0F6
:102CC0007FF8002847D13046254902F05BF808B16B
:102CD00044F8049C0135BD4210D13FE044F8048C17
:102CE00054F8046B4FF07E513046013502F068F81D
:102CF000F8B144F8048C0135BD4225D054F8046B7A
:102D00004FF07E51304602F05BF815490028E5D1BE
:102D1000304602F037F80028E2D044F8049C54F81A
:102D2000046B4FF07E513046013502F049F800281F
:102D3000DFD130460A4902F025F80028DBD0013502
:102D4000BD4244F8049CD9D1BDE8F883BDE8F883BE
:102D500044F8048CAAE744F8048CBBE7BDE8F88388
:102D6000000080BF10B5054B1868FEF72BFC00B9BA
:102D700010BD2020BDE8104000F078BABC53001010
:102D80002DE9F04383B0DFF8848040224FF0000942
:102D90004146CDF8049000F0D1FA00282CDD1A4D00
:102DA00008EB00066FEA080087194146286801AA67
:102DB0004B4608F10104FEF7D3FAB44207F00107CD
:102DC0001AD04FB12146286801AA4B4608F10204E7
:102DD000FEF7C6FAB4420FD021460023671C01AAB1
:102DE0002868FEF7BDFA023400232868394601AA94
:102DF000FEF7B6FAB442EFD1019B0BB1FEF738FFF4
:102E000003B0BDE8F08300BFC05300107C53001036
:102E1000F0B583B0184D0746002428680194FEF7EA
:102E2000D1FB002824D0154E09E00134311928685F
:102E3000FEF784FB01280AD10134402C0FD001AAEF
:102E400031192868FEF77AFB012801AAEDD034B9C0
:102E5000019B0BB903B0F0BDFEF70AFFFAE7384655
:102E60000649224600F01AFA019B002BF2D0F3E744
:102E700000F0FCF9EEE700BFBC5300107C530010DB
:102E800010B543780C46212B0ED0222B0AD0202BD4
:102E900001D0002010BD11680648072202F0B0FCE6
:102EA00007232360012010BD024810600722012083
:102EB0000A6010BD1400001010B582B0084B02A9C2
:102EC000044601F8010D142218680023FEF794F956
:102ED00001280CBF20464FF0FF3002B010BD00BFEC
:102EE000BC53001000B583B0064B0DF10701186804
:102EF0004FF0FF320023FEF763FA9DF8070003B09E
:102F000000BD00BFC053001000F08CBAEFF310807A
:102F100062B67047704700BF10B50121002214202F
:102F2000FEF728F91E4C0022206001211420FEF734
:102F300021F91C4A2368106073B368B300F01CFBCE
:102F4000194800F03FFB194A0120194900F0C8F860
:102F50008120002100F042F98220164900F03EF95C
:102F60001549052000F03AF9144800F065F92020D1
:102F700000F07CF9124B30224FF0807183F8182357
:102F80000120196000F06CF9FFF7ACFFB0F1FF3FD2
:102F9000FAD0FFF791FFF7E70020FDF7CBFACDE776
:102FA000C0530010BC530010FCA70100C453001014
:102FB000812E0100112E0100812D0100652D0100DF
:102FC00000E100E070B5094C094D26688020402ED4
:102FD000A8BF40263246296800F060F928682268B8
:102FE0008319961B2B60266070BD00BFF453001040
:102FF000F85300108020012100F044B970B500287A
:103000002AD111F004012AD12F4D2A68002A56DD59
:103010002E4C216800F092F900284CDB22682968C8
:103020001318081A23602860C0B92948294990F864
:1030300000C0294BCCF3411E51F82E2053F82E30FE
:103040002260002B37D0254922469847002832D0ED
:10305000BDE87040FFF7B6BF8028F9D070BD1C4DA9
:103060000822294600F06AF929781A4CC1F3411266
:10307000EB88164854F82250134C0560174823601B
:1030800003600BB1C909E9D0134951F8223093B15B
:103090000F4E124D304629460C4A984758B1B6F8A3
:1030A00006C02A686245D4BF2260C4F800C0BDE8EB
:1030B0007040FFF787BFBDE87040FFF79BBF0A462F
:1030C000BDE8704000F03AB9F4530010F853001016
:1030D000EC530010DC530010CC530010FC530010D4
:1030E000034B43F82010034B43F82020704700BFE8
:1030F000CC530010DC530010104B020442F4A062C9
:103100003020C3F80802C3F81022D3F800220B487D
:1031100002F01002002AF8D00B0443F48071C0F8CA
:1031200008220246C0F81012D2F8000200F0100384
:10313000002BF9D0014AC2F80832704700C0005095
:10314000124B0004302140F4A062C3F80812194663
:10315000C3F81022D1F800320C4A03F01003002B00
:10316000F8D040F40070C2F808321146C2F81002DC
:10317000D1F80032054A03F02003002BF8D0C2F842
:103180000832D2F81422D0B2704700BF00C00050FD
:1031900030B400F00F05C00940EA4500012414FADC
:1031A00000F20D4BD3F844521C462A43C3F8442284
:1031B000C3F84802C3F84C12D4F8001201F480732B
:1031C000002BF9D0044A40F040000021C2F8083238
:1031D00030BCFFF791BF00BF00C0005030B400F01A
:1031E0000F0CC30943EA4C05012212FA05F0094B02
:1031F000094DD3F8344245F82C1040EA0404C3F8D2
:103200003442D3F8040240F00402C3F8042230BC74
:10321000704700BF00C0005008540010044B05491F
:10322000D3F80422086042F00802C3F80422704771
:1032300000C0005004540010044B0549D3F8042288
:10324000086042F00102C3F80422704700C0005039
:103250000054001040F08001D020FFF74DBF00BFA8
:10326000011E18BF0121FE20FFF746BF0146F320D3
:10327000FFF742BF00F00F03C00940EA4300FFF729
:103280005FBF00BFC20900F00F0342EA43000039EC
:1032900040F0400018BF0121FFF72EBFF0B400F04E
:1032A0000F04244BA50045F00205C3F82852C3F8CB
:1032B0002422D3F82852C00915F0020F40EA440036
:1032C00012D08E78CC780F78350445EA04654E78B4
:1032D00045EA070C4CEA0625C3F81C52D3F82852DD
:1032E000043115F0020FECD1124B050445F4A06037
:1032F0003021C3F808121D46C3F81002D5F80002A9
:103300000C4900F01003002BF8D0C1F8083230232C
:10331000C1F80832084B0846C1F81032D0F8001244
:1033200001F01003002BF9D00248C0F80832104613
:10333000F0BC704700C000500005FA00F0B400F087
:103340000F04334BA50045F00105C3F82852D3F80C
:10335000205215F4006FFAD015F4806F55D0AB05EC
:103360009D0D35B3002615F0010F3346284F18D0B8
:1033700013F0030F08BFD7F8186211B19A4288BF43
:10338000CE540133AB4214D0360A13F0030F01D1EF
:10339000D7F8186211B19A4288BFCE540133360A69
:1033A000E6E7D7F8186209B102B10E700123360AB8
:1033B000DEE7C30943EA44000204154B002142F44E
:1033C000A0623020C3F82812C3F808021946C3F8D7
:1033D0001022D1F800020E4A00F01003002BF8D0A2
:1033E000C2F808320B4B3020C2F808021146C2F86E
:1033F0001032D1F8002202F01003002BF9D004495A
:103400002846C1F80832F0BC70474FF0FF30FAE7A9
:1034100000C000500005F200011E18BF0121D82095
:10342000FFF76ABEF8B5294BD3F8004214F0010F3C
:1034300009D0274801220568C3F808221DB1F520EC
:10344000FFF77EFEA84714F0080F2DD114F0040FEB
:1034500029D01E4E04251F4FC6F8085234460025B9
:10346000012111FA05F3D4F83002034218D0C4F850
:103470003832D4F8003203F02002002AF9D0681064
:1034800057F82030C6F80822D6F8141243B100F0DD
:103490000F0E4EEAC51C0CF08F0001F01F0198477B
:1034A0000135202DDCD1F8BD084B0821FE20C3F8E2
:1034B0000812FFF745FE10F01A0FC7D0064A13682E
:1034C000002BC3D000F015009847BFE700C00050A4
:1034D00000540010085400100454001010B5224B82
:1034E00022481C69224A24F4402119611C6944F4D1
:1034F00080211961DC68114624F0405E2EF0300412
:10350000DC60DC6844F0005C4CF01004DC605C685B
:1035100024F070545C605C6844F0A0545C60D0F8A7
:10352000C43043F00043C0F8C4301223C2F8F43F63
:10353000D1F8F80F0E4B00F01202122AF8D1002237
:103540004FF0FF31C3F804221046C3F80812C3F845
:103550002C22C3F83422C3F83812C3F84022FFF7F4
:1035600085FE012010BD00BF00C0024000C00F401A
:1035700000C00050704700BF10B50E4CFFF7AEFF03
:103580000D48FFF74BFE00202146FFF727FE802065
:103590002146FFF723FE00204021FFF7F9FD8020A0
:1035A0004021FFF7F5FD00200449054AFFF798FD8B
:1035B000012010BDFD2F01007535010025360100E9
:1035C00048540010014B1860704700BF545400105D
:1035D000F0B41349060A0968C0B20C7874B1002728
:1035E00002E009190C784CB14D78B542F9D1B842D6
:1035F00007D009190C780137002CF5D12046F0BC12
:103600007047022E196003D0097801201160F6E797
:10361000CC7891F802C001204CEA04231360EEE755
:1036200054540010F0B583B05A4B05461C680F4641
:1036300016460CB1A047A0B9287800F01F03012B53
:103640002BD0022B16D09BB995F801C03268BCF183
:10365000090F0DD8DFE80CF05D0C0C0C0C584F0C6A
:103660006436012003B0F0BD0A2A75D00B2A60D061
:103670000020F7E76C783668012C65D017D22879DE
:103680000193FFF7F7FD0023C0F3400C86F800C05C
:103690007370019901203960E4E76A783168002A83
:1036A000E2D10A704A70022218463A60DAE7032C27
:1036B000DED16A88002ADBD128790121FFF7E2FDFB
:1036C0000120CFE7AE78002E55D0334A1468237816
:1036D000002B46D0FF27394608E0052A2FD0022AC2
:1036E00000D16179E4182378002B3AD06278042A5B
:1036F000F3D1E778F6E76888A9883A46334603B0FD
:10370000BDE8F040FFF764BFA878FFF7A3FD0120F4
:10371000A8E7002302211370537001203960A1E74C
:103720001E48012390F800C0184682F800C03B6094
:1037300098E76A88002A9BD13A60184692E78E4241
:10374000D0D1E7B13146CDE76988002990D12879F9
:10375000FFF798FD204685E70020087018463B607B
:1037600080E70120FFF758FEB5F802C00B4B01209F
:1037700083F800C076E73046FFF74EFEF4E794F892
:1037800005E02179A07841EA0E21FFF701FD3146DD
:103790002378A7E7505400105454001058540010D8
:1037A000014B1860704700BF505400102DE9704362
:1037B0008AB004460D4600F07BF840F21C06C1F2C8
:1037C000000696F90030B3F1FF3F8046894637D0B6
:1037D0002046294600F000F9002831D0204629462D
:1037E0000022002300F08CFF002829D036784AF60A
:1037F0007803C0F20103CDE9024501930023CDE92E
:1038000004450893002E20D000230022CFF6F07349
:103810002046CDE9062329460022002300F05CFF64
:10382000002822D0022300939E4234D0684600F044
:103830001BF900282FD0089B002B27D1DDE9068932
:10384000404649460AB0BDE870834FF6FF734FF01B
:103850006042CCF2EF732046CDE9062329460022D0
:10386000002300F039FF0028DCD10123022E009351
:1038700016D0684600F0F8F890B14AF2F070C0F245
:10388000010000F0F3F8CDE90601D4E701F080FF74
:10389000089B0360D2E701F07BFF22230360CAE7A5
:1038A00001F076FF21230360E7E700BF000000007E
:1038B000B1F5801F2DE9F84F04460D460F461EDA7C
:1038C00021F00043034364D000296CDB0023002275
:1038D000C4F2503300F098FC4FF6FF73C7F6EF7355
:1038E0000D4604462F466FF035019F420EDD2046FF
:1038F000294622462B4600F0D5FABDE8F88F4FF650
:10390000FF730021C7F6EF739F42F0DCA1F57E71D3
:1039100027F07F49073929F4700901EB27574FEA4F
:10392000D77808EB0700C8F57E7800F007FC08F1AF
:10393000070806460F46204649EA085100F09CF861
:103940001FA3D3E90023804689463046394600F05C
:103950005BFC1DA3D3E9002382468B4630463946E3
:1039600000F052FC1AA3D3E9002304460D4640465A
:10397000494600F049FC02460B462046294600F025
:1039800091FA02460B465046594600F08BFABDE8C4
:10399000F88F0021002000220023CCF2503100F0EB
:1039A0005DFDBDE8F88F02460B4600F079FA002273
:1039B000002300F053FDBDE8F88F00BFAFF3008097
:1039C00000609F501344D33F362BF111F3FE593D55
:1039D0000EE526157BCBDB3F50EA010310B43CD04B
:1039E000D0F1010238BF0022B1F1004F14BF002313
:1039F00002F00103002B30D14FF6FF73A1F58010C8
:103A0000C7F6DF7301F1FE44984204F570048CBFE1
:103A1000002001209C428CBF034640F00103002B94
:103A200020D1B1F5801F01F100402CBF00230123FC
:103A3000B0F5801F38BF43F001038BB911F5801F2B
:103A4000C7F6F07314BF00200120994214BF01464D
:103A500040F0010102EA010000E0022010BC7047C2
:103A60000320FBE70420F9E7002070470021002035
:103A7000C7F6F871704700BFB1F5801F02462DE907
:103A8000F04F0B4687B00F4662DA21F00045054340
:103A900000F003810029C0F2BE8100230022C4F29D
:103AA00050336FF0350500F0AFFB0F460B464FF675
:103AB000FF710246C7F6EF718F4250DC27F07F445A
:103AC00045F6647624F47004C0F20906A61910467F
:103AD00006F48016002286F07E53A5F57E7583F4E9
:103AE000E003073D43EA04010023C3F6F07305EB4E
:103AF000275500F0D5F9A31C23F4700305EB1655E8
:103B0000022B8046894631DC0022002300F0E4FDD0
:103B1000002800F0CB80002D00F08481284600F0C2
:103B20000DFB8FA3D3E9002304460D4600F06CFB88
:103B30008DA3D3E9002306460F462046294600F010
:103B400063FB02460B463046394600F0ABF90AE00B
:103B50004FF6FF710025C7F6EF718F42AEDD1046BC
:103B6000194600F09FF907B0BDE8F08F00224FF032
:103B7000804300F097F94EF68636CFF6F976A6190F
:103B800002460B464046494600F068FCCDE902017A
:103B9000284600F0D3FACDE90401DDE9020102462E
:103BA0000B4600F031FB02460B46CDE9000100F068
:103BB0002BFB6FA3D3E9002382468B4600F024FB46
:103BC0006DA3D3E9002300F06DF952465B4600F087
:103BD0001BFB6BA3D3E9002300F064F952465B465C
:103BE00000F012FB68A3D3E9002300F05BF9DDE9E4
:103BF000002300F009FB66A3D3E90023CDE900010F
:103C00005046594600F000FB63A3D3E9002300F0BF
:103C100049F952465B4600F0F7FA61A3D3E9002365
:103C200000F040F952465B4600F0EEFA0B460246C1
:103C3000DDE9000100F036F94BF65103C0F206034E
:103C40001B1B43EA0606002E82468B4657DD0023E7
:103C50000022C3F6E0734046494600F0D5FA4246DA
:103C60004B4600F0D1FA06460F46002D40F0A080EA
:103C700052465B4600F016F9DDE9022300F0C4FA73
:103C800002460B463046394600F00AF902460B461A
:103C90004046494600F004F965E700210020002273
:103CA0000023CCF2503100F0D9FB5CE742464B4692
:103CB0004046494600F0A8FA3BA3D3E90023064654
:103CC0000F464046494600F09FFA0B460021024647
:103CD000C3F6E071002000F0E3F802460B463046E0
:103CE000394600F091FA06460F46002D40F09D80BF
:103CF0004046494632463B4600F0D2F833E7002DB5
:103D000000F0B78016A3D3E90023DDE9040100F039
:103D10007BFA52465B4606460F464046494600F04F
:103D2000BFF8DDE9022300F06FFA0FA3D3E9002307
:103D300004460D46DDE9040100F066FA02460B4632
:103D40002046294600F0ACF842464B4600F0A8F861
:103D500002460B463046394600F0A2F803E700BFA2
:103D60000000E0FE422EE63F763C7935EF39EA3D31
:103D700044523EDF12F1C23FDE03CB966446C73F9A
:103D8000599322942449D23F935555555555E53FB3
:103D90009FC678D0099AC33FAF788E1DC571CC3FBE
:103DA00004FA97999999D93F555555555555D53F89
:103DB00035A3D3E90023DDE9040100F025FA5246DA
:103DC0005B46CDE900013046394600F06BF8DDE98D
:103DD000022300F019FA2EA3D3E9002304460D466E
:103DE000DDE9040100F010FA02460B4620462946A0
:103DF00000F058F802460B463046394600F050F8BD
:103E000042464B4600F04CF802460B46DDE9000105
:103E100000F046F8A7E600F043F80022002300F087
:103E20001DFBA0E6002000219DE6284600F086F953
:103E300015A3D3E9002304460D4600F0E5F914A3C9
:103E4000D3E9002382468B462046294600F0DCF960
:103E500002460B463046394600F022F842464B46B1
:103E600000F01EF802460B465046594600F018F87E
:103E700079E652465B464046494600F011F8DDE9D6
:103E8000022300F0C1F901E70000E0FE422EE63F08
:103E9000763C7935EF39EA3D81F0004102E000BF20
:103EA00083F0004330B54FEA41044FEA430594EAFA
:103EB000050F08BF90EA020F1FBF54EA000C55EA35
:103EC000020C7FEA645C7FEA655C00F0E2804FEA06
:103ED0005454D4EB5555B8BF6D420CDD2C4480EAE8
:103EE000020281EA030382EA000083EA010180EA18
:103EF000020281EA0303362D88BF30BD11F0004F66
:103F00004FEA01314FF4801C4CEA113102D040429B
:103F100061EB410113F0004F4FEA03334CEA1333D6
:103F200002D0524263EB430394EA050F00F0A780EE
:103F3000A4F10104D5F1200E0DDB02FA0EFC22FAE9
:103F400005F2801841F1000103FA0EF2801843FADD
:103F500005F359410EE0A5F120050EF1200E012ACE
:103F600003FA0EFC28BF4CF0020C43FA05F3C0180C
:103F700051EBE37101F0004507D54FF0000EDCF185
:103F8000000C7EEB00006EEB0101B1F5801F1BD32E
:103F9000B1F5001F0CD349085FEA30004FEA3C0C32
:103FA00004F101044FEA445212F5800F80F09A8028
:103FB000BCF1004F08BF5FEA500C50F1000041EB2C
:103FC000045141EA050130BD5FEA4C0C404141EB30
:103FD000010111F4801FA4F10104E9D191F0000F57
:103FE00004BF01460020B1FA81F308BF2033A3F1DA
:103FF0000B03B3F120020CDA0C3208DD02F1140CD1
:10400000C2F10C0201FA0CF021FA02F10CE002F10B
:104010001402D8BFC2F1200C01FA02F120FA0CFC04
:10402000DCBF41EA0C019040E41AA2BF01EB04514D
:10403000294330BD6FEA04041F3C1CDA0C340EDC4B
:1040400004F11404C4F1200220FA04F001FA02F38E
:1040500040EA030021FA04F345EA030130BDC4F14C
:104060000C04C4F1200220FA02F001FA04F340EA41
:104070000300294630BD21FA04F0294630BD94F0F2
:10408000000F83F4801306BF81F480110134013DD9
:104090004EE77FEA645C18BF7FEA655C29D094EA4A
:1040A000050F08BF90EA020F05D054EA000C04BFC8
:1040B0001946104630BD91EA030F1EBF00210020B3
:1040C00030BD5FEA545C05D14000494128BF41F052
:1040D000004130BD14F580043CBF01F5801130BDB6
:1040E00001F0004545F0FE4141F470014FF0000041
:1040F00030BD7FEA645C1ABF194610467FEA655CF2
:104100001CBF0B46024650EA013406BF52EA033593
:1041100091EA030F41F4002130BD00BF90F0000F81
:1041200004BF0021704730B54FF4806404F13204BD
:104130004FF000054FF0000150E700BF90F0000F76
:1041400004BF0021704730B54FF4806404F132049D
:1041500010F0004548BF40424FF000013EE700BF6D
:1041600042004FEAE2014FEA31014FEA02701FBFFD
:1041700012F07F4393F07F4F81F06051704792F0CF
:10418000000F14BF93F07F4F704730B54FF4607449
:1041900001F0004521F0004120E700BF50EA010294
:1041A00008BF704730B54FF000050AE050EA010241
:1041B00008BF704730B511F0004502D5404261EBB1
:1041C00041014FF4806404F132045FEA915C3FF4F2
:1041D000DCAE4FF003025FEADC0C18BF03325FEA8B
:1041E000DC0C18BF033202EBDC02C2F1200300FA40
:1041F00003FC20FA02F001FA03FE40EA0E0021FA65
:1042000002F11444C1E600BF70B54FF0FF0C4CF44E
:10421000E06C1CEA11541DBF1CEA135594EA0C0F04
:1042200095EA0C0F00F0DEF82C4481EA030621EA3F
:104230004C5123EA4C5350EA013518BF52EA03357A
:1042400041F4801143F4801338D0A0FB02CE4FF02C
:104250000005E1FB02E506F00042E0FB03E54FF05C
:104260000006E1FB03569CF0000F18BF4EF0010E54
:10427000A4F1FF04B6F5007F64F5407404D25FEA50
:104280004E0E6D4146EB060642EAC62141EA555103
:104290004FEAC52040EA5E504FEACE2EB4F1FD0C45
:1042A00088BFBCF5E06F1ED8BEF1004F08BF5FEAC3
:1042B000500E50F1000041EB045170BD06F0004675
:1042C00046EA010140EA020081EA0301B4EB5C0422
:1042D000C2BFD4EB0C0541EA045170BD41F480111A
:1042E0004FF0000E013C00F3AB8014F1360FDEBF3F
:1042F000002001F0004170BDC4F10004203C35DA1B
:104300000C341BDC04F11404C4F1200500FA05F39D
:1043100020FA04F001FA05F240EA020001F000423E
:1043200021F0004110EBD37021FA04F642EB0601B4
:104330005EEA430E08BF20EAD37070BDC4F10C04DE
:10434000C4F1200500FA04F320FA05F001FA04F2A2
:1043500040EA020001F0004110EBD37041F100018E
:104360005EEA430E08BF20EAD37070BDC4F1200599
:1043700000FA05F24EEA020E20FA04F301FA05F201
:1043800043EA020321FA04F001F0004121FA04F2A9
:1043900020EA020000EBD3705EEA430E08BF20EA79
:1043A000D37070BD94F0000F0FD101F000464000B3
:1043B00041EB010111F4801F08BF013CF7D041EA35
:1043C000060195F0000F18BF704703F00046520039
:1043D00043EB030313F4801F08BF013DF7D043EA0A
:1043E0000603704794EA0C0F0CEA135518BF95EAC0
:1043F0000C0F0CD050EA410618BF52EA4306D1D147
:1044000081EA030101F000414FF0000070BD50EA65
:10441000410606BF1046194652EA430619D094EAEF
:104420000C0F02D150EA013613D195EA0C0F05D1D9
:1044300052EA03361CBF104619460AD181EA03012D
:1044400001F0004141F0FE4141F470014FF00000E5
:1044500070BD41F0FE4141F4780170BD70B54FF080
:10446000FF0C4CF4E06C1CEA11541DBF1CEA135500
:1044700094EA0C0F95EA0C0F00F0A7F8A4EB0504E2
:1044800081EA030E52EA03354FEA013100F08880D9
:104490004FEA03334FF0805545EA131343EA1263A2
:1044A0004FEA022245EA111545EA10654FEA002657
:1044B0000EF000419D4208BF964244F1FD0404F510
:1044C000407402D25B084FEA3202B61A65EB03056C
:1044D0005B084FEA32024FF480104FF4002CB6EB29
:1044E000020E75EB030E22BFB61A754640EA0C00A9
:1044F0005B084FEA3202B6EB020E75EB030E22BFE9
:10450000B61A754640EA5C005B084FEA3202B6EB29
:10451000020E75EB030E22BFB61A754640EA9C00E8
:104520005B084FEA3202B6EB020E75EB030E22BFB8
:10453000B61A754640EADC0055EA060E18D04FEA76
:10454000051545EA16754FEA06164FEAC30343EA16
:1045500052734FEAC2025FEA1C1CC0D111F4801FE3
:104560000BD141EA00014FF000004FF0004CB6E7DC
:1045700011F4801F04BF01430020B4F1FD0C88BF7B
:10458000BCF5E06F3FF6AFAEB5EB030C04BFB6EB86
:10459000020C5FEA500C50F1000041EB045170BD79
:1045A0000EF0004E4EEA113114EB5C04C2BFD4EBA6
:1045B0000C0541EA045170BD41F480114FF0000E2A
:1045C000013C90E645EA060E8DE60CEA135594EAA6
:1045D0000C0F08BF95EA0C0F3FF43BAF94EA0C0FA9
:1045E0000AD150EA01347FF434AF95EA0C0F7FF41E
:1045F00025AF104619462CE795EA0C0F06D152EA72
:1046000003353FF4FDAE1046194622E750EA410655
:1046100018BF52EA43067FF4C5AE50EA41047FF466
:104620000DAF52EA43057FF4EBAE12E74FF0FF3CCB
:1046300006E000BF4FF0010C02E000BF4FF0010C9C
:104640004DF804CD4FEA410C7FEA6C5C4FEA430C15
:1046500018BF7FEA6C5C1BD001B050EA410C0CBF64
:1046600052EA430C91EA030F02BF90EA020F0020C6
:10467000704710F1000F91EA030F58BF994208BF2D
:1046800090422CBFD8176FEAE37040F001007047EA
:104690004FEA410C7FEA6C5C02D150EA013C07D141
:1046A0004FEA430C7FEA6C5CD6D152EA033CD3D08C
:1046B0005DF8040B704700BF8446104662468C4686
:1046C0001946634600E000BF01B5FFF7B7FF0028B9
:1046D00048BF10F1000F01BD4DF808EDFFF7F4FFE2
:1046E0000CBF012000205DF808FB00BF4DF808ED6D
:1046F000FFF7EAFF34BF012000205DF808FB00BF90
:104700004DF808EDFFF7E0FF94BF012000205DF8B1
:1047100008FB00BF4DF808EDFFF7CEFF94BF012066
:1047200000205DF808FB00BF4DF808EDFFF7C4FF5F
:1047300034BF012000205DF808FB00BF4FEA4102B2
:1047400012F5001215D211D56FF47873B3EB6252E3
:1047500012D94FEAC12343F0004343EA505311F00A
:10476000004F23FA02F018BF404270474FF000009C
:10477000704750EA013005D111F0004008BF6FF0DA
:10478000004070474FF00000704700BF4FEA410201
:10479000B2F1E04324BFB3F5001CDCF1FE5C0DD99F
:1047A00001F0004C4FEAC0024CEA5070B2F1004FE9
:1047B00040EB830008BF20F00100704711F0804FEC
:1047C00021D113F13872BCBF01F00040704741F4B1
:1047D00080114FEA5252C2F11802C2F1200C10FAB5
:1047E0000CF320FA02F018BF40F001004FEAC12399
:1047F0004FEAD32303FA0CFC40EA0C0023FA02F33D
:104800004FEA4303CCE77FEA625307D150EA013312
:104810001EBF4FF0FE4040F44000704701F00040E2
:1048200040F0FE4040F40000704700BF80F00040C0
:1048300002E000BF81F0004142001FBF5FEA410378
:1048400092EA030F7FEA226C7FEA236C6AD04FEA78
:104850001262D2EB1363C1BFD218414048404140BD
:10486000B8BF5B42192B88BF704710F0004F40F46F
:10487000000020F07F4018BF404211F0004F41F48B
:10488000000121F07F4118BF494292EA030F3FD057
:10489000A2F1010241FA03FC10EB0C00C3F120036A
:1048A00001FA03F100F0004302D5494260EB4000F9
:1048B000B0F5000F13D3B0F1807F06D340084FEA64
:1048C000310102F10102FE2A51D2B1F1004F40EB59
:1048D000C25008BF20F0010040EA030070474900C1
:1048E00040EB000010F4000FA2F10102EDD1B0FA8C
:1048F00080FCACF1080CB2EB0C0200FA0CF0AABF81
:1049000000EBC25052421843BCBFD040184370471E
:1049100092F0000F81F4000106BF80F40000013224
:10492000013BB5E74FEA41037FEA226C18BF7FEAFB
:10493000236C21D092EA030F04D092F0000F08BF3D
:104940000846704790EA010F1CBF0020704712F024
:104950007F4F04D1400028BF40F00040704712F163
:1049600000723CBF00F50000704700F0004343F0C8
:10497000FE4040F4000070477FEA226216BF0846FE
:104980007FEA23630146420206BF5FEA412390EAC1
:10499000010F40F4800070474FF0000304E000BFB7
:1049A00010F0004348BF40425FEA000C08BF704768
:1049B00043F0964301464FF000001CE050EA01022C
:1049C00008BF70474FF000030AE000BF50EA010241
:1049D00008BF704711F0004302D5404261EB41012E
:1049E0005FEA010C02BF84460146002043F0B64353
:1049F00008BFA3F18053A3F50003BCFA8CF2083A78
:104A0000A3EBC25310DB01FA02FC634400FA02FC80
:104A1000C2F12002BCF1004F20FA02F243EB020087
:104A200008BF20F00100704702F1200201FA02FCE9
:104A3000C2F1200250EA4C0021FA02F243EB0200DC
:104A400008BF20EADC7070474FF0FF0C1CEAD05220
:104A50001EBF1CEAD15392EA0C0F93EA0C0F6FD0E1
:104A60001A4480EA010C400218BF5FEA41211ED0BF
:104A70004FF0006343EA501043EA5111A0FB0131AB
:104A80000CF00040B1F5000F3EBF490041EAD37180
:104A90005B0040EA010062F17F02FD2A1DD8B3F1FC
:104AA000004F40EBC25008BF20F00100704790F06B
:104AB000000F0CF0004C08BF49024CEA502040EABD
:104AC00051207F3AC2BFD2F1FF0340EAC250704783
:104AD00040F400004FF00003013A5DDC12F1190FC1
:104AE000DCBF00F000407047C2F10002410021FA33
:104AF00002F1C2F1200200FA02FC5FEA310040F14B
:104B0000000053EA4C0308BF20EADC70704792F0C3
:104B1000000F00F0004C02BF400010F4000F013AFB
:104B2000F9D040EA0C0093F0000F01F0004C02BFF6
:104B3000490011F4000F013BF9D041EA0C018FE765
:104B40000CEAD15392EA0C0F18BF93EA0C0F0AD06B
:104B500030F0004C18BF31F0004CD8D180EA010091
:104B600000F00040704790F0000F17BF90F0004F2A
:104B7000084691F0000F91F0004F14D092EA0C0F0C
:104B800001D142020FD193EA0C0F03D14B0218BF9F
:104B9000084608D180EA010000F0004040F0FE40E5
:104BA00040F40000704740F0FE4040F44000704781
:104BB0004FF0FF0C1CEAD0521EBF1CEAD15392EA00
:104BC0000C0F93EA0C0F69D0A2EB030280EA010CF0
:104BD00049024FEA402037D04FF0805343EA111189
:104BE00043EA10130CF000408B4238BF5B0042F1E7
:104BF0007D024FF4000C8B4224BF5B1A40EA0C008C
:104C0000B3EB510F24BFA3EB510340EA5C00B3EBBD
:104C1000910F24BFA3EB910340EA9C00B3EBD10FAB
:104C200024BFA3EBD10340EADC001B0118BF5FEAFD
:104C30001C1CE0D1FD2A3FF650AF8B4240EBC25026
:104C400008BF20F0010070470CF0004C4CEA5020E7
:104C50007F32C2BFD2F1FF0340EAC250704740F436
:104C600000004FF00003013A37E792F0000F00F028
:104C7000004C02BF400010F4000F013AF9D040EAA6
:104C80000C0093F0000F01F0004C02BF490011F43A
:104C9000000F013BF9D041EA0C0195E70CEAD15332
:104CA00092EA0C0F08D142027FF47DAF93EA0C0F19
:104CB0007FF470AF084676E793EA0C0F04D14B02FD
:104CC0003FF44CAF08466EE730F0004C18BF31F0AF
:104CD000004CCAD130F000427FF45CAF31F00043A9
:104CE0007FF43CAF5FE700BF4FF0FF3C06E000BF42
:104CF0004FF0010C02E000BF4FF0010C4DF804CD65
:104D00004FEA40024FEA41037FEA226C18BF7FEA74
:104D1000236C11D001B052EA530C18BF90EA010F76
:104D200058BFB2EB030088BFC81738BF6FEAE17005
:104D300018BF40F0010070477FEA226C02D15FEAA1
:104D4000402C05D17FEA236CE4D15FEA412CE1D00D
:104D50005DF8040B704700BF844608466146FFE7D4
:104D60000FB5FFF7C9FF002848BF10F1000F0FBDB6
:104D70004DF808EDFFF7F4FF0CBF012000205DF8AF
:104D800008FB00BF4DF808EDFFF7EAFF34BF012034
:104D900000205DF808FB00BF4DF808EDFFF7E0FFCD
:104DA00094BF012000205DF808FB00BF4DF808ED1E
:104DB000FFF7D2FF94BF012000205DF808FB00BF81
:104DC0004DF808EDFFF7C8FF34BF012000205DF863
:104DD00008FB00BF4FEA4002B2F1FE4F0FD34FF085
:104DE0009E03B3EB12620DD94FEA002343F0004358
:104DF00010F0004F23FA02F018BF404270474FF006
:104E00000000704712F1610F01D1420205D110F08C
:104E1000004008BF6FF0004070474FF0000070473F
:104E20004BB942B9002908BF002802D04FF0FF312A
:104E3000084600F03BB882B0EC462DE9005000F087
:104E40001DF8DDF804E002B00CBC70472DE970439A
:104E50001646804689461D4600F02AF800FB05F3F9
:104E6000A0FB064506FB0136069B7519B8EB04044A
:104E700069EB0505C3E90045BDE870832DE9704382
:104E80001646804689461D4600F0C2F900FB05F330
:104E9000A0FB064506FB0136069B7519B8EB04041A
:104EA00069EB0505C3E90045BDE87083704700BFA5
:104EB00000292DE9F04F1C4685B0C0F2CB800026BA
:104EC000002CC0F2C2808C46174614460546884620
:104ED0009A46002B4AD18A426ED9B2FA82F35BB16C
:104EE000C3F1200401FA03F830FA04F210FA03F5D2
:104EF00017FA03F442EA08084FEA144A40465146BA
:104F00001FFA84FB00F008FB51468146404600F042
:104F100031FC280C0BFB09F340EA0148434509D951
:104F200018EB040809F1FF3904D2434584BF09F1A5
:104F3000FF39A044C3EB080851464046ADB200F02B
:104F4000EBFA51460746404600F014FC0BFB07FB0A
:104F500045EA0145AB4505D9013F2D1902D2AB45C4
:104F600088BF013F47EA0949002403E08B420CD97E
:104F70000024A1464A46234616B1524263EB43033E
:104F80001046194605B0BDE8F08FB3FA83F4002C43
:104F900040F0B3808B424FF001092CBF4FF0000C62
:104FA0004FF0010C82428CBF67464CF00107002F86
:104FB000E0D13C46B946DDE722B90120114600F0B8
:104FC000ABFA0446B4FA84F3002B49D1C4EB0808C9
:104FD000270C1FFA84FA012102913946404600F05D
:104FE0009BFA39468146404600F0C4FB2A0C0AFB76
:104FF00009F342EA014B5B4509D91BEB040B09F1AC
:10500000FF3904D25B4584BF09F1FF39A344C3EBE8
:105010000B0B39465846ADB200F07EFA3946804651
:10502000584600F0A7FB0AFB08FA45EA0145AA45E5
:1050300007D92D1908F1FF3803D2AA4588BF08F116
:10504000FF3848EA0949029C94E7F643524263EB71
:10505000430338E7404261EB41014FF0FF362FE751
:105060009C40C3F1200728FA07FA35FA07F2270C0B
:1050700008FA03FB3946504642EA0B029D40029271
:1050800000F04AFA39468346504600F073FB029B13
:105090001FFA84FA4FEA13490AFB0BF349EA014865
:1050A000434505D918EB04080BF1FF3BC0F0AA807B
:1050B000C3EB08083946404600F02EFA39468146CF
:1050C000404600F057FB02980AFB09F31FFA80FCE8
:1050D0004CEA0148434509D918EB040809F1FF39A6
:1050E00004D2434584BF09F1FF39A04449EA0B4E7D
:1050F000C3EB0808CDF808E06FE7C4F120030AFA13
:1051000004FADA4021FA03F842EA0A0A01FA04F939
:1051100030FA03F240464FEA1A4B42EA0901039182
:10512000594617FA04F3029300F0F6F959468146FE
:10513000404600F01FFB1FFA8AF3039803FB09F2B5
:10514000070C47EA0148424504D918EB0A0809F15F
:10515000FF3951D3C2EB080859464046019300F08D
:10516000DBF959460746404600F004FB019B0398D3
:1051700003FB07F31FFA80FC4CEA014C634507D997
:10518000013F1CEB0A0C03D2634501D9013FD44413
:1051900047EA0949029FC3EB0C0C1FFA89FE4FEA4C
:1051A0001943B8B23F0C00FB0EF800FB03F107FBFC
:1051B0000E1207FB03F002EB1842914288BF00F584
:1051C000803000EB124EF44512D34FEA02421FFA30
:1051D00088F814BF0021012102EB080C15FA04F431
:1051E00064452CBF002401F00104002C3FF4C2AE42
:1051F00009F1FF390024BDE6424584BF09F1FF39BA
:10520000D044A7E7434584BF0BF1FF3BA0444FE7E1
:105210002DE9F04F054683B00C46174680460E46F2
:10522000002B4DD18A4261D9B2FA82F353B1C3F156
:10523000200411FA03F630FA04F29F4042EA06060F
:1052400000FA03F83C0C304621461FFA87FA00F0BA
:1052500063F921468146304600F08CFA4FEA184047
:105260000AFB09F340EA0146B34208D9F61909F1ED
:10527000FF3904D2B34284BF09F1FF39F619F61A97
:10528000214630461FFA88F800F046F921460546C7
:10529000304600F06FFA0AFB05FA48EA0148C245B9
:1052A00006D9013D18EB070802D2C24588BF013D6F
:1052B00045EA094A00263146504603B0BDE8F08F62
:1052C0008B425BD8B3FA83F6002E5AD18B424FF053
:1052D000010A2CBF0024012482428CBF254644F0E1
:1052E0000105002DE7D12E46AA46E4E722B90120A8
:1052F000114600F011F90746B7FA87F3002B40F08A
:10530000B680E41B4FEA174BBDB201265946204632
:1053100000F002F959464FEA18498246204600F04B
:1053200029FA05FB0AF349EA0144A34208D9E41922
:105330000AF1FF3A04D2A34284BF0AF1FF3AE4190A
:10534000E41A5946204600F0E7F8594681462046BF
:1053500000F010FA1FFA88F305FB09F543EA01484B
:10536000454508D918EB070809F1FF3903D245452F
:1053700088BF09F1FF3949EA0A4A9CE70026B2468C
:1053800099E7C6F12001B34032FA01F724FA01F996
:105390001F43B44030FA01F348464FEA174843EA46
:1053A000040101914146B240009200F0B5F8414637
:1053B000BCB28246484600F0DDF9019804FB0AF3CE
:1053C0004FEA104B4BEA014B5B4505D91BEB070B32
:1053D0000AF1FF3AC0F09380C3EB0B0B41465846ED
:1053E00000F09AF841468146584600F0C3F901980A
:1053F00004FB09F41FFA80FC4CEA01439C4203D9E8
:10540000DB1909F1FF3974D3009F49EA0A4A1C1BD2
:105410001FFA8AFEB8B23A0C4FEA1A4700FB0EFC9C
:1054200000FB07F302FB0E3102FB07F201EB1C410C
:105430008B4288BF02F5803202EB114E744512D3C5
:105440004FEA01411FFA8CF214BF0023012301EB44
:10545000020C15FA06F666452CBF002603F001067D
:10546000002E3FF428AF0AF1FF3A002623E79F40C1
:10547000C3F1200134FA01F614FA03F24FEA174B94
:1054800025FA01FA3046594605FA03F84AEA020AB3
:1054900000F042F85946BDB28146304600F06AF944
:1054A0004FEA1A4C05FB09F34CEA0144A34203D925
:1054B000E41909F1FF3928D3E41A5946204600F0CF
:1054C0002BF859460646204600F054F91FFA8AF494
:1054D00005FB06F344EA0144A34206D9013EE41960
:1054E00003D2A34201D9013EE419E41A46EA09466F
:1054F0000CE79C4284BF09F1FF39DB1984E75B4567
:1055000084BF0AF1FF3ABB4466E7A34284BF09F1B6
:10551000FF39E419D0E700BF4A1E08BF7047C0F04A
:105520002481884240F21681114200F01781B0FABE
:1055300080F3B1FA81F2A2EB0303C3F11F0304A2CB
:1055400002EB03134FF000029F4600BFAFF3008051
:10555000B0EBC17F00BF42EB020228BFA0EBC170DD
:10556000B0EB817F00BF42EB020228BFA0EB81704D
:10557000B0EB417F00BF42EB020228BFA0EB4170BD
:10558000B0EB017F00BF42EB020228BFA0EB01702D
:10559000B0EBC16F00BF42EB020228BFA0EBC160BD
:1055A000B0EB816F00BF42EB020228BFA0EB81602D
:1055B000B0EB416F00BF42EB020228BFA0EB41609D
:1055C000B0EB016F00BF42EB020228BFA0EB01600D
:1055D000B0EBC15F00BF42EB020228BFA0EBC1509D
:1055E000B0EB815F00BF42EB020228BFA0EB81500D
:1055F000B0EB415F00BF42EB020228BFA0EB41507D
:10560000B0EB015F00BF42EB020228BFA0EB0150EC
:10561000B0EBC14F00BF42EB020228BFA0EBC1407C
:10562000B0EB814F00BF42EB020228BFA0EB8140EC
:10563000B0EB414F00BF42EB020228BFA0EB41405C
:10564000B0EB014F00BF42EB020228BFA0EB0140CC
:10565000B0EBC13F00BF42EB020228BFA0EBC1305C
:10566000B0EB813F00BF42EB020228BFA0EB8130CC
:10567000B0EB413F00BF42EB020228BFA0EB41303C
:10568000B0EB013F00BF42EB020228BFA0EB0130AC
:10569000B0EBC12F00BF42EB020228BFA0EBC1203C
:1056A000B0EB812F00BF42EB020228BFA0EB8120AC
:1056B000B0EB412F00BF42EB020228BFA0EB41201C
:1056C000B0EB012F00BF42EB020228BFA0EB01208C
:1056D000B0EBC11F00BF42EB020228BFA0EBC1101C
:1056E000B0EB811F00BF42EB020228BFA0EB81108C
:1056F000B0EB411F00BF42EB020228BFA0EB4110FC
:10570000B0EB011F00BF42EB020228BFA0EB01106B
:10571000B0EBC10F00BF42EB020228BFA0EBC100FB
:10572000B0EB810F00BF42EB020228BFA0EB81006B
:10573000B0EB410F00BF42EB020228BFA0EB4100DB
:10574000B0EB010F00BF42EB020228BFA0EB01004B
:10575000104670470CBF012000207047B1FA81F25B
:10576000C2F11F0220FA02F0704708B14FF0FF307B
:10577000FFF79CBB0029F8D02DE90340FFF7CCFED2
:10578000BDE8064002FB00F3A1EB0301704700BF38
:1057900040F22003C1F2000318687047032A70B476
:1057A00004460D4626D941EA000313F0030F13D037
:1057B00020782B78984208BF294606D01EE014F8BE
:1057C000010F11F8013F984218D1012A02F1FF326E
:1057D000F5D1002070BC70470B46044651F8045BBD
:1057E00050F8046BAE4204D1043A0446032A0B4637
:1057F000F2D81D461046002ADAD1EBE7C01AE9E7D5
:10580000032A2DE9F00109D82AB10023CC5CC45445
:1058100001339342FAD1BDE8F00170470B4682187C
:10582000014603E02478013301F8014B11F0030F26
:105830001C46F7D113F003055DD06E42C5F1040C90
:10584000ED009B594FEACC0C08E00434A7593B46C5
:1058500007FA0CF748EA070741F8047B571A23FABE
:1058600005F8032FF1DC03E014F8013B01F8013BDC
:105870008A42F9D8CFE753F8404C41F8404C53F8EE
:105880003C4C41F83C4C53F8384C41F8384C53F8F8
:10589000344C41F8344C53F8304C41F8304C53F808
:1058A0002C4C41F82C4C53F8284C41F8284C53F818
:1058B000244C41F8244C53F8204C41F8204C53F828
:1058C0001C4C41F81C4C53F8184C41F8184C53F838
:1058D000144C41F8144C53F8104C41F8104C53F848
:1058E0000C4C41F80C4C53F8084C41F8084C53F858
:1058F000044C41F8044C561A1D460C4640334031C6
:105900003F2EB8DC2B460FE053F8101C44F8101C57
:1059100053F80C1C44F80C1C53F8081C44F8081CE1
:1059200053F8041C44F8041C161B21461D46103471
:1059300010330F2EE8DC2B4602E0246841F8044BBC
:10594000551A1C46032D03F10403F6DC90E700BF53
:10595000032AC9B270B408D82AB10346121803F852
:10596000011B9342FBD170BC70478218044601E0D2
:1059700004F8011B14F0030FFAD14FF0013303FBBD
:1059800001F31FE044F8403C44F83C3C44F8383C08
:1059900044F8343C44F8303C44F82C3C44F8283C6F
:1059A00044F8243C44F8203C44F81C3C44F8183C9F
:1059B00044F8143C44F8103C44F80C3C44F8083CCF
:1059C00044F8043C161B254640343F2EDADC2C46B6
:1059D00007E044F8103C44F80C3C44F8083C44F818
:1059E000043C161B254610340F2EF2DC01E045F86E
:1059F000043B541B032CFADC01E005F8011B954223
:105A0000FBD3B0E70CB44FF4027370B59CB020AC7C
:105A10000E46ADF8103001A954F8042B4FF0FF33B7
:105A2000ADF812306FF000452346019605960395B8
:105A300006951B9400F0EEF8019B00221A701CB032
:105A4000BDE8704002B070470EB440F22003F0B5DC
:105A50009CB021ACC1F20003064601A954F8042B06
:105A60006FF0004518684FF40277234601960596BB
:105A70004FF0FF36ADF81070ADF812600395069543
:105A80001B9400F0C7F8019B00221A701CB0BDE8FF
:105A9000F04003B0704700BF10F0030F38B5044664
:105AA00012D10368A3F1013222EA030313F0803F0D
:105AB0000AD1031D184653F8042BA2F1013525EA3B
:105AC000020212F0803FF5D003782BB1431C184638
:105AD00013F8012B002AFAD100F002F8204638BD55
